:020000040800F2
:10000000D80700205D0200087B3500082930000871
:10001000793500080D1F000829360008000000008F
:100020000000000000000000000000007F35000814
:10003000431F0008000000007D35000881350008DE
:1000400077020008770200087702000877020008AC
:10005000770200087702000877020008770200089C
:10006000770200087702000877020008770200088C
:10007000770200087702000877020008770200087C
:10008000770200087702000877020008770200086C
:10009000770200087702000877020008770200085C
:1000A000770200087702000877020008770200084C
:1000B000770200087702000877020008770200083C
:1000C000770200087702000877020008770200082C
:1000D000770200087702000877020008770200081C
:1000E000770200087702000877020008770200080C
:1000F00077020008770200087702000877020008FC
:1001000077020008770200087702000877020008EB
:1001100077020008770200087702000877020008DB
:1001200077020008770200087702000877020008CB
:1001300077020008770200087702000877020008BB
:1001400077020008770200087702000877020008AB
:10015000770200087702000877020008770200089B
:10016000770200087702000877020008770200088B
:1001700077020008770200087702000800000000FC
:10018000770200087702000800F002F800F057F844
:100190000AA090E8000C82448344AAF10107DA45E2
:1001A00001D100F04CF8AFF2090EBAE80F0013F0DD
:1001B000010F18BFFB1A43F001031847003D000070
:1001C000203D0000103A24BF78C878C1FAD8520701
:1001D00024BF30C830C144BF04680C6070470000C1
:1001E0000023002400250026103A28BF78C1FBD840
:1001F000520728BF30C148BF0B607047662903F023
:10020000DD85642900F0E280782900F01B81002060
:1002100070471FB503F0CDFD9DE8030001F0A0F885
:1002200000F0DCFC04000020002103F035FDE0605C
:1002300000F0D4FD1FBD10B500F039FE10BD00F078
:100240006DFE1146FFF7E5FF03F048FB01F05CF897
:1002500003B4FFF7F0FF03BC01F0F4F9094880474D
:1002600009480047FEE7FEE7FEE7FEE7FEE7FEE798
:10027000FEE7FEE7FEE7FEE704480549054A064BB0
:10028000704700001936000889010008D8010020D5
:10029000D8070020D8030020D803002053EA020C1E
:1002A00000F069802DE9F04B4FF00006002B1FBFD6
:1002B000B3FA83F503FA05F424FA05F65E4012BF9B
:1002C0001643B2FA82F502FA05F4C5F120051EBF05
:1002D00022FA05FC44EA0C04203556EA044C4FEAA5
:1002E000144418BF641C4FF000084FF000099042FE
:1002F00071EB030C39D3002919BFB1FA81F701FA68
:1003000007F6B0FA80F700FA07F6C7F120071EBF1C
:1003100020FA07FC46EA0C062037B6FBF4FCA7EBF4
:100320000507103F07F01F0BCBF120060CFA0BFB63
:100330002CFA06F644BFB3460026202FA4BF5E4623
:100340004FF0000B5BEA060C08BF4FF0010B19EBF6
:100350000B09ABFB027C48EB0608C01B06FB02CC7A
:100360000BFB03CC71EB0C01C1E70B460246414687
:100370004846BDE8F08B13B54FF000004FF0000188
:10038000AFF30080BDE81C40704700000FB4044983
:1003900010B503AA029800F00FFC10BC5DF814FB26
:1003A000CC0000200FB41CB5074B06AA7B4469465D
:1003B0000090059800F0E7FB0020694600F0F6FB8E
:1003C0001CBC5DF814FB0000FD0700002DE9F041A6
:1003D0000646002410687529314616A510D0AFF3E3
:1003E0000080002802DA404213A507E031688A073E
:1003F00001D512A502E0490704D511A5012401E0A9
:10040000AFF3008000210A2206F1240709E0B0FBC7
:10041000F2FCB0FBF2F302FB1C00303078541846BB
:10042000491C0028F3D123462A463046BDE8F04156
:1004300000F03BB9000000002D0000002B00000080
:100440002000000070B504460D4621461068AFF349
:1004500000802188090502D50F4A7A4402E00E4A3D
:100460007A440E32002104F1240305E000F00F0667
:100470000009965D5E54491C0028F7D120780023BE
:10048000000704D5702D02D009B102231132204695
:10049000BDE8704000F009B9913900002DE9F05F26
:1004A000894604464FF0000ADFF824B1FB44C0F847
:1004B00020A02046E168884700287DD0252806D066
:1004C000D4E901219047206A401C2062F1E7002511
:1004D0005F462046E16888472028064607DB312E24
:1004E00005D2B81910F8200C08B10543F1E7A807A8
:1004F00001D525F00405C4F81CA00027C4F818A0F5
:100500002A2E09D0304603F0B8F838B304EB870838
:10051000303EC8F8186019E059F8041B204604EB77
:1005200087029161E1688847012F064618D1E0698A
:10053000002820DA25F020051DE0D8F8180000EB8F
:10054000800006EB40003038C8F818002046E1680B
:100550008847064603F091F80028EED1012F0AD013
:100560002E2E08D12046E16888477F1C0646022FC0
:1005700045F02005C4DBA069002803DA404245F0BD
:100580000105A061E80701D025F01005A6B1A6F18C
:100590004100192802D8203645F400654A46314604
:1005A000204625604D46FFF729FE60B1012807D09F
:1005B000ED1D25F0070000E007E000F1080978E7ED
:1005C00005F1040975E730467AE7206ABDE8F09F37
:1005D000673900004FF0000200B513469446964676
:1005E000203922BFA0E80C50A0E80C50B1F1200146
:1005F000BFF4F7AF090728BFA0E80C5048BF0CC0F4
:100600005DF804EB890028BF40F8042B08BF704751
:1006100048BF20F8022B11F0804F18BF00F8012BC3
:10062000704700004FF0013C50F8042B51F8043B98
:100630009A4221D1A2EB0C03934313EACC1317D1B6
:1006400050F8042B51F8043B9A4215D1A2EB0C034D
:10065000934313EACC130BD150F8042B51F8043B0D
:100660009A4209D1A2EB0C03934313EACC13DBD0DB
:100670004FF00000704700BFD01A01BAB1FA81F103
:1006800001F0180122FA01F0CB40C1F12001DBB2E8
:10069000C0B2C01A2CFA01F3D11A914311EAC31166
:1006A000E6D170477047704770472DE9F0470D4617
:1006B00099469246044600F124080168880604D54C
:1006C000E06921F01001216000E00120A84201DD75
:1006D000471B00E00027A1697A1902EB0900081AFC
:1006E000A0612078C00602D42046AFF30080002627
:1006F00008E0D4E901211AF806009047206A401C5E
:10070000761C20624E45F4DB2078C0060AD52046D0
:10071000AFF3008006E0D4E9012130209047206A41
:10072000401C2062381EA7F10107F4DC07E0D4E981
:10073000012118F805009047206A401C2062281EFD
:10074000A5F10105F3DC2046AFF300802078000618
:1007500002D50220BDE8F0870120FBE770472DE9B4
:10076000FF4F0C461E464FF0FF378BB0D2E9000119
:10077000DDF860800A908A46C1F30A5505B93D4606
:10078000002108464FF00000BAF1000F00F44000CD
:1007900005DA00EB80004FF4400101EA50004FEA17
:1007A0009059B9F1010F00DDB9460A9850EA4A00A4
:1007B0000ED044F61050A5F2FF3545432F14B8F182
:1007C000000F1ED07542291E1EDDC9F100021CE07B
:1007D000B8F1010F4FF0000001D0302103E0F243E7
:1007E00005E02154401CB042FBDB304600220021D2
:1007F00021540B99C1F80880C1E900200FB0BDE871
:10080000F08FBD1B6D1CDEE74A4600DA694206A880
:1008100000F06EFA06AB93E8070003AB83E807002D
:1008200050460A9900F0AAFF8DE80700A0F5005095
:100830001F3800900398002D0ADD42F21F014A463E
:100840000844002303A90390684601F013FA09E065
:10085000A0F500504A461F38002303A903906846BC
:1008600001F01DFA8DE807000004000C03D04FF0E2
:10087000FF30410800E01046B8F1000F03D000221D
:10088000009215461EE0751E05D400F0ABF930321B
:1008900062556D1EF9D5B3460122084302D00022ED
:1008A0007F1C04E02078302801D100227F1E002A1E
:1008B000099784D01DE0112D07DA00F093F930324A
:1008C00062556D1C50EA0102F5D1084302D0009830
:1008D000C8B10EE00021681E05E0235C625C635431
:1008E0002254401E491C8142F7DBAB46A81B401E28
:1008F0000990002004F80B000B98099AC0F80880B2
:10090000C0E9002B7AE711264FF0000857E72DE9E0
:10091000F04F88460446D21D22F0070191B0D1E97C
:100920000001CDE90A0102F080FE02460B98C00FDB
:1009300001D02D2007E02068810701D52B2002E09F
:10094000202101EAC000032A099001D0072A05DB13
:1009500003464146204600F08BF90BE120788006E3
:1009600001D5E06900E00620B8F1650F814606D0A8
:10097000B8F1660F18D0B8F1670F70D131E00020E0
:10098000B9F1110F009001DB112301E009F101031E
:100990000AAA01A90CA8FFF7E2FEDDE90C70002607
:1009A00009F10105834647E001204B4600904FF0D6
:1009B00000470AAA01A90CA8FFF7D1FEDDE90DB096
:1009C0000C995D46002610B909F101000D18B9EB2C
:1009D000050003D4C0F1FF3609F10105A5EB0900BC
:1009E0002BE0B9F1010F01DA4FF001090020B9F154
:1009F000110F0090484601DD112300E003460AAACA
:100A000001A90CA8FFF7ABFEDDE90C704D460026EE
:100A10008346207800070AD4AB4500DA5D4601A87A
:100A2000012D04DD411911F8011C302907D04F4573
:100A300002DA17F1040F04DA012082460FE06D1E7E
:100A4000EEE7002F02DCED1B3E4403E0781CA842D9
:100A500000DD7D1CB81B00F1010A4FF00047207833
:100A6000000703D4AA4501DB4FF0FF3A0021B7F19C
:100A7000004F0DF143088DF8431024D002202B23A2
:100A8000002F01DA7F422D230A21021EA0F101006E
:100A900000DC5FB197FBF1FC97FBF1F201FB1C7CE2
:100AA00017460CF1300C08F801CDEEE7A8F1010073
:100AB00003702188090501D5452100E06521A0F1D9
:100AC000010800F8011C09980FA9A1EB0807FF1DF8
:100AD00000B10120411901EBEA70A1693844081AFC
:100AE000401EA0612078C00602D42046AFF30080EB
:100AF000099828B1D4E901219047206A401C20625E
:100B00002078C00622D52046AFF300801EE0002EDC
:100B100004DBB34502DD01A8805D00E03020D4E9AC
:100B200001219047206A401C2062761CAAF1010036
:100B30005FEA000A0AD100F051F8C0680168405C21
:100B4000D4E901219047206A401C2062281EA5F1AB
:100B50000105DCDC07E0D4E9012118F8010B90471E
:100B6000206A401C2062381EA7F10107F3DC2046F2
:100B7000AFF30080032011B041E6000001694A1C78
:100B800002610878704700B58FB0CDE901310021CE
:100B9000059105497944CDE9031011466846FFF7F0
:100BA0007DFC0FB000BD0000E5FFFFFF0A6802F802
:100BB000010B0A6070470000074B70B50D467B447F
:100BC000FFF7E1FF0446284600F004F910B14FF0AA
:100BD000FF3070BD204670BDA12B0000004870475B
:100BE0009401002030B5B0F10A024FEA900E71F185
:100BF00000034EEA817EB0EB0E0061EB91014FEAFB
:100C0000101E4EEA017E10EB0E0041EB11114FEA6F
:100C1000102E4EEA016E10EB0E0041EB11214FEA4F
:100C2000104E4EEA014E10EB0E0041EB1141401800
:100C300041F100014FEAD00040EA41704FEAD10192
:100C400010EB80054FEA810444EA907444EB010400
:100C50006D1944EB0404521BA3414FF0000348BF3D
:100C60000A3200D530BD401C41F1000130BD00000A
:100C70002DE9F0411F46044603260168072A01F4C6
:100C8000006004DB08B116A505E016A503E008B175
:100C900015A500E015A521F010002060A069C01E78
:100CA000A0610FB1401EA0612046AFF300804FB19C
:100CB000D4E9012138469047206A401C2062C01CBC
:100CC000206206E0206AFAE7D4E9012115F8010B59
:100CD0009047761EF8D22046AFF30080BDE8F08141
:100CE0004E414E006E616E00494E4600696E6600D0
:100CF0002DE9F047814616468AB0354878440DC83C
:100D00008DE80D0032487844801C03AC0DC884E89F
:100D10000D0041F69B300844372190FBF1F290FB27
:100D2000F1F5A5F1800501FB12041B3C02D56442DC
:100D3000012000E00020DFF898A080460027FA4458
:100D4000AAF1BE0A0EE0E0070AD03246684607EB79
:100D5000470101230AEB810100F0A1FF8DE80700A4
:100D600064107F1C002CEED1194F7F44AE3F19E078
:100D7000E80715D007EB04100DF1180A90E80E00F3
:100D80008AE80E00C068F04201D1981908903246F6
:100D9000012306A903A800F082FF03AB83E8070044
:100DA0006D10641C002DE3D14FF0010332466946FB
:100DB000B8F1000F03A802D000F05CFF01E000F0E2
:100DC0006EFFC9E90001C9F808200AB0BDE8F08744
:100DD000A4310000007B00F08000704710B542484D
:100DE0005421FFF7F7FB41485421FFF7F3FB40483C
:100DF0005421FFF7EFFB3F493B483C4A3F4B08601B
:100E00003D490A603A491960531C0365481C106546
:100E1000012008653B48344A39A1784400F0D8F9EC
:100E200020B9384878440A3800F077FA37482F4A12
:100E300035A1784400F0CCF920B9344878440A3818
:100E400000F06BFA32482A4A2FA1784400F0C0F92A
:100E500020B92F4878440A3800F05FFA402322482E
:100E6000DC000021224600F090F920B125487844AA
:100E7000543800F052FA1D4822464023002100F069
:100E800084F920B121487844543800F046FA1848D3
:100E900022461023002100F078F9002806D01C48D3
:100EA0007844BDE81040563800F037BA10BD1048FD
:100EB00070B5006D20F001040B4800F0FFF90B48FD
:100EC00000F0FCF90A4800F0F9F909E0206D20F083
:100ED0000105204600F0F2F9204600F044F82C46C7
:100EE000002CF3D170BD000078000020CC00002061
:100EF00020010020180000201C00002020000020FD
:100F000072000000BA2F000077000000A92F000037
:100F1000992F000000487047740100207546FFF7C4
:100F2000F9FFAE4605006946534620F007008546A6
:100F300018B020B5FFF7A0F9BDE820404FF000063B
:100F40004FF000074FF000084FF0000B21F00701B1
:100F5000AC46ACE8C009ACE8C009ACE8C009ACE8F4
:100F6000C0098D46704770B50446051F00F0DCF9D6
:100F70000068002C14BF446870BD002C18BFAC4240
:100F80003CBF20466468F8D301680A18AA4218BF1B
:100F9000456003D12A68054611440160286841195B
:100FA000A1421CBF6C6070BD616869602168084423
:100FB000286070BD2DE9F04705460C46C86820F44E
:100FC000201040F48000C860800602D5084600F07A
:100FD000F8FAE06841F282014FF0FF39014002293E
:100FE00003D0204600F096FAB5E000F42041B1F5B8
:100FF000004F0FD1C00306D56168E06A884200D86F
:101000000846606006E02069E0626060606902F0A6
:1010100047FBA061A0680022EEB200280DDAE1686B
:101020008B050AD4C043A06041F490302260E06098
:101030006068411C61600670A5E0E068904622602F
:1010400040F40050E060206968BB606902F02EFB4C
:10105000012704F12405A0B1A08910F4407F08D035
:10106000E06900F0ACF9206118B1E06840F400607C
:1010700016E0E7612561E06820F4407040F480608C
:101080000EE0E06900F09BF900282061F1D0E068F3
:1010900040F4006010F4407FE06002D140F48070C2
:1010A000E06020696060E06825696FF0010AC105B1
:1010B0001FD56168E06A884200D80846411B04D009
:1010C0002246284600F030FAF0BBE068010203D562
:1010D000E562C4E9015854E0691CE1626160E169BC
:1010E00040F48030491EC4E9021030462E70BDE83D
:1010F000F087010202D500F480320AE06068411CEA
:1011000061600670E0680A2E40F48030E06006D02E
:101110000022E16A6068814203D90B4602E00122A5
:10112000F7E70346A7895B1B7F0503D4E7699F4266
:1011300000DDE2B1814200D80146E5620F1AC4E940
:101140000158002B09DD00E005E02246194628463B
:1011500000F0EAF908B14846C9E747B1A069E5627D
:101160006560C01BA061E06840F01000E060E068CE
:10117000000208D56168A069E562491B0844656002
:10118000A0615046B3E73046B1E770B5C468A50723
:1011900013D0650211D4B2F5807F09D0B2F5007F7B
:1011A00006D0B2F5806F08D1012300F1240106E0DA
:1011B0005D1E6FF07F46B54201D3012070BD016115
:1011C000C361416024F470611143C160002070BDAF
:1011D0002DE9F0410C4607461646104600F06EF821
:1011E0002078611C61280AD0722802D077283CD16F
:1011F00002E00125002405E00225042402E0082481
:1012000048F2020511F8010B2B2806D0622809D0FC
:1012100011F8010C74280AD00BE045F0030544F0E6
:101220000204EFE745F0040544F00104EAE744F066
:1012300010043846214602F045FA411C15D0002121
:10124000316171604FF40071F560F16170612007E8
:1012500004D530460222002100F0E0F8306D40F065
:10126000010030653046BDE8F0810020FBE72DE944
:10127000F0410D460646104C206DC10704D04108D0
:1012800004D020F00104F7E722460EE0542000F0DD
:1012900096F807000ED0206D47F001010843542155
:1012A00020653846FFF796F93A4629463046BDE8AC
:1012B000F0418DE70020D6E7780000202DE9F047C7
:1012C00004464FF000094FF0FF37C568D4E90486A3
:1012D000A80707D0204600F051F9304602F0D4F9B3
:1012E000002802DA3846BDE8F087280502D54046D6
:1012F000FFF739FE4C212046FFF76CF9206D20F0F6
:10130000010020654846EEE710B50446AFF30080C3
:101310002046BDE81040FEF79BBF10B500F078F9FD
:10132000BDE8104000F06EB9004870477C01002015
:10133000704770477047704738B504460A4600202A
:101340006946AFF30080002808BF38BD0246009907
:10135000204600F084F9012038BD012000F0D3B907
:10136000F8B5AFF30080054600200C46102000BF02
:101370000646A819A0420DD9324669460020AFF3AF
:101380000080070008BF00F0BEF90098A04218BF17
:101390000546C419FFF7C8FF05600746F01D20F099
:1013A00007004619284600F053F9B44208BFF8BDBB
:1013B000A21B31463868BDE8F84000F050B970B55E
:1013C0000646FFF7B1FF056806F10B0020F00704A1
:1013D000B4429CBF002070BD2B466A68BAB1106849
:1013E000A04210D304F1080188423CBF5068586005
:1013F00007D35168101941601168091B01605860DA
:101400001460101D70BD13465268002AE7D12146B2
:101410002846FFF791FF0028DED170BD2DE9F0418D
:10142000044616460D464769007B80072ED0384695
:1014300002F03CF950BB3EB3012E02D0022E25D162
:1014400004E0204600F025F905441DE0384602F08E
:1014500027F9E168002841F01001E16005DA204633
:1014600000F058F80120BDE8F081C9030BD562688F
:10147000E16A914200D81146A26911442269891A91
:10148000814200DD08460544002D01DA0220EAE72A
:10149000E16A6068E268814206D29103E06203D5A6
:1014A00022F4003141F01002A6690027AE4213DC9D
:1014B000E16A814201D90B4600E0034603EB060CCA
:1014C0002369ACEB030CAC4506DD814201D98C46A7
:1014D00000E084469C4505D1A760276042F02000CB
:1014E000A5620DE0AD1BE669AE1B8142A66000D986
:1014F0000846C01A281A20605819606022F020009F
:1015000003490840E060002084F84870ABE7000021
:10151000BFCFD7FFC16821F4001141F08001C16045
:1015200000218160016070472DE9F0478146144633
:101530000E464FF0FF383248D5685769054209D04A
:101540003846A16902F0ECF8002811DB2C48C043B2
:101550000540E5602B4632464946384602F0E3F83E
:10156000A16920F00042B21A11440028A16103D001
:101570002046FFF7CFFF4046BDE8F08770B5044630
:101580000569C06A6168884200D80846E16821F4AC
:101590002011E160C90312D5A84208D02246411BA0
:1015A0002846FFF7C1FF10B14FF0FF3070BD00209B
:1015B000E562C4E90150E06820F48030E06000207A
:1015C00070BD10B50446C06820F02000E060A16A3C
:1015D000A06988420DD02046FFF7D0FFE06820F4D4
:1015E000405040F01000E060A06AA0612069E06215
:1015F000606044F24001E0688843E06010BD000094
:1016000010000200002801D000F01CB87047000054
:1016100010B5014602A000F05DF8012010BD0000E9
:1016200053494752545245443A20526564697265A1
:1016300063743A2063616E2774206F70656E3A2080
:101640000000000001491820ABBEFEE726000200A2
:1016500000210160C0E90110704710207047034667
:1016600040688C46002818BF88423CBF034640684B
:10167000F8D318681844884207D00CF1030020F012
:101680000700001D411A521A0146081D0A60FFF7A3
:101690006ABC10B50146C268900703D0900607D512
:1016A000886A0AE000F03EF801210160881E10BD42
:1016B0008B69486818440B69C01A91F848301BB10F
:1016C00091F84910401A10BD1103FCD50028FADD2D
:1016D000401E10BD70B505460C460A2000E06D1C8A
:1016E00000F018F835B128780028F8D102E0641C21
:1016F00000F010F814B120780028F8D1BDE870404F
:101700000A2000F007B810B500F010F8BDE810404E
:10171000FFF778BF08B569468DF800000320ABBE1F
:1017200008BD7047004870477401002010B50128BB
:1017300005D0002103A0FFF7CDFF012010BD09A1B6
:10174000F8E7000053494752544D454D3A204F7534
:1017500074206F662068656170206D656D6F7279A9
:10176000000000003A2048656170206D656D6F7261
:101770007920636F72727570746564005FEA400C63
:1017800008BF91F0000F4FEA8C234FEAC12243EAD1
:1017900051514FEA1C5018BF00F5F0404FEA30009D
:1017A00018BF41F000415FEA6C5C00F02980BCF199
:1017B000FF3F08BF40F080407047130C06BF120483
:1017C0004FF0100C4FF0000C130E04BF12020CF17E
:1017D000080C130F04BF12010CF1040C930F04BF8B
:1017E00092000CF1020CD30F04BF52000CF1010C5B
:1017F00011464FF00002A0F11F00A0EB0C00704753
:1018000011F0004F08BF704731F000413FF4D5AFF1
:101810000B0C06BF09044FF0100C4FF0000C0B0E20
:1018200004BF09020CF1080C0B0F04BF09010CF1F5
:10183000040C8B0F04BF89000CF1020CCB0F04BF0A
:1018400049000CF1010CCCF12003A0EB0C0022FAB2
:1018500003F302FA0CF241EA030100F101007047C0
:1018600020F07F4C80EA030023F07F47ACEB0703B6
:1018700003F57C5300F0004003F1FF032DE980499C
:101880004FEA154B09B44FEA144325EA0B4E24EAFC
:1018900003480FF2042606EB132749083E785FEA57
:1018A000320203FB0667C7F5000707FB06F64FEA9F
:1018B00054374FEAD64606F1020607FB066CCCF118
:1018C000005C4FEA1C472CEA074C07FB06F40CFBB4
:1018D00006F504EB15464FEA961634BF00204FF08C
:1018E00000404FEAD13706FB07FC4FEA1C4C0CFBCB
:1018F0000BF7D21B03FB0CF761EB07010CFB0EF798
:10190000B0EB074072EB17420CFB08F734BFA2EBB9
:101910000742B2EB074261EB17414FEA0C444FEA32
:10192000910706FB07FC4FEA1C4C0CFB0BF7B0EBD6
:10193000C74072EB573203FB0CF734BFA2EBC74230
:10194000B2EBC74261EB57310CFB0EF7B0EBC700AF
:1019500072EB57720CFB08F734BFA2EBC702B2EB75
:10196000C70261EB5771039F4FEA816141EA92110F
:1019700004EBCC044FEAD1374FEA826206FB07FC46
:1019800042EA90124FEA80604FEA1C4C0CFB0BF7C6
:10199000D21B03FB0CF761EB07010CFB0EF7B0EB5E
:1019A000074072EB17420CFB08F734BFA2EB07426B
:1019B000B2EB074261EB17414FEA8C554FEA9107B2
:1019C00004EB9C2406FB07FC4FEA1C4C0CFB0BF7BA
:1019D000B0EBC74072EB573203FB0CF734BFA2EBFE
:1019E000C742B2EBC74261EB57310CFB0EF7B0EBCD
:1019F000C70072EB57720CFB08F734BFA2EBC702AB
:101A0000B2EBC70261EB577115EB4C254FEA8161D0
:101A100041EA92114FEA82624FEAD13742EA9012CC
:101A200006FB07FC44F100044FEA80604FEA1C4CBF
:101A30000CFB0BF7D21B03FB0CF761EB07010CFB54
:101A40000EF7B0EB074072EB17420CFB08F734BF00
:101A5000A2EB0742B2EB074261EB174115EB1C15F5
:101A60004FEA813141EA92414FEA823242EA9042A2
:101A70004FEA80304FEA0C7644F1000448EA034311
:101A80004EEA0B484FF0000EB2EB080C71EB030767
:101A900024BF624639464EEB0E0E4FF0000B001885
:101AA000524149414BEB0B0BB2EB080C71EB0307B6
:101AB0007BF1000B24BF624639464EEB0E0E4FF011
:101AC000000B0018524149414BEB0B0BB2EB080CD9
:101AD00071EB03077BF1000B24BF624639464EEBE6
:101AE0000E0E51EA020718BF46F0010616EB0E76FD
:101AF00055F1000254F1000103D5BDE88901BDE8AC
:101B00000088BDE88901BDE80048B619524141EBA3
:101B10000101A3F10103704780807F7E7D7C7B7A89
:101B20007978777676757473727171706F6E6E6D89
:101B30006C6C6B6A6A69686867666665646463632F
:101B400062616160605F5F5E5E5D5D5C5C5B5B5AB5
:101B50005A59595858575756565555555454535322
:101B600052525251515050504F4F4F4E4E4D4D4D7D
:101B70004C4C4C4B4B4B4A4A4A49494948484847C8
:101B80004747474646464545454444444443434306
:101B90004342424242414141002B9C4630D47700AF
:101BA0002BD01CB54FEA370703B44FF010004FF0AD
:101BB0001001BAF1000F06D0BCF1000FDCBF40F0FD
:101BC000080040F008014FF000000FBCBDE81040D5
:101BD0000BF1010BBBF1010F08BF5FEA170722BF32
:101BE00012F1010211F101014FF0004143F1000334
:101BF00000F0004043EA00007047F9D35708D0E7EF
:101C000046EA064613F1400F4FEA16461FDD13F170
:101C1000200FDFBF16430A46002120335B42BED0AF
:101C2000C3F1200746EA064602FA07F74FEA1646CE
:101C300046EA0706C3F1200722FA03F201FA07F782
:101C400021FA03F14FF0000342EA0702A7E746EA50
:101C5000020646EA06464FEA164646EA0106BCBFB9
:101C600046EA0646360C4FF000034FF000024FF0F4
:101C7000000194E72DE9804C9A46934670B491E8B0
:101C8000380007C831EA400C48BF34EA430C03D59A
:101C9000FFF7E6FDFFF780FFF0BCBDE8008C2DE903
:101CA000804C9A46934670B491E8380007C810F00B
:101CB000804F08BF13F0804F03D100F005F8FFF705
:101CC0006BFFF0BCBDE8008C20F07F4780EA03008A
:101CD00023F07F4C07EB0C03A3F57C5300F000408E
:101CE000A3F1FE0392F0000F00F0B38095F0000F17
:101CF00000F077802DE901494FEA11404FEA144680
:101D000021EA004800FB06FC24EA064708FB06F629
:101D100007FB08F800FB07F718EB06484CEB164CDE
:101D20004FEA124B18EB07484FEA15464CEB1740A9
:101D300022EA0B4E0BFB06FC25EA06470EFB06F6D5
:101D400007FB0EFE0BFB07F71EEB064E4CEB164C8B
:101D50004FF000061EEB074E4CEB174B18EB0B0831
:101D600040F1000018EB0E0B58EB000840F10000AA
:101D70008F1A4FF000013CBFC943661B14BFB5EB7F
:101D8000040C00213CBFC943F61B4FEA17444EEA3E
:101D90008E0E27EA04454FEA1C4704FB07622CEA33
:101DA000074C05FB07F70CFB05F604FB0CFC16EBD8
:101DB000074642EB174216EB0C4642EB1C421BEB6C
:101DC000060658EB0202414146EA9E0601D5BDE8EF
:101DD0000189B619524141EB0101A3F10103BDE8AC
:101DE00001894FEA14454FEA114724EA054621EAE2
:101DF000074C05FB07F406FB07F70CFB06F105FB98
:101E00000CFC11EB074144EB17444FEA124711EB6E
:101E10000C4144EB1C4422EA074C05FB07F206FB8D
:101E200007F70CFB06F605FB0CFC16EB074642EB2E
:101E3000174216EB0C4642EB1C456A1854F10001A0
:101E400048BF7047B619524141EB0101A3F10103AC
:101E5000704795F0000F37D04FEA11424FEA144710
:101E600021EA024624EA074C02FB07F106FB07F7CA
:101E70000CFB06F402FB0CFC14EB074441EB17418E
:101E80004FEA154714EB0C4441EB1C4125EA074C83
:101E900002FB07F506FB07F70CFB06F602FB0CFC42
:101EA00016EB074645EB174516EB0C4645EB1C4277
:101EB000121951F1000148BF7047B619524141EB68
:101EC0000101A3F1010370474FEA14454FEA11479E
:101ED00024EA054621EA074C05FB07F106FB07F754
:101EE0000CFB06F24FF0000605FB0CFC12EB074260
:101EF00041EB174112EB0C4251EB1C4148BF7047BC
:101F0000921841EB0101A3F101037047FEE770B5A0
:101F10000446FF200023312510E0227850400022A3
:101F2000060602D585EA400000E04000521CD2B20D
:101F3000C0B2082AF4D35B1CDBB2641C8B42ECD326
:101F400070BD704772B6FEE770B5044600F006F942
:101F50000546601C02D004480078044400F0FEF8F6
:101F6000401BA042FAD370BD080000202DE9F84FB5
:101F7000DFF8BCA10022012503264FF00F090AF16A
:101F8000040BAAF1040E00BF0B6805FA02F423400B
:101F9000A34270D10F7907F00307012F01D0022F60
:101FA00016D187684FEA420806FA08FC27EA0C07B0
:101FB000D1F80CC00CFA08FC4CEA070CC0F808C0B9
:101FC0004768A7430C79C4F3001494403C43446031
:101FD0000C79E443A4070AD0C4684FEA420C06FA1D
:101FE0000CF7BC438F6807FA0CF72743C7600C79DE
:101FF00004F00304022C12D1D40800EB840CDCF8AA
:1020000020405707FF0E09FA07F824EA0804D1F820
:10201000108008FA07F848EA0408CCF82080046821
:102020004FEA420C06FA0CF7BC430F7907F003079E
:1020300007FA0CF7274307604C6814F4403F70D050
:102040003C4C276847F480472760246822F0030748
:1020500004F480440094384C07EB040CDCF8084886
:1020600097074FEA177809FA08F7BC43334FB8428D
:1020700002D1002724E054E0314FB84201D10127BA
:102080001EE0304FB84201D1022719E02E4FB8426E
:1020900001D1032714E02D4FB84201D104270FE0EE
:1020A0002B4FB84201D105270AE02A4FB84201D18F
:1020B000062705E0284FB84201D1072700E008278E
:1020C00007FA08F72743CCF80878DAF800405746B3
:1020D000D1F804C09C435FEACC2C00D51C433C6083
:1020E000DBF800405F46D1F804C09C435FEA8C2CCB
:1020F00000D51C433C60DEF800407746D1F804C0B0
:102100009C435FEA8C3C00D51C433C60084F083F71
:102110003C68D1F804C09C435FEACC3C00D51C432A
:102120003C60521C102AFFF42FAFBDE8F88F00006E
:10213000083C0140443802400030014000000240A9
:102140000004024000080240000C0240001002405F
:102150000014024000180240001C02400148806840
:10216000704700000800002070B5040025D094F8E6
:102170003D00002520B984F83C50204600F0F0FBDB
:10218000242084F83D002068016821F001010160ED
:102190002068016841F4004101602068016821F471
:1021A0000041016000F036FD4D4A6168914201D85E
:1021B0004C4900E04C49884201D2012070BD4B4996
:1021C0002368B0FBF1F15E6826F03F060E435E60C7
:1021D0006368934206D94FF4967359434FF47A7368
:1021E000B1FBF3F12368491C1E6A26F03F06314318
:1021F00019626168914210D84900401EB0FBF1F2AB
:10220000521CC2F30B02042A01D2042022E0B0FBCC
:10221000F1F0401CC0F30B001CE0A268F2B301EB2C
:10222000C10303EB0116431EB3FBF6F35B1C43F43F
:1022300080431B0549D092B301EBC10202EB0111AF
:10224000401EB0FBF1F0401CC0F30B0040F4804096
:1022500040F400402168CA694CF6FF739A4310436A
:10226000C861D4E9071001432068026822F0C00267
:1022700011430160D4E9030101432068826848F2F8
:10228000FF339A4311438160D4E905010843216873
:10229000CA6822F0FF021043C86001E00EE016E0B9
:1022A0002068016841F0010101602564202084F864
:1022B0003D00256384F83E50002070BD01EB4106CF
:1022C000431EB3FBF6F35B1CB3E70120C2E701EB4F
:1022D0004101401EB0FBF1F0401CC0F30B00B7E71A
:1022E000A086010080841E0000093D0040420F00CE
:1022F0002DE9FF4F81B089460446FFF72FFF0546C1
:1023000094F83D004FF0000820287DD119230122C8
:1023100050492046009501F007F8002874D194F840
:102320003C00012870D0012084F83C00206801683E
:10233000C90703D1016841F001010160206801680B
:1023400021F400610160242084F83D000026266409
:102350004148E0624FF0011B20272068016841F4EA
:10236000807101600095002259462046049B00F0D0
:10237000DBFF50B120680068C00502D54FF4007043
:102380002064032005B0BDE8F08F216809F0FE004D
:102390000861FFF7E3FE2168054648694969C0F313
:1023A0004000C1F380214FF0A00A0FE0FFF7D6FEF6
:1023B000411B0498814200D808B984F83DA02168E7
:1023C00048694969C0F34000C1F3802194F83D2079
:1023D000A02A02D008B90029E8D084F83D7020680E
:1023E0004169C943890716D4016841F4007101604D
:1023F0002068416980691923012216492046009509
:1024000000F092FFB8B900E021E084F83D7084F854
:102410003C600020B6E7016841F40071016021686A
:102420006FF480604861192301220A492046009513
:1024300000F07AFF08B10120A4E7039808F1010831
:1024400080458AD384F83D7084F83C60F3E702202D
:1024500098E70000020010000000FFFF2DE9F84F90
:102460001F4690468A460446DDF82890FFF776FE20
:10247000054694F83D00202875D1192301226C49A6
:102480002046009500F050FF0028F5D194F83C005C
:10249000012868D0012084F83C0020680168C90741
:1024A00003D1016841F0010101602068016821F455
:1024B00000610160222084F83D00102084F83E0075
:1024C00000262664C4F824806785608D20855948DD
:1024D000E0622B464A465146204600F0BDFD0028EA
:1024E00078D1208D544F68B1012814D0022820687B
:1024F000016816D041F480610160206841698069FB
:10250000009087E02068416981690091016841F489
:10251000007101607EE02068016821F48061016043
:10252000F0E721F4806101602068016841F40061F6
:10253000E2E7032848D801280AD0022814D04B46E5
:10254000002239462046009500F0EEFED8BB27E079
:102550002A464946204600F066FFA0BB2068006975
:10256000616A08704DE061E04B4600223946204622
:10257000009500F0D9FE30BB2068016841F400717D
:10258000016020680069616A0870606A401C6062CE
:10259000218D491E2185618D491E618521682EE0AE
:1025A0002068016821F48061016020680069616A27
:1025B0000870606A401C6062208D401E2085608D1E
:1025C000401E6085D0E705E02A464946204600F0D7
:1025D0002AFF10B10120BDE8F88F20680069616A08
:1025E0000870606A401C6062218D491E2185618DE2
:1025F000491E618521684A69D24352070AD4096994
:102600000170606A401C6062208D401E2085608DD4
:10261000401E6085208D00288BD1202084F83D004D
:1026200084F83E6084F83C600020D4E70220D2E7C2
:10263000020010000000FFFF040001002DE9F84F28
:102640001F4690468A460446DDF82890FFF786FD2F
:10265000054694F83D0020287FD1192301224049E6
:102660002046009500F060FE002876D194F83C00EA
:10267000012872D0012084F83C0020680168C90755
:1026800003D1016841F0010101602068016821F473
:1026900000610160212084F83D00102084F83E0094
:1026A00000262664C4F824806785608D20852D4827
:1026B000E0622B464A465146204600F043FD90B961
:1026C000206841698069009036E02A4649462046E4
:1026D00000F0DCFE50B1206C042804D120680168B1
:1026E00041F4007101600120BDE8F88F606A216843
:1026F00000780861606A401C6062618D491E6185D6
:10270000218D491E89B2218522685369DB435B070D
:102710000BD451B100781061606A401C6062608D1A
:10272000401E6085208D401E20852A464946204651
:1027300000F0D4FD0028CED1208D0028C5D154F85A
:102740003D0B016841F400710160202004F81E096E
:10275000E67766770020C7E7FFE70220C4E70000BE
:10276000020010000000FFFF2DE9FF4F83B09A46E2
:10277000DDE9119793460446DDF84080FFF7EEFC53
:10278000054694F83D00202870D119230122714993
:102790002046009500F0C8FD0028F5D194F83C00D3
:1027A000012863D0012084F83C0020680168C90733
:1027B00003D1016841F0010101602068016821F442
:1027C00000610160222084F83D00402084F83E0032
:1027D00000262664C4F82480A4F82A90608D208501
:1027E0005D48E062CDE9007553465A46204604999B
:1027F00000F0F6FC00287CD1208DD0B1012821D03A
:102800000228206824D0416980690090208D032827
:1028100069D801282BD0514902283B464FF00002CD
:10282000009559D08846204600F07EFD002860D1F2
:102830003CE02068416981690091016841F40071C0
:10284000016077E02068016821F480610160F0E7B1
:10285000016821F4806101602068016841F4006131
:102860000160206841698069009063E06FE02A465A
:102870003946204600F0D7FD98BB20680069616AA0
:1028800008704EE02068016841F400710160206822
:102890000069616A0870606A401C6062218D491E8F
:1028A0002185618D491E6185216838E020680168B5
:1028B00021F48061016020680069616A0870606AC3
:1028C000401C6062208D401E2085608D401E60850A
:1028D0003B46002241460095204600F025FD00B908
:1028E000D0E706E0FFE72A463946204600F09BFD88
:1028F00018B1012007B0BDE8F08F20680069616A57
:102900000870606A401C6062218D491E2185618DBE
:10291000491E618521684A69D24352070AD4096970
:102920000170606A401C6062208D401E2085608DB1
:10293000401E6085208D00287FF468AF202084F839
:102940003D0084F83E6084F83C600020D2E702201D
:10295000D0E70000020010000000FFFF04000100AB
:1029600010B586B0044614216846FDF733FE1349BE
:102970002068884220D112480021026842F00202F9
:102980000260006800F002000590C0200090122054
:10299000CDE9010103200390042004906946094811
:1029A000FFF7E4FA06481030016841F400110160B5
:1029B000006800F40010059006B010BD00540040FF
:1029C0003038024000040240024881680278114415
:1029D00081607047080000200B4810B5016841F481
:1029E00000710160016841F480610160016841F497
:1029F00080710160032000F061F80F2000F006F8FC
:102A000000F024F8002010BD003C024070B50D4DD0
:102A100004464FF47A712878B1FBF0F00A4909684E
:102A2000B1FBF0F000F0ECFA48B9102C07D200220C
:102A30002146501E00F022F800206C6070BD01207D
:102A400070BD000008000020140000200A4808B5EE
:102A5000016841F480410160006800F4804000900A
:102A60000548001F016841F080510160006800F0D6
:102A70008050009008BD000044380240F0B40E4B76
:102A80001B680C46C3F30223C3F10705042D00D9CC
:102A90000425191D072901D2002300E0DB1E0126B1
:102AA00006FA05F1491E214099409E40761E1640C7
:102AB0003143F0BC00F0D1BD0CED00E0064900F060
:102AC000070208684FF6FF03184040EA0220034A55
:102AD00010430860704700000CED00E00000FA05AC
:102AE0002DE9F0470E46050065D0DFF81481D8F8CF
:102AF0000000F7B200F00700B04207D288F800707B
:102B0000D8F8000000F00700B04254D128683D4CCE
:102B1000810712D5400703D5206840F4E0502060BB
:102B20002878000703D5206840F4604020602068C2
:102B3000A96820F0F000084320602878C0072DD055
:102B4000304968680839012812D0022813D00328B8
:102B500011D00968890700292DDA216821F00301C5
:102B600001432160FFF7FAFA814641F2883A0EE00C
:102B700009688903EFE709688901ECE7FFF7EEFAD6
:102B8000A0EB0901514502D90320BDE8F087206878
:102B9000696800F00C00B0EB810FEFD1D8F800109D
:102BA000404601F00701B14207D90770006800F004
:102BB0000700B04201D00120E7E72878400705D59B
:102BC0002068E96820F4E050084320602878000776
:102BD00006D52068296920F4604040EAC1002060E1
:102BE00000F028F82168084AC1F30311515CC8407D
:102BF0000649086006480068FFF708FF0020C4E7A0
:102C0000003C024008380240C03D0008140000208B
:102C10000C0000200448054900680968044AC1F313
:102C20008221515CC84070471400002008380240DF
:102C3000D03D0008154810B5006810F00C0214488B
:102C400013D04110042A0FD0082A0ED10F4C241F94
:102C50002268236802F03F025B0207D52068C0F3B8
:102C60008810A0FB010106E0084610BD2168C1F3F1
:102C70008811A1FB00010023FDF710FB2168C1F3BF
:102C80000141491C4900B0FBF1F010BD0838024079
:102C90000024F4002DE9F84F04006ED02078DFF80E
:102CA0004C93C007A9F104054AD009F1040001685A
:102CB000C1F38101012908D00068C0F38100022816
:102CC0000AD1D9F80000400206D52868800337D51C
:102CD00060680028E1D033E06068B0F5803F10D034
:102CE000B0F5A02F286810D020F480302860286824
:102CF00020F4802028606068A8B1FFF72FFA06460C
:102D00000DE0286840F48030F4E740F4802028602B
:102D1000F7E700BFFFF722FA801B642873D8286802
:102D20008003F7D50CE0FFF719FA064605E000BF6F
:102D3000FFF714FA801B6428F0D828688003F7D4C2
:102D40002078DFF8AC8280074FF0000A3ED5A74814
:102D5000001D016811F00C0F08D00068C0F381005D
:102D600002280BD1D9F80000400207D42868800758
:102D700016D5E068012800D112E033E1E068B8B16F
:102D80000120C8F80000FFF7E9F9064605E000BF9A
:102D9000FFF7E4F9801B0228C0D828688007F7D520
:102DA0002868216920F0F80040EAC10028600DE0A1
:102DB000C8F800A0FFF7D2F9064604E0FFF7CEF905
:102DC000801B02281FD828688007F7D420780007C6
:102DD00022D5864F87486169703771B10121016042
:102DE000FFF7BCF9064604E0FFF7B8F9801B02289C
:102DF00009D838688007F7D50EE0C0F800A0FFF7C3
:102E0000ADF9064605E082E0FFF7A8F9801B02282D
:102E10007DD838688007F7D42078400768D5DFF878
:102E2000CCB100270BF13C0BDBF80000C0000BD449
:102E3000DBF8001041F08051CBF80010DBF8000007
:102E4000012700F0805000906B4E3068C00510D410
:102E5000306840F480703060FFF780F9009005E042
:102E6000FFF77CF90099401A022850D83068C00555
:102E7000F6D55E4EA0686C3601280FD00528306864
:102E800010D020F001003060306820F00400306085
:102E9000A068B8B1FFF762F900900FE0306840F029
:102EA0000100F4E740F004003060F7E7FFF756F95F
:102EB0000099411A41F28830814266D83068800713
:102EC000F4D50EE0FFF74AF9009007E0FFF746F966
:102ED0000099411A41F28830814256D83068800703
:102EE000F4D42FB1DBF8001021F08051CBF80010A2
:102EF000A069C8B33D49091D0968C1F381010229D0
:102F00004AD00228504607D0C8F8600000E03CE0F4
:102F1000FFF724F904463BE04746C8F86000FFF796
:102F20001DF9064605E000BFFFF718F9801B0228CF
:102F30002BD828688001F7D4D4E907010843A16A97
:102F40002E4A490802EB0141626A41EA82110843B4
:102F500094F82C1040EA0161C9F80010012038668D
:102F6000FFF7FCF8044606E03EE000BFFFF7F6F886
:102F7000001B022809D828688001F7D534E000BF7B
:102F8000FFF7ECF8001B022802D90320BDE8F88FF8
:102F900028688001F4D427E00128F7D0D9F8000090
:102FA000E26900F4800191421CD1226A00F03F01E5
:102FB000914217D147F6C071626A0140B1EB821F9E
:102FC00010D1A26A4FF0FF3300F4403103EB5202FC
:102FD000B1EB024F06D194F82C1000F07060B0EB0A
:102FE000016F01D00120D1E70020CFE70438024073
:102FF00000004742800E4742007000400000FFFF83
:1030000010B5401EB0F1807F01D3012010BD4FF0FC
:10301000E02460610F21601700F01FFB0020A06119
:1030200007202061002010BDFEE701684A69D243F5
:1030300052050FD46FF480624A61002140F8301FBE
:10304000202242738173026942F00402026101731B
:1030500001207047002070472DE9F84F0446C06AF0
:103060001E4693460D4621680A6842F480620A6053
:10307000082807D0012805D010F5803F02D0206B2A
:10308000112804D12068016841F4807101604FF07B
:1030900001195B46002249462046009600F044F99B
:1030A0004FF4007840B120680068C00501D5C4F82D
:1030B00040800320BDE8F88F2069DFF884A0B0F5D8
:1030C000804F0FD00620216800EAD51747F0F000A6
:1030D000086133465A460AF10601204600F058F9C5
:1030E00058BB03E0E8B240F001001CE02168E8B200
:1030F000086133465A465146204600F049F9E0B986
:103100002068416981690091016841F48071016022
:103110005B46002249462046009600F005F900284B
:10312000C1D147F0F1002168086133465A46514643
:10313000204600F02DF90028BCD00120BAE700009D
:1031400002000100F8B50446C06A1E460D46174647
:10315000082807D0012805D010F5803F02D0206B49
:10316000122804D12068016841F48071016013467F
:1031700000224FF001112046009600F0D5F840B132
:1031800020680068C00502D54FF400702064032059
:10319000F8BD2069B0F5804F0ED00620216800EA06
:1031A000D51040F0F000086133463A460B492046FE
:1031B00000F0EEF878B902E005F0FE0000E0E8B2B9
:1031C00021680861054933463A46891F204600F0C8
:1031D000DFF80028DCD00120F8BD00000800010065
:1031E0002DE9F84F0446006889460B9D0168984612
:1031F000174641F4806101602068016841F48071E4
:10320000016000954FF0011B0022594620460A9BA1
:1032100000F08AF84FF4007A40B120680068C005D9
:1032200001D5C4F840A00320BDE8F88F216809F05B
:10323000FE0008612B46284920460A9A00F0A8F8AB
:10324000F0BB20684169806900902A4620460A99AF
:1032500000F01CF940B1206C04283AD120680168C4
:1032600041F40071016034E0FEB2B8F1010F09D001
:103270002168380A08612A4620460A9900F006F9B2
:103280000028E8D1206806612A4620460A9900F005
:10329000FDF80028DFD12068016841F480710160E9
:1032A00000950022594620460A9B00F03DF8002870
:1032B000B3D1216809F0FF0040F00100086100E08F
:1032C00007E02B46044920460A9A00F061F80028DE
:1032D000AAD00120A8E700000200010070B5164640
:1032E0000D4604460DE02046FFF79FFE08B1012081
:1032F00070BD681C05D0FEF731FF801BA84207D8BF
:1033000035B120684069C0434007ECD4002070BD4F
:10331000002044F8300F20216173A073216941F02F
:10332000200121612073E2E72DE9F0471E46904617
:103330000D460446C1F30747DDF8209008E0701CF5
:1033400006D0FEF70BFFA0EB0900B0420FD876B114
:103350002068012F18D0806925EA00000004000CC5
:1033600014D000214145EAD00020BDE8F0870020BC
:1033700044F8300F20216173A073216941F02001CE
:10338000216120730120F0E74069E5E70121E9E7C9
:103390002DE9F0479A4691460E46044600254FF027
:1033A0002008C1F3074725E020684069C043400575
:1033B00014D42068016841F40071016021686FF441
:1033C00080604861256384F83D8084F83E50206C1D
:1033D00040F00400206484F83C501FE0B9F1FF3F46
:1033E00008D0FEF7BBFEA0EB0A0149450CD8B9F1A5
:1033F000000F09D02068012F13D0806926EA000051
:103400000004000C0BD0CFE744F8305F84F80D8047
:10341000A573206940F02000206125730120BDE8DC
:10342000F0874069EAE72DE9F041002590460E4615
:103430000446202717E04069C043C0060CD454F866
:10344000301B6FF01000486144F810596777A5777A
:10345000206A2062257717E0FEF780FEA0EB0800C7
:10346000B04208D83EB120684169C9434906E2D458
:103470000020BDE8F08144F8305F6773A5732069D0
:1034800040F02000206125730120F2E770B5164658
:103490000D4604460DE02046FFF7C7FD08B10120A8
:1034A00070BD681C05D0FEF759FE801BA84207D8E6
:1034B00035B120684069C0430006ECD4002070BDDF
:1034C000002044F8300F20216173A073216941F07E
:1034D000200121612073E2E707490968C9070AD082
:1034E000054980390968C90705D04FF060410A686D
:1034F000002AFCD008707047800E00E00D4808B527
:10350000016841F080010160016801F080010091D3
:10351000016841F001010160016801F001010091C1
:10352000016841F002010160006800F002000090B3
:1035300008BD0000303802400D4810B50B4901604D
:103540000C49416000214FF480428160C0E90312C0
:1035500041618161C1610162FEF706FE002803D06E
:10356000BDE81040FEF7EEBC10BD00000054004066
:1035700024000020A0860100FEE7FEE770477047A8
:10358000FFF722BA30B593B030216846FDF722F834
:1035900014210CA8FDF71EF81D480025016841F014
:1035A00080510160006800F0805011901948016856
:1035B00041F4804101600068022400F480401190D1
:1035C00001200090000401908001CDE9064008AA86
:1035D0000420A82182E813000B906846FFF75AFBED
:1035E00008B172B6FEE70CA90F2081E831004FF454
:1035F000A0500F904FF48050109005210CA8FFF7B9
:103600006FFA002801D072B6FEE713B030BD00009B
:1036100040380240007000400248016841F47001E7
:103620000160704788ED00E0FEE703B401984100B7
:10363000009850EAC12018BF04204A0D18BF40F07E
:10364000010040F2FF72B2EB515F08BF40F0020090
:10365000012808BF052002B070470907090E00289D
:1036600004DB00F1E02080F80014704700F00F0048
:1036700000F1E02080F8141D704730380A2801D28C
:1036800001207047002070476FF40041401804D0BB
:10369000012803D0022801D0081470470020704789
:1036A0006FF40041401800D0002070476FF40041D3
:1036B000401805D0012802D0022801D00020704710
:1036C0000120704770B504004FF0FF3511D020780D
:1036D0003A280ED10CA12046FCF7A4FF58B10CA14A
:1036E0002046FCF79FFF48B10BA12046FCF79AFF4C
:1036F00038B1284670BD48F2010070BD48F20200A2
:1037000070BD48F2030070BD3A535444494E000066
:103710003A5354444F5554003A535444455252007E
:103720004FF0FF30704710B50C466FF40041411860
:1037300013464FF0FF3013D0012902D002290FD1D8
:1037400006E063B114F8010BFFF7C6FE5B1EF8E755
:103750002BB114F8010BFFF7BFFE5B1EF8E700204A
:1037600010BD8A68002A01DCFDF724BC521E8A6065
:103770004A68C0B2531C4B601070704710B580206F
:1037800000F062F80024202000F07EF8641C462C33
:10379000F9DB10BD10B53220FEF7D6FB302000F06B
:1037A00053F80520FEF7D0FB302000F04DF8012043
:1037B000FEF7CAFB302000F047F80A20FEF7C4FBF2
:1037C000202000F041F80A20FEF7BEFB282000F080
:1037D0003BF80120FEF7B8FB082000F035F8012087
:1037E000FEF7B2FB012000F02FF80120FEF7ACFB42
:1037F0000120FEF7A9FB062000F026F80120FEF7C5
:10380000A3FB0C2000F020F80520FEF79DFBFFF73E
:10381000B5FFBDE810406420FEF796BB30B101282B
:1038200007D0022808D003280BD108E041F080011E
:1038300007E041F0C00104E041F0940101E041F0F3
:10384000D401C8B2AFF300801CB500F0F00141F024
:103850000C028DF8042041F0080100018DF80510DC
:1038600040F00C018DF8061040F008008DF80700BC
:1038700064200090042301AA4E210248FEF7DEFED8
:103880001CBD0000240000201CB500F0F00141F038
:103890000D028DF8042041F0090100018DF805109A
:1038A00040F00D018DF8061040F009008DF807007A
:1038B00064200090042301AA4E210248FEF7BEFEB8
:1038C0001CBD00002400002010B5044602E0641C6A
:1038D000FFF7DAFF20780028F9D110BD86B0FFF796
:1038E0007BF8FFF74FFEFFF709FEFFF725FE0124E7
:1038F0004FF6FF7505EA4401052303223648FEF71B
:10390000F7FC18B135A0FCF741FD03E0214634A0D7
:10391000FCF73CFD641C802CECDB6420FEF714FB00
:10392000FFF738FF4FF47A7400F0D4F8E8B10328B9
:1039300045D033A16846FCF735FD00210846FFF766
:103940006DFF6846FFF7C0FF32A16846FCF72AFD0D
:1039500000210120FFF762FF6846FFF7B5FF204610
:10396000FEF7F2FAFFF70AFFDEE7304D286800F0B5
:10397000AFF941EC100B2EA153EC102B6846FCF76D
:1039800011FD00210846FFF749FF6846FFF79CFF3D
:10399000686800F09DF941EC100B29A153EC102B45
:1039A0006846FCF7FFFC00210120FFF737FF68465F
:1039B000FFF78AFF4FF42F70FEF7C6FAB4E725A190
:1039C0006846FCF7EFFC00210846FFF727FF684632
:1039D000FFF77AFF24A1B8E7240000202D200A0079
:1039E00048414C5F4932435F49734465766963657A
:1039F00052656164793A2030782558200A00000029
:103A000048756D69646974793A2D2D4E4F4E452D78
:103A10002D00000054656D70657261747572653AB1
:103A20002D2D4E4F4E452D2D000000000000002092
:103A300048756D69646974793A2025302E316600C5
:103A400054656D70657261747572653A2025302E0B
:103A50003166000048756D69646974793A2D2D42AC
:103A60005553592D2D00000054656D7065726174B9
:103A70007572653A2D2D425553592D2D00000000C9
:103A80001FB5044600208DF80C000121642203A814
:103A90008DE807000B46224670210648FEF764FEBB
:103AA0009DF80C20214604A0FCF770FC9DF80C004A
:103AB00004B010BD2400002072657475726E5F76CC
:103AC000616C756520666F72202558203A20255854
:103AD000200A000070B52DED028B84B00025642013
:103AE000FEF732FA7120FFF7CBFFC0F3C1000328C5
:103AF00005D0012504B02846BDEC028B70BD0A201C
:103B0000FEF722FAAC208DF80C0033208DF80D0062
:103B100000208DF80E006424032303AA70213E4880
:103B20000094FEF78BFD5020FEF70EFA072301AA42
:103B3000702139480094FEF791FC002401AE214623
:103B4000325D36A0FCF722FC641C072CF7DB9DF8E5
:103B50000400010659D4062101A8FEF7D8F99DF802
:103B60000A1088424CD132A0FCF710FC9DF80500E9
:103B70009DF80610DFED310A01EB00209DF80710DB
:103B80009FED2F8A01EB0020000900EE100A2D4C5A
:103B9000B8EE400A20EE200A20EE080A84ED000A62
:103BA00010EE100A00F094F841EC100B26A053EC34
:103BB000102BFCF7EBFB9DF807009DF808100007A1
:103BC00001EB10509DF80910DFED230A01EB0020F6
:103BD00000EE100AB8EE400A60EE200A9FED1F0AC0
:103BE00010EE880A84ED010A10EE100A00F070F859
:103BF00041EC100B1AA053EC102BFCF7C7FB79E734
:103C00001BA0FCF7C3FB022574E700F080011BA09A
:103C1000FCF7BCFB03256DE7240000206275666697
:103C20006665722025643A202558200A00000000AD
:103C3000435243204F4B200A000000000000C842BE
:103C4000000080350000002052482025302E3166CB
:103C50002525200A000000000000484300004842DB
:103C600054656D702025302E3166200A000000005A
:103C7000435243206661696C200A00004368656313
:103C80006B204269745B375D2061742042797465F2
:103C9000303A202578200A0010B500290AD008788B
:103CA000002807D005487844FCF7BCFC002801D068
:103CB000002010BD0248784410BD0000360200000C
:103CC0002E0200000808A0F500114FEA31017047EC
:103CD00043004FEAD30C4FEA3C0C43401FBF400760
:103CE0000CF1605113F0FE4F70471CF0006F03D1D0
:103CF00000200CF0004170470CF0004343EA507084
:103D000010B540EACC0000F00EF800BF00000092B1
:103D10004FEA0001FFF7D6BF4FF000414FF000001F
:103D2000A1F5002170470EF1020E2EF0030E5EF891
:103D3000044B244204D44FEA4102B2F17F4F11D820
:103D40004FEA4003B3F17F4F0CD80ED14FEAD07C3D
:103D5000B2F17F4F0CEB4C0C0CF1020C08BF4CEB9A
:103D6000D17C04E04FF0080C01E04FEAD17C0CEB71
:103D70004C0324FA03F404F00704B4F1040C06D253
:103D80000EEB840CBDE810404CF0010C6047DFE8FE
:103D90000CF0070802024FF00040A0F5800010BDB3
:103DA0000846420018BFD2F1807288BF00F0004080
:103DB00010BD4FF04070E1EE100A7047FCF7A7BD50
:103DC00000000000000000000102030406070809CB
:103DD00000000000010203043A535444494E003AE3
:103DE0005354444F5554003A5354444552520030B2
:103DF0003132333435363738394142434445464011
:103E000030580030313233343536373839616263F7
:103E1000646566403078000400000800000000007F
:103E2000000002000100001002400000000000A09D
:103E30000000000005400000000000C80000000075
:103E40000C4000000000409C0000000019400000F1
:103E50000020BCBE0000000034400000BFC91B8E23
:103E600000000004B5400000504BCFD06607E2CF01
:103E7000010000006C4100003E8251AADFEEA73431
:103E800001000000D9420000DCB5A0E23A301F97E3
:103E9000FFFFFFFFB4450000FD25A0C8E9A3C14F07
:103EA000FFFFFFFFFF3F0000000000800000000058
:103EB000FF3F00000000008000000000F83E000806
:103EC0000000002024000000C40100081C3F00087E
:103ED00024000020B4070000E00100081C000000DE
:103EE00043000000F8FFFFFF0C0000000E00000080
:103EF0000F0000002E000000000000000000000085
:103F00000100000010000000000000000024F40088
:0C3F1000000000000000000000000000A5
:040000050800018965
:00000001FF
