:020000040800F2
:10000000C806002029020008FD1300080D1300088F
:10001000F9130008D5030008D114000800000000FF
:1000200000000000000000000000000005140008AF
:10003000D90300080000000001140008091400089A
:10004000430200084302000843020008430200087C
:10005000430200084302000843020008430200086C
:10006000430200084302000843020008430200085C
:10007000430200084302000843020008430200084C
:10008000430200084302000843020008430200083C
:10009000430200084302000843020008430200082C
:1000A000430200084302000843020008430200081C
:1000B000430200084302000843020008430200080C
:1000C00043020008430200084302000843020008FC
:1000D00043020008430200084302000843020008EC
:1000E00043020008430200084302000843020008DC
:1000F00043020008430200084302000843020008CC
:1001000043020008430200084302000843020008BB
:1001100043020008430200084302000843020008AB
:10012000430200084302000843020008430200089B
:10013000430200084302000843020008430200088B
:10014000430200084302000843020008430200087B
:10015000430200084302000843020008430200086B
:10016000430200084302000843020008430200085B
:100170004302000843020008430200080000000098
:10018000430200084302000800F002F800F03CF8C7
:100190000AA090E8000C82448344AAF10107DA45E2
:1001A00001D100F031F8AFF2090EBAE80F0013F0F8
:1001B000010F18BFFB1A43F0010318475C1600003B
:1001C0007C160000103A24BF78C878C1FAD85207CC
:1001D00024BF30C830C144BF04680C6070470000C1
:1001E0000023002400250026103A28BF78C1FBD840
:1001F000520728BF30C148BF0B6070471FB501F0E0
:10020000F2FA1FBD10B510BD00F0A9F81146FFF7B6
:10021000F5FF01F091FA00F0C7F803B4FFF7F2FF21
:1002200003BC00F0CFF800000948804709480047A8
:10023000FEE7FEE7FEE7FEE7FEE7FEE7FEE7FEE796
:10024000FEE7FEE704480549054A064B70470000F3
:10025000BD14000889010008C8000020C80600205D
:10026000C8020020C802002053EA020C00F0698096
:100270002DE9F04B4FF00006002B1FBFB3FA83F5BA
:1002800003FA05F424FA05F65E4012BF1643B2FAEB
:1002900082F502FA05F4C5F120051EBF22FA05FC1D
:1002A00044EA0C04203556EA044C4FEA144418BFC3
:1002B000641C4FF000084FF00009904271EB030CF2
:1002C00039D3002919BFB1FA81F701FA07F6B0FA5C
:1002D00080F700FA07F6C7F120071EBF20FA07FCD7
:1002E00046EA0C062037B6FBF4FCA7EB0507103FE7
:1002F00007F01F0BCBF120062CFA06F60CFA0BFBCD
:1003000044BFB3460026202FA4BF5E464FF0000B2B
:100310005BEA060C08BF4FF0010B19EB0B0948EB29
:100320000608ABFB027C06FB02CC0BFB03CCC01B1C
:1003300071EB0C01C1E70B46024641464846BDE859
:10034000F08B13B5084318BF4FF0FF300146AFF3F1
:100350000080BDE81C407047704770477047754685
:1003600000F02CF8AE4605006946534620F0070021
:10037000854618B020B5FFF765FFBDE820404FF077
:1003800000064FF000074FF000084FF0000BAC469E
:10039000ACE8C009ACE8C009ACE8C009ACE8C009E9
:1003A00021F007018D46704710B50446AFF3008079
:1003B0002046BDE81040FFF730BF000000487047FE
:1003C0001000002001491820ABBEFEE72600020005
:1003D00070470000FEE7000070470000EFF3108058
:1003E00072B600BFFEE70000B0B5044600F0EAF8C0
:1003F000054640F20000C2F200000078611C18BF00
:10040000044400BF00F0DEF8401BA042FAD3B0BDA8
:100410002DE9F04F82B000F13E4241F6004502F175
:10042000FF77C4F20205082243F6004E4FEAB726D2
:10043000A84208BF0722C4F2010E072E38BF4FEAB8
:10044000B7220125002600274FF00008009208E09F
:1004500008F101080437B8F1100F06F1020600F0A8
:10046000A7800C6805FA08F914EA090FF0D0D1F852
:1004700004B003220BF0030CACF10104B240012CD8
:100480006FEA020A10D88268CC6802EA0A02B44015
:10049000224382604268CBF3001422EA090204FA84
:1004A00008F42243426005E0BCF1030F02D14FF093
:1004B000030C20E0C2688C6802EA0A02B4402243BE
:1004C000BCF1020FC26016D16FF0030202EA5802BB
:1004D0000244D2F820C007F01C050F230C69AB4082
:1004E0002CEA030304FA05F52B431362D1F804B098
:1004F00001250BF0030C02680CFA06F302EA0A026B
:100500001A431BF4403F0260A2D0002243F644038A
:100510000192C4F202031A684FF6084C42F480427A
:100520001A601A68CFF6FF7C02F480420192019AA9
:1005300028F00302724452F80C3007F00C050F2427
:10054000AC40A343009C04FA05F52B4342F80C3061
:10055000DEF808204B6842EA090543F60C4CDC0241
:1005600058BF22EA0905CEF80850C4F2010CDCF8A5
:1005700000209C0242EA090558BF22EA0905CCF88E
:100580000050DEF804209C0342EA090558BF22EA25
:100590000905CEF80450DEF80020DB0342EA090525
:1005A00058BF22EA0905CEF80050012550E700BFE8
:1005B00002B0BDE8F08F0000002A08BF0904816185
:1005C0007047000040F2C400C2F2000000687047AB
:1005D00070B5B8B3044690F83D0028B9002084F8FF
:1005E0003C00204600F0ECFA242084F83D0020680E
:1005F000016821F001010160016841F400410160DE
:10060000016821F40041016000F066FC48F280417D
:10061000C0F21E0140F60013D4F804E088424FF007
:100620000001C0F23D0348F2A16C4FF0000238BF58
:1006300001219842C0F2010C38BF0122E64538BFC3
:100640000A460AB1012070BD4DF68361C4F21B3128
:10065000A0FB01122168950C4B684FF4967623F0AD
:100660003F0343EA9243754344F6D3564B60C1F2CD
:1006700062060B6AA5FB0656B50923F03F03E64563
:1006800038BF950C6A1C1A430A62CA6948F2A06610
:100690004CF6FF73C0F20106B64522EA03020BD8FE
:1006A00001384FEA4E03B0FBF3F001306FF31F3017
:1006B000042898BF04201EE0A368013863B1192301
:1006C0000EFB03F3B0FBF3F001306FF31F3078B192
:1006D00000F5804008E000BF0EEB4E03B0FBF3F0E6
:1006E00001306FF31F3028B100F5004003E000BF78
:1006F000012000E001201043C8610868D4E9072305
:1007000020F0C000104318430860886848F2FF32A8
:1007100004F10C0690434CCE18431043A569886041
:10072000C86820F0FF0030432843C860086840F0E4
:100730000100086000202021206484F83D1020631F
:1007400084F83E0070BD00002DE9F04381B01F46E3
:10075000164688460446FFF735FF94F83D102029D9
:1007600020D1054620688169890717D5FFF72AFF40
:10077000401B1928F6D900202021206384F83D1061
:1007800084F83E00216C022641F02001216484F8A7
:100790003C00304601B0BDE8F08300BF94F83C1047
:1007A000012905D10226304601B0BDE8F08300BF23
:1007B000012184F83C100168C90703D1016841F0A8
:1007C00001010160016821F400610160212184F8C8
:1007D0003D10102184F83E10002121646662678577
:1007E000618D21850021CFF6FF71E162E16A11F58B
:1007F000803F18BF012919D1016841F4807101605F
:100800004169DDF82090C90723D119F1010116D003
:10081000B9F1000F46D000BFFFF7D4FE401B48459A
:1008200042D820684169C907F6D012E00829E3D010
:10083000216B1229E0D0E3E74169C90709D1416979
:10084000C90706D14169C90704BF41695FEAC1719F
:10085000F2D02169B1F5804F02D1FE2161E000BFE5
:10086000062101EAD811F03101614169090757D425
:10087000416919F1010201F480612FD0002946D1AC
:10088000B9F1000F00F04281FFF79CFE401B484584
:1008900000F23E8120684169090741D44169490558
:1008A000F2D534E0FFF78EFE00202021206384F88B
:1008B0003D1084F83E00216C012641F020012164A6
:1008C000216884F83C000868C00544BF4FF40070FC
:1008D0002064304601B0BDE8F08300BFB9B941697A
:1008E00009071DD44169490511D44169090717D485
:1008F000416949050BD44169090711D4416949058A
:1009000005D4416909070BD441694905E7D5016858
:1009100041F4007101606FF4806141610420F8E0EE
:10092000FF2101EA08010161416989073AD441695F
:1009300019F1010201F4806112D051BBB9F1000F2D
:1009400000F0E080FFF73EFE401B484500F2DC80EF
:1009500020684169890725D441694905F2D518E025
:10096000B9B9416989071DD44169490511D4416963
:10097000890717D4416949050BD44169890711D406
:100980004169490505D4416989070BD44169490585
:10099000E7D5016841F4007101606FF48061416145
:1009A0000420B6E00026009641690091816900911B
:1009B0000099218D002900F0958009F10108014678
:1009C00051F8142F120635D4B8F1000F16D0B9F132
:1009D000000F00F0AF8000BF0868400500F1B28052
:1009E000FFF7F0FD401B484500F2A9802068014652
:1009F00051F8142F1206EFD51CE000BF0A6852050B
:100A000000F1A0800A68120614D40A68520500F1A9
:100A100099800A6812060DD40A68520500F1928086
:100A20000A68120606D40A68520500F18B800A682B
:100A30001206E3D5636A194611F8012B026161625F
:100A4000618D01396185278D0146A7F1010CA4F85C
:100A500028C051F8142F52070DD55FEA0C420AD076
:100A60005A78A7F1020C02619A1C6262628D013A07
:100A70006285A4F828C00A6852072FD4B8F1000F85
:100A800014D0B9F1000F7BD00868400500F18080D8
:100A9000FFF798FD401B484577D82068014651F87C
:100AA000142F5207F0D5B4F828C017E00A68520591
:100AB0006ED40A68520711D40A68520568D40A68CD
:100AC00052070BD40A68520562D40A68520705D44B
:100AD0000A6852055CD40A685207E7D55FEA0C4100
:100AE0007FF46DAF016841F400710160202084F84B
:100AF0003D0084F83E6084F83C60304601B0BDE8BB
:100B0000F08300BFFFF75EFD202002E0FFF75AFDF3
:100B1000202000212022216384F83D2084F83E100B
:100B2000226C01261043206484F83C10304601B04A
:100B3000BDE8F0830868400504D4FFF743FD20209A
:100B400004E000BF6FF480600860042000212022D0
:100B5000216384F83D2084F83E10226C1043206409
:100B600084F83C10206C042825D1206801260168F7
:100B700041F400710160304601B0BDE8F08300BF70
:100B80000868400504D4FFF71DFD202004E000BFE5
:100B90006FF480600860042000212022216384F823
:100BA0003D2084F83E10226C1043206484F83C10F1
:100BB000206C0428D9D00126304601B0BDE8F0836E
:100BC000B0B586B0016845F20040C4F20000814231
:100BD00002D006B0B0BD00BF002443F6300501943A
:100BE000C4F20205296800F5D83041F002012960FD
:100BF000296801F0020101910199C021019112219E
:100C0000CDE90214032104910421059101A9FFF704
:100C1000FFFB0094286940F400102861286900F463
:100C200000100090009806B0B0BD000040F2000037
:100C300040F2C401C2F20000C2F2000100780A686A
:100C4000104408607047000080B543F60040C4F2CD
:100C50000200016841F400710160016841F48061A3
:100C60000160016841F480710160032000F074F8B4
:100C70000F2000F005F800F027F8002080BD0000EC
:100C800070B540F20006C2F2000640F20801327868
:100C9000C2F200014FF47A730968B3FBF2F2044622
:100CA000B1FBF2F1084600F01BFB0F2C4FF00105E1
:100CB00008D838B94FF0FF3021460022002500F057
:100CC0001FF87460284670BD82B0002043F64001D2
:100CD0000190C4F202014A6842F480424A604A68C4
:100CE00002F480420192019A0090086840F080501E
:100CF0000860086800F080500090009802B07047CB
:100D000010B54EF60C5CCEF2000CDCF80030C3F3EC
:100D1000022E8EF00704042C28BF0424BEF1030326
:100D20004FF0FF3E0EFA04F438BF0023A143994070
:100D30000EFA03F39A43114300F00F0200F16043EF
:100D40000901043A03F564436244002848BF02F1F4
:100D50000C03197010BD00004EF60C51CEF20001CC
:100D60000A684FF6FF031A4060F30A2242F08060DF
:100D700040F0FD70086070472DE9F041002800F058
:100D80008B8043F60808C4F202080446D8F8F8033A
:100D90000D4600F00700884207D288F8F853D8F8CB
:100DA000F80300F00700A84276D12068810717D524
:100DB000410705D5D8F8001041F4E051C8F80010FB
:100DC000010705D5D8F8001041F46041C8F80010BB
:100DD000D8F80010A26821F0F0011143C8F8001003
:100DE000C0073FD1D8F8F80300F00700A84207D9A0
:100DF00088F8F853D8F8F80300F00700A8424BD160
:100E00002068410707D5D8F80010E26821F4E051C6
:100E10001143C8F80010000708D5D8F80000216970
:100E200020F4604040EAC100C8F8000000F068F813
:100E3000D8F8001041F60002C1F30311C0F6000219
:100E4000515C40F2080220FA01F140F20400C2F2C3
:100E500000000068C2F200021160FFF711FF0020DD
:100E6000BDE8F0816068811E022907D258F8081C8D
:100E700089015CBF0120BDE8F08111E0012807D1A4
:100E800058F8081C89035CBF0120BDE8F08107E029
:100E900058F8081C890703D40120BDE8F08100BF81
:100EA000D8F8001021F003010843C8F80000FFF74C
:100EB00089FB064641F28837D8F80000616800F0E7
:100EC0000C00B0EB810F8DD0FFF77CFB801BB8428C
:100ED000F2D90320BDE8F08140F2080043F6080192
:100EE000C2F20000C4F202010068096841F6100273
:100EF000C1F38221C0F60002515CC8407047000077
:100F000010B543F60404C4F20204606800F00C015A
:100F100042F200400829C0F2F40007D0042918BFAB
:100F200010BD41F20020C0F27A0010BD216801F02E
:100F30003F02216823684902C3F3881106D4A1FB4C
:100F400000010023FFF790F907E000BF41F2002005
:100F5000C0F27A004843B0FBF2F021680222C1F3EC
:100F6000014102EB4101B0FBF1F010BD2DE9F04170
:100F700082B0002868D00446007843F60006C00717
:100F8000C4F202060BD0B06800F00C00042840F058
:100F90009F803068800302D56068002854D0207894
:100FA00080071AD5B06810F00C0F09D0B06800F0B7
:100FB0000C00082840F0A6807068400200F1A28072
:100FC0003068800702D5E06801283DD1306821698A
:100FD00020F0F80040EAC10030602078000737D4E4
:100FE000207840074CD4A56955B3B06800F00C00D8
:100FF000082840F0BB80012D26D07068E16900F41C
:1010000080028A4220D1216A00F03F028A421BD12D
:1010100047F6C071626A0140B1EB821F14D1A16A28
:101020004FF6FF73C903994300F44032A1F58031B4
:101030008A4209D1E16A00F07060B0EB016F03D120
:10104000002002B0BDE8F081012002B0BDE8F081CF
:101050006069002840F20000C4F2472076D00121E8
:10106000C0F8801EFFF7AEFA054600BF706F80071C
:10107000B6D4FFF7A7FA401B0228F7D9DDE000BF7E
:10108000306C10F080580AD100200190306C40F094
:1010900080503064306C00F080500190019847F22D
:1010A0000007C4F200073868C00541D4386840F42E
:1010B00080703860FFF786FA054600BF3868C005C3
:1010C00036D4FFF77FFA401B0228F7D9B5E000BFFE
:1010D000B06800F00C00082803D1706840023FF5AA
:1010E00058AF6068B0F5803F07D0B0F5A02F40F052
:1010F0008D80306840F480203060306840F480306B
:1011000030608DE0E068002852D00020C4F2472013
:1011100001210160FFF756FA054600BF30688007DD
:101120003FF554AFFFF74EFA401B0228F6D984E092
:10113000A068012805D005284ED1306F40F004008A
:101140003067306F40F0010030674FE00021C0F899
:10115000801EFFF737FA0546706F80077FF540AFB6
:10116000FFF730FA401B0228F6D966E00027C4F2E8
:10117000472700203866FFF725FA022D05460BD1D8
:10118000306880015ED5FFF71DFA401B02284FF042
:101190000300F5D955E700BF306880017FF550AFF7
:1011A000FFF710FA401B02284FF00300F4D948E77C
:1011B0000020C4F2472000210160FFF703FA054632
:1011C000306880077FF509AFFFF7FCF9401B022864
:1011D0004FF00300F4D934E7316F002821F001010A
:1011E0003167316F21F0040131674DD0FFF7EAF923
:1011F000054641F2883700BF306F800756D4FFF7AD
:10120000E1F9401BB842F7D917E000BF3168002868
:1012100021F480313160316821F4802131604FD078
:10122000FFF7D0F9054600BF306880033FF5B7AE41
:10123000FFF7C8F9401B6428F6D9032002B0BDE8C7
:10124000F08100BF04F11C052FCD084340EA821055
:10125000D9034FF6FF729143A1F5803140EA056052
:101260000843706001203866FFF7ACF9044600BF00
:10127000306880013FF5E4AEFFF7A4F9001B0228B7
:101280004FF00300F4D9DCE6FFF79CF9054641F284
:10129000883700BF306F800708D5FFF793F9401BF0
:1012A000B8424FF00300F5D9CBE600BFB8F1000F0C
:1012B0007FF499AE306C20F08050306493E600BF2C
:1012C000FFF780F9054600BF306880037FF567AE01
:1012D000FFF778F9401B64284FF00300F4D9B0E61B
:1012E000411E0020B0EB116F1CBF012070474EF271
:1012F0001002CEF2000251604EF62351CEF20001F0
:10130000F0230B700721906011607047FEE700002A
:101310002DE9F04186B0002643F63000CDE90466A1
:101320000096C4F202000168002441F0100101603F
:101330000168C4F2020401F01001009100990096C6
:101340000168012241F08001016001684FF0C0088E
:1013500001F080010091009900960168012741F099
:1013600001010160016801F00101009100990096FE
:10137000016841F0020101600068C02100F0020034
:10138000009000982046FFF717F9182001A901AD39
:10139000C1C104F580502946FFF73AF82046294696
:1013A000CDE90187CDE90366FFF732F806B0BDE865
:1013B000F081000080B540F2700045F20041C2F2B9
:1013C0000000C4F2000148F2A06200234FF4804CF8
:1013D000C0F2010280E80E00C0E9033CC0E9053319
:1013E000C0E90733FFF7F4F8002808BF80BDBDE867
:1013F0008040FEF7F3BF0000FEE70000FEE70000BC
:101400007047000070470000FFF710BCB0B592B005
:10141000002443F64000CDE90A44CDE90844059490
:10142000CDE90344CDE901440094C4F2020001680F
:10143000022541F080510160006800F0805000906A
:10144000009847F200000094C4F20000016841F4E3
:10145000804101600068A82100F48040009000985D
:10146000012006904FF4803007904FF480000D90DB
:1014700004200E90119006A80C95CDE90F15FFF7EA
:1014800075FD28B1EFF3108072B600BFFEE700BF14
:101490000F20CDE901054FF4A05004904FF4805087
:1014A000059001A805210394FFF766FC20B1EFF336
:1014B000108072B6FEE700BF12B0B0BD4EF6885085
:1014C000CEF20000016841F4700101607047000035
:1014D000FEE700002DE9F04184B048F68C0040F2B0
:1014E0007004C0F60C00C2F2000402904FF06408D1
:1014F00002AA20464E210423CDF80080FFF724F9EC
:1015000042F62D164627C0F60D1603AD20464E2195
:101510002A4604230396CDF80080FFF715F9013F12
:10152000F4D104B0BDE8F08170B582B03220FEF78E
:101530005BFF40F2700443F63C06C2F20004C0F6C2
:101540000C06642501AA20464E210423019600952D
:10155000FFF7FAF80520FEF747FF01AA20464E21C3
:10156000042301960095FFF7EFF80120FEF73CFFFA
:1015700001AA20464E21042301960095FFF7E4F8C6
:101580000A20FEF731FF42F62C00C0F60C00019055
:1015900001AA20464E2104230095FFF7D5F80A2022
:1015A000FEF722FF42F62C00C8F68C00019001AA3B
:1015B00020464E2104230095FFF7C6F80120FEF7D0
:1015C00013FF40F60C00C8F68C00019001AA2046DB
:1015D0004E2104230095FFF7B7F80120FEF704FF22
:1015E00040F60C00C1F61C00019001AA20464E21D5
:1015F00004230095FFF7A8F80120FEF7F5FE01206F
:10160000FEF7F2FE40F60C00C6F66C00019001AA4F
:1016100020464E2104230095FFF796F80120FEF79F
:10162000E3FE40F60C00CCF6CC00019001AA204667
:101630004E2104230095FFF787F802B070BD00002B
:10164000032811D8DFE800F002060A0E41F08001FD
:101650000AE000BF41F0C00106E000BF41F0940184
:1016600002E000BF41F0D40180B582B021F00F004C
:10167000090100F10C0208308DF8050001F10C00A1
:101680008DF8060001F108008DF8070040F27000A7
:101690008DF804204FF0640CC2F2000001AA4E2124
:1016A0000423CDF800C0FFF74FF802B080BD000062
:1016B00080B582B000F0F001000101F10C020831A8
:1016C0008DF8051000F10C0108308DF8070040F28C
:1016D00070008DF804208DF806104FF0640CC2F2F3
:1016E000000001AA4E210423CDF800C0FFF72CF81A
:1016F00002B080BD80B582B000F0F001000101F1C0
:101700000D0209318DF8051000F10D0109308DF839
:10171000070040F270008DF804208DF806104FF09D
:10172000640CC2F2000001AA4E210423CDF800C0CF
:10173000FFF70AF802B080BDFFF786FAFFF766FEF2
:10174000FFF7E6FDFFF736FEFFF7EEFE5020FFF74E
:10175000AFFF1020FFF7CEFF0820FFF7CBFF0420DC
:10176000FFF7C8FF0220FFF7C5FF0120FFF7C2FF08
:101770000220FFF7BFFF0420FFF7BCFF0820FFF7A0
:10178000B9FF01200021FFF75BFF7820FFF790FFF2
:101790000F20FFF7AFFF1020FFF7ACFF1020FFF77F
:1017A000A9FF1F20FFF7A6FF1020FFF7A3FF1020BF
:1017B000FFF7A0FF1020FFF79DFF0F20FFF79AFF14
:1017C00001200021FFF73CFF0720FFF793FF0220D5
:1017D000FFF790FF48F2A060C0F20100FEF704FEA0
:1017E000FFF778FEFEE7F1EE100A4FF6FF71C0F248
:1017F000C03120EA010040F04070E1EE100A70476D
:1018000000000000000000000102030406070809B0
:101810000000000001020304381800080000002046
:1018200010000000C4010008481800081000002043
:10183000B8060000E00100080100000010000000F0
:081840000024F4000000000088
:040000050800018965
:00000001FF
