:020000040800F2
:100000007806002029020008250D00087D0C000854
:10001000210D0008D5030008F90D000800000000BC
:100020000000000000000000000000002D0D00088E
:10003000D903000800000000290D0008310D000858
:10004000430200084302000843020008430200087C
:10005000430200084302000843020008430200086C
:10006000430200084302000843020008430200085C
:10007000430200084302000843020008430200084C
:10008000430200084302000843020008430200083C
:10009000430200084302000843020008430200082C
:1000A000430200084302000843020008430200081C
:1000B000430200084302000843020008430200080C
:1000C00043020008430200084302000843020008FC
:1000D00043020008430200084302000843020008EC
:1000E00043020008430200084302000843020008DC
:1000F00043020008430200084302000843020008CC
:1001000043020008430200084302000843020008BB
:1001100043020008430200084302000843020008AB
:10012000430200084302000843020008430200089B
:10013000430200084302000843020008430200088B
:10014000430200084302000843020008430200087B
:10015000430200084302000843020008430200086B
:10016000430200084302000843020008430200085B
:100170004302000843020008430200080000000098
:10018000430200084302000800F002F800F03CF8C7
:100190000AA090E8000C82448344AAF10107DA45E2
:1001A00001D100F031F8AFF2090EBAE80F0013F0F8
:1001B000010F18BFFB1A43F001031847501300004A
:1001C00070130000103A24BF78C878C1FAD85207DB
:1001D00024BF30C830C144BF04680C6070470000C1
:1001E0000023002400250026103A28BF78C1FBD840
:1001F000520728BF30C148BF0B6070471FB501F0E0
:1002000070F91FBD10B510BD00F0A9F81146FFF739
:10021000F5FF00F0F3FD00F0C7F803B4FFF7F2FFBD
:1002200003BC00F0CFF800000948804709480047A8
:10023000FEE7FEE7FEE7FEE7FEE7FEE7FEE7FEE796
:10024000FEE7FEE704480549054A064B70470000F3
:10025000E50D0008890100087800002078060020DC
:10026000780200207802002053EA020C00F0698036
:100270002DE9F04B4FF00006002B1FBFB3FA83F5BA
:1002800003FA05F424FA05F65E4012BF1643B2FAEB
:1002900082F502FA05F4C5F120051EBF22FA05FC1D
:1002A00044EA0C04203556EA044C4FEA144418BFC3
:1002B000641C4FF000084FF00009904271EB030CF2
:1002C00039D3002919BFB1FA81F701FA07F6B0FA5C
:1002D00080F700FA07F6C7F120071EBF20FA07FCD7
:1002E00046EA0C062037B6FBF4FCA7EB0507103FE7
:1002F00007F01F0BCBF120062CFA06F60CFA0BFBCD
:1003000044BFB3460026202FA4BF5E464FF0000B2B
:100310005BEA060C08BF4FF0010B19EB0B0948EB29
:100320000608ABFB027C06FB02CC0BFB03CCC01B1C
:1003300071EB0C01C1E70B46024641464846BDE859
:10034000F08B13B5084318BF4FF0FF300146AFF3F1
:100350000080BDE81C407047704770477047754685
:1003600000F02CF8AE4605006946534620F0070021
:10037000854618B020B5FFF765FFBDE820404FF077
:1003800000064FF000074FF000084FF0000BAC469E
:10039000ACE8C009ACE8C009ACE8C009ACE8C009E9
:1003A00021F007018D46704710B50446AFF3008079
:1003B0002046BDE81040FFF730BF000000487047FE
:1003C0001000002001491820ABBEFEE72600020005
:1003D00070470000FEE7000070470000B0B504461B
:1003E00000F0EAF8054640F20000C2F20000007892
:1003F000611C18BF044400BF00F0DEF8401BA0429F
:10040000FAD3B0BD2DE9F04F82B000F13E4241F683
:10041000004502F1FF77C4F20205082243F6004EC0
:100420004FEAB726A84208BF0722C4F2010E072EE2
:1004300038BF4FEAB7220125002600274FF00008F9
:10044000009208E008F101080437B8F1100F06F136
:10045000020600F0A7800C6805FA08F914EA090FF3
:10046000F0D0D1F804B003220BF0030CACF101047E
:10047000B240012C6FEA020A10D88268CC6802EA06
:100480000A02B440224382604268CBF3001422EA9D
:10049000090204FA08F42243426005E0BCF1030FAC
:1004A00002D14FF0030C20E0C2688C6802EA0A0215
:1004B000B4402243BCF1020FC26016D16FF00302B8
:1004C00002EA58020244D2F820C007F01C050F23AC
:1004D0000C69AB402CEA030304FA05F52B431362C5
:1004E000D1F804B001250BF0030C02680CFA06F3F6
:1004F00002EA0A021A431BF4403F0260A2D0002223
:1005000043F644030192C4F202031A684FF6084C02
:1005100042F480421A601A68CFF6FF7C02F48042EF
:100520000192019A28F00302724452F80C3007F04D
:100530000C050F24AC40A343009C04FA05F52B43A3
:1005400042F80C30DEF808204B6842EA090543F611
:100550000C4CDC0258BF22EA0905CEF80850C4F260
:10056000010CDCF800209C0242EA090558BF22EA8F
:100570000905CCF80050DEF804209C0342EA090586
:1005800058BF22EA0905CEF80450DEF80020DB034C
:1005900042EA090558BF22EA0905CEF800500125B4
:1005A00050E700BF02B0BDE8F08F0000002A08BF8E
:1005B000090481617047000040F27000C2F200003F
:1005C0000068704740F2000040F27001C2F2000083
:1005D000C2F2000100780A68104408607047000009
:1005E00080B543F60040C4F20200016841F4007196
:1005F0000160016841F480610160016841F480712B
:100600000160032000F074F80F2000F005F800F0FE
:1006100027F8002080BD000070B540F20006C2F24D
:10062000000640F208013278C2F200014FF47A73FA
:100630000968B3FBF2F20446B1FBF2F1084600F0A0
:1006400007FB0F2C4FF0010508D838B94FF0FF30E9
:1006500021460022002500F01FF87460284670BD76
:1006600082B0002043F640010190C4F202014A68C2
:1006700042F480424A604A6802F480420192019A40
:100680000090086840F080500860086800F08050D2
:100690000090009802B0704710B54EF60C5CCEF298
:1006A000000CDCF80030C3F3022E8EF00704042C9B
:1006B00028BF0424BEF103034FF0FF3E0EFA04F4FA
:1006C00038BF0023A14399400EFA03F39A43114324
:1006D00000F00F0200F160430901043A03F564439E
:1006E0006244002848BF02F10C03197010BD0000DD
:1006F0004EF60C51CEF200010A684FF6FF031A4085
:1007000060F30A2242F0806040F0FD70086070479C
:100710002DE9F041002800F08B8043F60808C4F270
:1007200002080446D8F8F8030D4600F00700884296
:1007300007D288F8F853D8F8F80300F00700A84269
:1007400076D12068810717D5410705D5D8F8001064
:1007500041F4E051C8F80010010705D5D8F80010A1
:1007600041F46041C8F80010D8F80010A26821F0E8
:10077000F0011143C8F80010C0073FD1D8F8F803C2
:1007800000F00700A84207D988F8F853D8F8F80312
:1007900000F00700A8424BD12068410707D5D8F8E0
:1007A0000010E26821F4E0511143C8F8001000077E
:1007B00008D5D8F80000216920F4604040EAC10063
:1007C000C8F8000000F054F8D8F8001041F2FC42DC
:1007D000C1F30311C0F60002515C40F2080220FA96
:1007E00001F140F20400C2F200000068C2F200020F
:1007F0001160FFF711FF0020BDE8F0816068811EE5
:10080000022907D258F8081C89015CBF0120BDE805
:10081000F08111E0012807D158F8081C89035CBF5A
:100820000120BDE8F08107E058F8081C890703D4CF
:100830000120BDE8F08100BFD8F8001021F00301CD
:100840000843C8F80000FFF7B7FE064641F28837B4
:10085000D8F80000616800F00C00B0EB810F8DD07B
:10086000FFF7AAFE801BB842F2D90320BDE8F08151
:1008700010B543F60404C4F20204606800F00C01F1
:1008800042F200400829C0F2F40007D0042918BF42
:1008900010BD41F20020C0F27A0010BD216801F0C5
:1008A0003F02216823684902C3F3881106D4A1FBE3
:1008B00000010023FFF7D8FC07E000BF41F2002051
:1008C000C0F27A004843B0FBF2F021680222C1F383
:1008D000014102EB4101B0FBF1F010BD2DE9F04107
:1008E00082B0002868D00446007843F60006C007AE
:1008F000C4F202060BD0B06800F00C00042840F0EF
:100900009F803068800302D56068002854D020782A
:1009100080071AD5B06810F00C0F09D0B06800F04D
:100920000C00082840F0A6807068400200F1A28008
:100930003068800702D5E06801283DD13068216920
:1009400020F0F80040EAC10030602078000737D47A
:10095000207840074CD4A56955B3B06800F00C006E
:10096000082840F0BB80012D26D07068E16900F4B2
:1009700080028A4220D1216A00F03F028A421BD1C4
:1009800047F6C071626A0140B1EB821F14D1A16ABF
:100990004FF6FF73C903994300F44032A1F580314B
:1009A0008A4209D1E16A00F07060B0EB016F03D1B7
:1009B000002002B0BDE8F081012002B0BDE8F08166
:1009C0006069002840F20000C4F2472076D001217F
:1009D000C0F8801EFFF7F0FD054600BF706F80076E
:1009E000B6D4FFF7E9FD401B0228F7D9DDE000BFD0
:1009F000306C10F080580AD100200190306C40F02B
:100A000080503064306C00F080500190019847F2C3
:100A10000007C4F200073868C00541D4386840F4C4
:100A200080703860FFF7C8FD054600BF3868C00514
:100A300036D4FFF7C1FD401B0228F7D9B5E000BF4F
:100A4000B06800F00C00082803D1706840023FF540
:100A500058AF6068B0F5803F07D0B0F5A02F40F0E8
:100A60008D80306840F480203060306840F4803001
:100A700030608DE0E068002852D00020C4F24720AA
:100A800001210160FFF798FD054600BF306880072F
:100A90003FF554AFFFF790FD401B0228F6D984E0E4
:100AA000A068012805D005284ED1306F40F0040021
:100AB0003067306F40F0010030674FE00021C0F830
:100AC000801EFFF779FD0546706F80077FF540AF08
:100AD000FFF772FD401B0228F6D966E00027C4F23A
:100AE000472700203866FFF767FD022D05460BD12A
:100AF000306880015ED5FFF75FFD401B02284FF094
:100B00000300F5D955E700BF306880017FF550AF8D
:100B1000FFF752FD401B02284FF00300F4D948E7CD
:100B20000020C4F2472000210160FFF745FD054683
:100B3000306880077FF509AFFFF73EFD401B0228B4
:100B40004FF00300F4D934E7316F002821F00101A0
:100B50003167316F21F0040131674DD0FFF72CFD73
:100B6000054641F2883700BF306F800756D4FFF743
:100B700023FD401BB842F7D917E000BF31680028B9
:100B800021F480313160316821F4802131604FD00F
:100B9000FFF712FD054600BF306880033FF5B7AE92
:100BA000FFF70AFD401B6428F6D9032002B0BDE818
:100BB000F08100BF04F11C052FCD084340EA8210EC
:100BC000D9034FF6FF729143A1F5803140EA0560E9
:100BD0000843706001203866FFF7EEFC044600BF52
:100BE000306880013FF5E4AEFFF7E6FC001B022809
:100BF0004FF00300F4D9DCE6FFF7DEFC054641F2D6
:100C0000883700BF306F800708D5FFF7D5FC401B41
:100C1000B8424FF00300F5D9CBE600BFB8F1000FA2
:100C20007FF499AE306C20F08050306493E600BFC2
:100C3000FFF7C2FC054600BF306880037FF567AE52
:100C4000FFF7BAFC401B64284FF00300F4D9B0E66C
:100C5000411E0020B0EB116F1CBF012070474EF207
:100C60001002CEF2000251604EF62351CEF2000186
:100C7000F0230B700721906011607047FEE70000C1
:100C80002DE9F04387B0002743F63000069701971F
:100C9000C4F202000168002441F00401016001680F
:100CA000C4F2020401F00401019101990197016865
:100CB000002241F08001016001687B2601F0800183
:100CC000019101990197016841F0010101600068FB
:100CD0007B2100F00100019001982046FFF766FC9F
:100CE00004F500652846302100224FF03008FFF758
:100CF0005DFC029602AE4FF0010920463146CDE977
:100D000003970597FFF77EFB28463146CDE9028918
:100D1000CDE90477FFF776FB07B0BDE8F08300006C
:100D2000FEE70000FEE7000070470000704700008B
:100D3000FFF748BCB0B592B0002443F640000B94D6
:100D4000CDE90944CDE907440594CDE90344CDE953
:100D500001440094C4F202000168022541F0805170
:100D60000160006800F080500090009847F2000099
:100D70000094C4F20000016841F480410160006801
:100D800000F48040009000980120099010200A9003
:100D900008200E90A820CDE90F050420119006A888
:100DA0000695CDE90C54FFF799FD28B1EFF31080BB
:100DB00072B600BFFEE700BF0F20CDE901054FF47A
:100DC000A05004904FF48050059001A80521039491
:100DD000FFF79EFC20B1EFF3108072B6FEE700BF74
:100DE00012B0B0BD4EF68850CEF20000016841F45A
:100DF0007001016070470000FEE700000024C4F2AB
:100E00000204FFF7EDFBFFF795FFFFF739FF04F54D
:100E1000006500BF204640210122FFF7C7FB2046A6
:100E200020210122FFF7C2FB204608210122FFF703
:100E3000BDFB204602210122FFF7B8FB204601211D
:100E40000122FFF7B3FB284610210122FFF7AEFB7A
:100E5000284620210022FFF7A9FB2046102100226E
:100E6000FFF7A4FB4FF4FA70FFF7B8FA20464021D1
:100E70000022FFF79BFB204620210022FFF796FB74
:100E8000204608210022FFF791FB20460221002284
:100E9000FFF78CFB204601210022FFF787FB284645
:100EA00010210022FFF782FB284620210022FFF7B5
:100EB0007DFB204610210022FFF778FB3220FFF750
:100EC0008DFA204640210022FFF770FB20462021AA
:100ED0000122FFF76BFB204608210122FFF766FB8A
:100EE000204602210022FFF761FB2046012100225B
:100EF000FFF75CFB284610210022FFF757FB28462E
:100F000020210022FFF752FB204610210022FFF78C
:100F10004DFB4FF4FA70FFF761FA204640210022A2
:100F2000FFF744FB204620210022FFF73FFB20462D
:100F300008210022FFF73AFB204602210022FFF79A
:100F400035FB204601210022FFF730FB2846102107
:100F50000022FFF72BFB284620210022FFF726FB6B
:100F6000204610210022FFF721FB3220FFF736FA3E
:100F7000204640210122FFF719FB204620210122B3
:100F8000FFF714FB204608210022FFF70FFB204645
:100F900002210122FFF70AFB204601210122FFF76F
:100FA00005FB284610210022FFF700FB28462021E0
:100FB0000122FFF7FBFA204610210022FFF7F6FA84
:100FC0004FF4FA70FFF70AFA204640210022FFF79B
:100FD000EDFA204620210022FFF7E8FA20460821FA
:100FE0000022FFF7E3FA204602210022FFF7DEFA93
:100FF000204601210022FFF7D9FA284610210022BD
:10100000FFF7D4FA284620210022FFF7CFFA204626
:1010100010210022FFF7CAFA3220FFF7DFF920463D
:1010200040210122FFF7C2FA204620210122FFF7CA
:10103000BDFA204608210122FFF7B8FA2046022116
:101040000122FFF7B3FA204601210022FFF7AEFA92
:10105000284610210022FFF7A9FA28462021012264
:10106000FFF7A4FA204610210022FFF79FFA4FF461
:10107000FA70FFF7B3F9204640210022FFF796FAF5
:10108000204620210022FFF791FA20460821002265
:10109000FFF78CFA204602210022FFF787FA20464C
:1010A00001210022FFF782FA284610210022FFF7D3
:1010B0007DFA284620210022FFF778FA20461021E9
:1010C0000022FFF773FA3220FFF788F9204640210B
:1010D0000022FFF76BFA204620210122FFF766FA73
:1010E000204608210122FFF761FA20460221002252
:1010F000FFF75CFA204601210022FFF757FA284645
:1011000010210122FFF752FA284620210122FFF781
:101110004DFA204610210022FFF748FA4FF4FA70EA
:10112000FFF75CF9204640210022FFF73FFA2046F6
:1011300020210022FFF73AFA204608210022FFF77B
:1011400035FA204602210022FFF730FA204601211D
:101150000022FFF72BFA284610210022FFF726FA7B
:10116000284620210022FFF721FA204610210022E4
:10117000FFF71CFA3220FFF731F920464021012207
:10118000FFF714FA204620210022FFF70FFA20462D
:1011900008210122FFF70AFA204602210122FFF767
:1011A00005FA204601210022FFF700FA2846102107
:1011B0000122FFF7FBF9284620210122FFF7F6F96B
:1011C000204610210022FFF7F1F94FF4FA70FFF7E3
:1011D00005F9204640210022FFF7E8F920462021AA
:1011E0000022FFF7E3F9204608210022FFF7DEF98D
:1011F000204602210022FFF7D9F9204601210022D2
:10120000FFF7D4F9284610210022FFF7CFF928462E
:1012100020210022FFF7CAF9204610210022FFF703
:10122000C5F93220FFF7DAF8204640210122FFF706
:10123000BDF9204620210022FFF7B8F920460821F9
:101240000122FFF7B3F9204602210122FFF7AEF990
:10125000204601210122FFF7A9F928461021012289
:10126000FFF7A4F9284620210122FFF79FF9204625
:1012700010210022FFF79AF94FF4FA70FFF7AEF849
:10128000204640210022FFF791F92046202100222C
:10129000FFF78CF9204608210022FFF787F9204646
:1012A00002210022FFF782F9204601210022FFF7E8
:1012B0007DF9284610210022FFF778F928462021E1
:1012C0000022FFF773F9204610210022FFF76EF984
:1012D0003220FFF783F8204640210122FFF766F90C
:1012E000204620210122FFF761F920460821012232
:1012F000FFF75CF9204602210022FFF757F920464C
:1013000001210022FFF752F9284610210022FFF7A1
:101310004DF9284620210022FFF748F920461021E8
:101320000022FFF743F94FF4FA70FFF757F8204611
:1013300040210022FFF73AF9204620210022FFF742
:1013400035F9204608210022FFF730F92046022116
:101350000022FFF72BF9204601210022FFF726F992
:10136000284610210022FFF721F9284620210022DB
:10137000FFF71CF9204610210022FFF717F9322051
:10138000FFF72CF8204640210122FFF70FF92046F5
:1013900020210122FFF70AF9204608210122FFF748
:1013A00005F9204602210122FFF700F9204601211C
:1013B0000122FFF7FBF8284610210122FFF7F6F87B
:1013C000284620210122FFF7F1F8204610210022B3
:1013D000FFF7ECF84FF4FA70FFF700F820464021D1
:1013E0000022FFF7E3F8204620210022FFF7DEF875
:1013F000204608210022FFF7D9F8204602210022CA
:10140000FFF7D4F8204601210022FFF7CFF8284645
:1014100010210022FFF7CAF8284620210022FFF7FA
:10142000C5F8204610210022FFF7C0F83220FEF751
:10143000D5FF204640210122FFF7B8F820462021A1
:101440000122FFF7B3F8204608210122FFF7AEF88A
:10145000204602210122FFF7A9F82046012100229F
:10146000FFF7A4F8284610210122FFF79FF828462D
:1014700020210122FFF79AF8204610210022FFF7D1
:1014800095F84FF4FA70FEF7A9FF2046402100229C
:10149000FFF78CF8204620210022FFF787F820462E
:1014A00008210022FFF782F8204602210022FFF7E0
:1014B0007DF8204601210022FFF778F82846102108
:1014C0000022FFF773F8284620210022FFF76EF86C
:1014D000204610210022FFF769F83220FEF77EFF38
:1014E00098E4F1EE100A4FF6FF71C0F2C03120EA25
:1014F000010040F04070E1EE100A7047000000006B
:101500000000000001020304060708093015000866
:101510000000002010000000C40100084015000871
:101520001000002068060000E00100080000000034
:1015300001000000100000000024F4000000000082
:040000050800018965
:00000001FF
