:020000040800F2
:100000002809002049020008D5310008D929000834
:10001000D1310008F50E00089933000800000000F7
:10002000000000000000000000000000DD310008BA
:10003000F90E000800000000D9310008E131000885
:1000400063020008630200086302000863020008FC
:1000500063020008630200086302000863020008EC
:1000600063020008630200086302000863020008DC
:1000700063020008630200086302000863020008CC
:1000800063020008630200086302000863020008BC
:1000900063020008630200086302000863020008AC
:1000A000630200086302000863020008630200089C
:1000B000630200086302000863020008630200088C
:1000C000630200086302000863020008630200087C
:1000D000630200086302000863020008630200086C
:1000E000630200086302000863020008630200085C
:1000F000630200086302000863020008630200084C
:10010000630200086302000863020008630200083B
:10011000630200086302000863020008630200082B
:10012000630200086302000863020008630200081B
:10013000630200086302000863020008630200080B
:1001400063020008630200086302000863020008FB
:1001500063020008630200086302000863020008EB
:1001600063020008630200086302000863020008DB
:100170006302000863020008630200080000000038
:10018000630200086302000800F002F800F04CF877
:100190000AA090E8000C82448344AAF10107DA45E2
:1001A00001D100F041F8AFF2090EBAE80F0013F0E8
:1001B000010F18BFFB1A43F001031847C0480000A5
:1001C000E0480000103A24BF78C878C1FAD8520736
:1001D00024BF30C830C144BF04680C6070470000C1
:1001E0000023002400250026103A28BF78C1FBD840
:1001F000520728BF30C148BF0B607047642900F028
:100200000F81782900F04881002070471FB504F065
:1002100076FB9DE8030000F053FC00F04FFA1FBD91
:1002200010B500F0B4FA10BD00F0E4FA1146FFF783
:10023000EDFF04F02FF900F0EBFB03B4FFF7F0FF44
:1002400003BC00F0BBFD0000094880470948004797
:10025000FEE7FEE7FEE7FEE7FEE7FEE7FEE7FEE776
:10026000FEE7FEE704480549054A064B70470000D3
:100270009532000889010008280300202809002081
:10028000280500202805002053EA020C00F06980B0
:100290002DE9F04B4FF00006002B1FBFB3FA83F59A
:1002A00003FA05F424FA05F65E4012BF1643B2FACB
:1002B00082F502FA05F4C5F120051EBF22FA05FCFD
:1002C00044EA0C04203556EA044C4FEA144418BFA3
:1002D000641C4FF000084FF00009904271EB030CD2
:1002E00039D3002919BFB1FA81F701FA07F6B0FA3C
:1002F00080F700FA07F6C7F120071EBF20FA07FCB7
:1003000046EA0C062037B6FBF4FCA7EB0507103FC6
:1003100007F01F0BCBF120062CFA06F60CFA0BFBAC
:1003200044BFB3460026202FA4BF5E464FF0000B0B
:100330005BEA060C08BF4FF0010B19EB0B0948EB09
:100340000608ABFB027C06FB02CC0BFB03CCC01BFC
:1003500071EB0C01C1E70B46024641464846BDE839
:10036000F08B13B5084318BF4FF0FF300146AFF3D1
:100370000080BDE81C4070470FB4044910B503AAC3
:10038000029800F085F910BC5DF814FB6C000020A9
:100390000FB41CB5074B06AA7B446946009005982C
:1003A00000F05DF90020694600F06CF91CBC5DF8B6
:1003B00014FB0000E90200002DE9F0410E4604465E
:1003C000002020622046E168884730B3252805D008
:1003D000D4E901219047206A401CF2E7E1682046F9
:1003E00000278847050018D0A5F14100192802D838
:1003F00020354FF400673246294620462760FFF734
:10040000FDFE40B1012804D0F61D26F0070608368F
:10041000D8E7361DD6E72846DAE7206ABDE8F0813E
:100420002DE9F0410646002410687529314616A5CD
:1004300010D0AFF30080002802DA404213A507E095
:1004400031688A0701D512A502E0490704D511A534
:10045000012401E0AFF3008000210A2206F1240705
:1004600009E0B0FBF2FCB0FBF2F302FB1C00303001
:1004700078541846491C0028F3D123462A463046B2
:10048000BDE8F04100F08DB8000000002D00000034
:100490002B0000002000000070B504460D462146E8
:1004A0001068AFF300802188090502D50F4A7A440D
:1004B00002E00E4A7A440E32002104F1240305E0E2
:1004C00000F00F060009965D5E54491C0028F7D124
:1004D00020780023000704D5702D02D009B1022333
:1004E00011322046BDE8704000F05BB86644000061
:1004F00010B5044603E003F057FE401C09D014F881
:10050000010B05490028F6D1BDE810400A2003F090
:100510004BBE4FF0FF3010BD6C000020000000000B
:1005200030B44FF0013C50F8042B51F8043BCCFAA6
:1005300052F4D51A20D1FCB950F8042B51F8043BE1
:10054000CCFA52F4D51A17D1B4B950F8042B51F89B
:10055000043BCCFA52F4D51A0ED16CB950F8042BE6
:1005600051F8043BCCFA52F4D51A05D1002CDAD05C
:1005700030BC4FF00000704729BAB1FA81F111F098
:100580001801D1F120008440F2D1CA40CB4012F0D2
:10059000FF0213F0FF0330BCD01A7047704770475A
:1005A00070472DE9F0470D4699469246044600F102
:1005B00024080168880604D5E06921F01001216053
:1005C00000E00120A84201DD471B00E00027A169EF
:1005D0007A1902EB0900081AA0612078C00602D43B
:1005E0002046AFF30080002608E0D4E901211AF884
:1005F00006009047206A401C761C20624E45F4DBC2
:100600002078C0060AD52046AFF3008006E0D4E982
:10061000012130209047206A401C2062381EA7F13B
:100620000107F4DC07E0D4E9012118F80500904740
:10063000206A401C2062281EA5F10105F3DC20463B
:10064000AFF300802078000602D50220BDE8F087D5
:100650000120FBE701694A1C02610878704700B578
:100660008FB0CDE901310021059105497944CDE9EB
:10067000031011466846FFF79FFE0FB000BD000053
:10068000E5FFFFFF0A6802F8010B0A6070470000EF
:10069000074B70B50D467B44FFF7E1FF0446284643
:1006A00000F008F810B14FF0FF3070BD204670BD6B
:1006B0000F3B0000007B00F08000704710B54248FF
:1006C000542100F0B5F94148542100F0B1F94048F7
:1006D000542100F0ADF93F493B483C4A3F4B08608C
:1006E0003D490A603A491960531C0365481C10656E
:1006F000012008653B48344A39A1784400F0EAF803
:1007000020B9384878440A3800F08BF937482F4A26
:1007100035A1784400F0DEF820B9344878440A382E
:1007200000F07FF932482A4A2FA1784400F0D2F82D
:1007300020B92F4878440A3800F073F94023224842
:10074000DC000021224600F0A1F820B125487844C1
:10075000543800F066F91D4822464023002100F07D
:1007600095F820B121487844543800F05AF91848D7
:1007700022461023002100F089F8002806D01C48EA
:100780007844BDE81040563800F04BB910BD104811
:1007900070B5006D20F001040B4800F013F90B4810
:1007A00000F010F90A4800F00DF909E0206D20F082
:1007B0000105204600F006F9204600F040F82C46DE
:1007C000002CF3D170BD0000180000206C00002048
:1007D000C0000020000000200400002008000020CD
:1007E00072000000734200007700000062420000C7
:1007F0003B420000754600F043F9AE4605006946ED
:10080000534620F00700854618B020B5FFF72AFDB3
:10081000BDE820404FF000064FF000074FF0000801
:100820004FF0000BAC46ACE8C009ACE8C009ACE83E
:10083000C009ACE8C00921F007018D46704770B5CA
:100840000446051F00F020F90068002C14BF44681E
:1008500070BD002C18BFAC423CBF20466468F8D382
:1008600001680A18AA4218BF456003D12A680546E4
:100870001144016028684119A1421CBF6C6070BD21
:100880006168696021680844286070BD70B5C468FB
:10089000A50713D0650211D4B2F5807F09D0B2F557
:1008A000007F06D0B2F5806F08D1012300F124014A
:1008B00006E05D1E6FF07F46B54201D3012070BD9A
:1008C0000161C361416024F470611143C160002083
:1008D00070BD00002DE9F0410C461646070047D0D8
:1008E000104600F06FF82078611C61280AD0722849
:1008F00002D077283CD102E00125002405E0022542
:10090000042402E0082448F2020511F8010B2B2808
:1009100006D0622809D011F8010C74280AD00BE027
:1009200045F0030544F00204EFE745F0040544F008
:100930000104EAE744F010043846214602F042FD83
:10094000411C15D00021316171604FF40071F560D8
:10095000F1617061200704D530460222002100F0C9
:100960000DF9306D40F0010030653046BDE8F08192
:100970000020FBE72DE9F0410D460646104C206DA6
:10098000C10704D0410804D020F00104F7E7224653
:100990000EE0542000F0C3F807000ED0206D47F0A1
:1009A0000101084354212065384600F041F83A46D9
:1009B00029463046BDE8F0418CE70020D6E700002C
:1009C000180000202DE9F04704464FF0FF380026BC
:1009D000C568D4E90497A80718D0204600F08AF922
:1009E000384602F0DBFC002800DA4646280502D52E
:1009F0004846FFF724FF4C21204600F019F8206DEF
:100A000020F0010020653046BDE8F0874046FBE756
:100A100010B50446AFF300802046BDE81040FFF754
:100A20000CBC10B500F0B0F9BDE8104000F0A6B95C
:100A30004FF0000200B5134694469646203922BF77
:100A4000A0E80C50A0E80C50B1F12001BFF4F7AFC2
:100A5000090728BFA0E80C5048BF0CC05DF804EBA4
:100A6000890028BF40F8042B08BF704748BF20F812
:100A7000022B11F0804F18BF00F8012B70470000C7
:100A80000048704714010020004870471C010020F6
:100A9000704770477047704738B504460A460020D3
:100AA0006946AFF30080002808BF38BD02460099B0
:100AB000204600F090F9012038BD012000F0DFB998
:100AC000F8B5AFF30080054600200C46102000BFAB
:100AD0000646A819A0420DD9324669460020AFF358
:100AE0000080070008BF00F0CAF90098A04218BFB4
:100AF0000546C419FFF7C8FF05600746F01D20F042
:100B000007004619284600F05FF9B44208BFF8BD57
:100B1000A21B31463868BDE8F84000F05CB970B5FA
:100B20000646FFF7B1FF056806F10B0020F0070449
:100B3000B4429CBF002070BD2B466A68BAB11068F1
:100B4000A04210D304F1080188423CBF50685860AD
:100B500007D35168101941601168091B0160586082
:100B60001460101D70BD13465268002AE7D121465B
:100B70002846FFF791FF0028DED170BD2DE9F04136
:100B8000044616460D464769007B80072ED038463E
:100B900002F010FC50BB3EB3012E02D0022E25D134
:100BA00004E0204600F031F905441DE0384602F02B
:100BB000FFFBE168002841F01001E16005DA204602
:100BC00000F058F80120BDE8F081C9030BD5626838
:100BD000E16A914200D81146A26911442269891A3A
:100BE000814200DD08460544002D01DA0220EAE7D3
:100BF000E16A6068E268814206D29103E06203D54F
:100C000022F4003141F01002A6690027AE4213DC45
:100C1000E16A814201D90B4600E0034603EB060C72
:100C20002369ACEB030CAC4506DD814201D98C464F
:100C300000E084469C4505D1A760276042F0200073
:100C4000A5620DE0AD1BE669AE1B8142A66000D92E
:100C50000846C01A281A20605819606022F0200047
:100C600003490840E060002084F84870ABE70000CA
:100C7000BFCFD7FFC16821F4001141F08001C160EE
:100C800000218160016070472DE9F74F15460C4641
:100C90004FF0FF3B3848D768D2F814A0074209D07C
:100CA0005046A96902F0C0FB002819DB3248C04356
:100CB0000740EF604FF000496FF000484C4501D30A
:100CC000464600E0264600993B465046324602F032
:100CD000AFFBA96920F00042B21A1144A96128B102
:100CE0002846FFF7C7FF5846BDE8FE8FA41BE5D195
:100CF0000020F9E770B504460569C06A616888425A
:100D000000D80846E16821F42011E160C90312D53A
:100D1000A84208D02246411B2846FFF7B5FF10B174
:100D20004FF0FF3070BD0020E562C4E90150E0687B
:100D300020F48030E060002070BD10B50446C0682B
:100D400020F02000E060A16AA06988420DD0204612
:100D5000FFF7D0FFE06820F4405040F01000E06062
:100D6000A06AA0612069E062606044F24001E0682E
:100D70008843E06010BD000010000200002801D090
:100D800000F01CB87047000010B5014602A000F04A
:100D90005DF8012010BD00005349475254524544AC
:100DA0003A2052656469726563743A2063616E2704
:100DB00074206F70656E3A20000000000149182011
:100DC000ABBEFEE72600020000210160C0E9011071
:100DD000704710207047034640688C46002818BFB3
:100DE00088423CBF03464068F8D3186818448842DC
:100DF00007D00CF1030020F00700001D411A521A21
:100E00000146081D0A60FFF71ABD10B50146C26809
:100E1000900703D0900607D5886A0AE000F03EF8F4
:100E200001210160881E10BD8B69486818440B6958
:100E3000C01A91F848301BB191F84910401A10BD02
:100E40001103FCD50028FADD401E10BD70B5054623
:100E50000C460A2000E06D1C00F018F835B1287827
:100E60000028F8D102E0641C00F010F814B12078DA
:100E70000028F8D1BDE870400A2000F007B810B58E
:100E800000F010F8BDE81040FFF778BF08B56946DC
:100E90008DF800000320ABBE08BD704700487047C6
:100EA0001401002010B5012805D0002103A0FFF790
:100EB000CDFF012010BD09A1F8E7000053494752BA
:100EC000544D454D3A204F7574206F66206865611A
:100ED00070206D656D6F7279000000003A204865E2
:100EE0006170206D656D6F727920636F72727570BD
:100EF00074656400FEE7000070470000EFF31080A7
:100F000072B600BFFEE70000F0B590F83C20012A61
:100F100004BF0220F0BDD1F800C00122BCF10A0FCD
:100F200080F83C200CD31FFA8CFE4FEA4E02036877
:100F300012FA8CF2A2F11E0403F10C0206E000BFCB
:100F400003680CEB4C0403F11002E6460725166813
:100F5000A54026EA050515608D68166805FA04F4B3
:100F6000344314609A6B002622F440129A634D6851
:100F70000A698C69CFF6F0769F6B06EB0256AA1AC7
:100F80003E4303329E63D6B2B60056FA82F21F2663
:100F90009F6B964027EA06069E639E6B0EFA02F24E
:100FA00032439A639A68012722F470229A609A6801
:100FB000C0F20F07BC4203D122F440140AE000BF84
:100FC00022439A609A6822F440129A60CA699F6824
:100FD00047EA02049C600A7D4F7D5E68002F26F47C
:100FE000806618BF06F580665E605F68002A27F499
:100FF000805718BF07F58057032D5F6008D0022D7A
:101000000AD0012D14BF03F1200203F1140205E000
:1010100003F11C0202E000BF03F11802176840F65A
:10102000FF76B7431760CF68166842F20431C4F206
:1010300001013743A1F54176B342176004D0002186
:1010400080F83C100846F0BDBCF1120F02D14FF4FD
:10105000800205E02CF00102102AF0D14FF40002CA
:101060000B681A430A60002180F83C100846F0BD66
:1010700070B581B00022009290F83C20012A03D183
:101080000221084601B070BD0E6801220A2E80F8C8
:101090003C2009D3B2B25200D0F800E012FA86F236
:1010A0001E3A0EF10C0305E0D0F800E006EB460214
:1010B0000EF110034FF0070C1D680CFA02F4A54363
:1010C0001D608D681C6805FA02F222431A604968A7
:1010D00006290FD801EB81014A1F71461F2351F8E1
:1010E000345F934025EA03030B60B3B203FA02F2C4
:1010F00014E000BF01EB81030C29B2B204D87146A1
:1011000051F8304F233B03E0714651F82C4F413BDF
:101110001F259D4024EA05059A400D600B6842F2A8
:10112000043CC4F2010C1A43ACF541739E450A60BD
:101130003BD1122E06D1DCF8001041F48001CCF82E
:10114000001032E026F0010110292ED1DCF8001049
:10115000102E41F40001CCF8001026D140F2140109
:10116000C2F2000109684DF68362C4F21B32A1FB92
:101170000212910C01EB8101490000910099A1B18B
:10118000009901390091009979B1009901390091D4
:10119000009951B1009901390091009929B1009944
:1011A0000139009100990029EAD1002180F83C1012
:1011B000084601B070BD0000002804BF0120704740
:1011C00010B50446006C00283ED0206CC00645D403
:1011D000206C41F202118843023042F20431206453
:1011E000C4F20101086820F4403008600A6894E8FD
:1011F00009101A43D4F810E00A604168012321F471
:10120000807141604168C0F6007341EA0E2141607F
:10121000416821F040714160416841EA0C01416040
:10122000816821F400618160E16882681143816016
:10123000A16A8268994222F070628260826813D14A
:1012400022F0405119E000BF204600F065F8002070
:10125000606484F83C00206CC006B9D501200021F0
:1012600084F83C1010BD00BF11438160816821F0FB
:1012700040518160E16A826811438160816821F098
:10128000020181608168227E94F8203041EA4201A7
:101290008160416883B141F40061416041684EF270
:1012A000000221F460414160616ACFF6FF72436839
:1012B00002EB4131194301E021F400614160C16A50
:1012C00040F2000C21F47001C162E2696169CFF65D
:1012D000F07CC36A0CEB02521A43C262826822F4A9
:1012E0000072826094F83020836843EA4222826070
:1012F000826822F480628260826842EA8121816091
:1013000000206064216C012262F30101216400214C
:1013100084F83C1010BD000081B0006842F200016A
:10132000C4F20101884201D001B070470020009052
:1013300043F64400C4F20200016841F48071016088
:10134000006800F480700090009801B070470000C1
:10135000B0B5044600F0F0F8054640F20C00C2F2C9
:1013600000000078611C18BF044400BF00F0E4F8DE
:10137000401BA042FAD3B0BD2DE9F04F82B000F17E
:101380003E4241F6004502F1FF77C4F20205082211
:1013900043F6004E4FEAB726A84208BF0722C4F220
:1013A000010E072E38BF4FEAB7220125002600277D
:1013B0004FF00008009208E008F101080437B8F186
:1013C000100F06F1020600F0A7800C6805FA08F974
:1013D00014EA090FF0D0D1F804B003220BF0030C8B
:1013E000ACF10104B240012C6FEA020A10D8826805
:1013F000CC6802EA0A02B440224382604268CBF31E
:10140000001422EA090204FA08F42243426005E0CB
:10141000BCF1030F02D14FF0030C20E0C2688C68CE
:1014200002EA0A02B4402243BCF1020FC26016D1A4
:101430006FF0030202EA58020244D2F820C007F01B
:101440001C050F230C69AB402CEA030304FA05F5D5
:101450002B431362D1F804B001250BF0030C026892
:101460000CFA06F302EA0A021A431BF4403F026038
:10147000A2D0002243F644030192C4F202031A6888
:101480004FF6084C42F480421A601A68CFF6FF7C8F
:1014900002F480420192019A28F00302724452F849
:1014A0000C3007F00C050F24AC40A343009C04FA59
:1014B00005F52B4342F80C30DEF808204B6842EA71
:1014C000090543F60C4CDC0258BF22EA0905CEF8A8
:1014D0000850C4F2010CDCF800209C0242EA090525
:1014E00058BF22EA0905CCF80050DEF804209C031E
:1014F00042EA090558BF22EA0905CEF80450DEF891
:101500000020DB0342EA090558BF22EA0905CEF8AC
:101510000050012550E700BF02B0BDE8F08F000089
:101520000069084018BF012070470000002A08BF6A
:10153000090481617047000040F22030C2F20000CF
:101540000068704770B5B8B3044690F83D0028B9FC
:10155000002084F83C00204600F0A4FC242084F8FD
:101560003D002068016821F001010160016841F43B
:1015700000410160016821F40041016000F054FE67
:1015800048F28041C0F21E0140F60013D4F804E096
:1015900088424FF00001C0F23D0348F2A16C4FF0C9
:1015A000000238BF01219842C0F2010C38BF01226D
:1015B000E64538BF0A460AB1012070BD4DF6836189
:1015C000C4F21B31A0FB01122168950C4B684FF44B
:1015D000967623F03F0343EA9243754344F6D3568D
:1015E0004B60C1F262060B6AA5FB0656B50923F0F3
:1015F0003F03E64538BF950C6A1C1A430A62CA6964
:1016000048F2A0664CF6FF73C0F20106B64522EA26
:1016100003020BD801384FEA4E03B0FBF3F0013060
:101620006FF31F30042898BF04201EE0A368013820
:1016300063B119230EFB03F3B0FBF3F001306FF33A
:101640001F3078B100F5804008E000BF0EEB4E037C
:10165000B0FBF3F001306FF31F3028B100F500400C
:1016600003E000BF012000E001201043C8610868CA
:10167000D4E9072320F0C0001043184308608868AD
:1016800048F2FF3204F10C0690434CCE184310434D
:10169000A5698860C86820F0FF0030432843C8600F
:1016A000086840F00100086000202021206484F8D0
:1016B0003D10206384F83E0070BD00002DE9F0432A
:1016C00081B01F46164688460446FFF735FF94F85A
:1016D0003D10202920D1054620688169890717D54A
:1016E000FFF72AFF401B1928F6D90020202120638C
:1016F00084F83D1084F83E00216C022641F0200160
:10170000216484F83C00304601B0BDE8F08300BF9E
:1017100094F83C10012905D10226304601B0BDE8FD
:10172000F08300BF012184F83C100168C90703D190
:10173000016841F001010160016821F4006101606C
:10174000212184F83D10102184F83E1000212164ED
:1017500066626785618D21850021CFF6FF71E162A8
:10176000E16A11F5803F18BF012919D1016841F4E0
:10177000807101604169DDF82090C90723D119F11A
:10178000010116D0B9F1000F46D000BFFFF7D4FE1B
:10179000401B484542D820684169C907F6D012E08D
:1017A0000829E3D0216B1229E0D0E3E74169C9079A
:1017B00009D14169C90706D14169C90704BF416917
:1017C0005FEAC171F2D02169B1F5804F02D1FE21EB
:1017D00061E000BF062101EAD811F03101614169E1
:1017E000090757D4416919F1010201F480612FD032
:1017F000002946D1B9F1000F00F04281FFF79CFEAD
:10180000401B484500F23E8120684169090741D4E8
:1018100041694905F2D534E0FFF78EFE0020202112
:10182000206384F83D1084F83E00216C012641F0CD
:1018300020012164216884F83C000868C00544BF89
:101840004FF400702064304601B0BDE8F08300BF63
:10185000B9B9416909071DD44169490511D44169E4
:10186000090717D4416949050BD44169090711D407
:101870004169490505D4416909070BD44169490506
:10188000E7D5016841F4007101606FF48061416146
:101890000420F8E0FF2101EA08010161416989079C
:1018A0003AD4416919F1010201F4806112D051BBAF
:1018B000B9F1000F00F0E080FFF73EFE401B484505
:1018C00000F2DC8020684169890725D44169490517
:1018D000F2D518E0B9B9416989071DD441694905B4
:1018E00011D44169890717D4416949050BD441696D
:1018F000890711D44169490505D4416989070BD489
:1019000041694905E7D5016841F4007101606FF450
:10191000806141610420B6E0002600964169009193
:10192000816900910099218D002900F0958009F1CD
:101930000108014651F8142F120635D4B8F1000FF2
:1019400016D0B9F1000F00F0AF8000BF0868400565
:1019500000F1B280FFF7F0FD401B484500F2A9807E
:101960002068014651F8142F1206EFD51CE000BF85
:101970000A68520500F1A0800A68120614D40A68A9
:10198000520500F199800A6812060DD40A685205C2
:1019900000F192800A68120606D40A68520500F126
:1019A0008B800A681206E3D5636A194611F8012B89
:1019B00002616162618D01396185278D0146A7F160
:1019C000010CA4F828C051F8142F52070DD55FEA76
:1019D0000C420AD05A78A7F1020C02619A1C62628A
:1019E000628D013A6285A4F828C00A6852072FD494
:1019F000B8F1000F14D0B9F1000F7BD00868400592
:101A000000F18080FFF798FD401B484577D820689B
:101A1000014651F8142F5207F0D5B4F828C017E04A
:101A20000A6852056ED40A68520711D40A68520532
:101A300068D40A6852070BD40A68520562D40A684F
:101A4000520705D40A6852055CD40A685207E7D5E4
:101A50005FEA0C417FF46DAF016841F400710160F1
:101A6000202084F83D0084F83E6084F83C603046D5
:101A700001B0BDE8F08300BFFFF75EFD202002E06B
:101A8000FFF75AFD202000212022216384F83D2009
:101A900084F83E10226C01261043206484F83C1028
:101AA000304601B0BDE8F0830868400504D4FFF774
:101AB00043FD202004E000BF6FF480600860042034
:101AC00000212022216384F83D2084F83E10226CFE
:101AD0001043206484F83C10206C042825D1206831
:101AE0000126016841F400710160304601B0BDE893
:101AF000F08300BF0868400504D4FFF71DFD2020D7
:101B000004E000BF6FF48060086004200021202200
:101B1000216384F83D2084F83E10226C1043206439
:101B200084F83C10206C0428D9D00126304601B03E
:101B3000BDE8F0832DE9F04784B0984617460E467D
:101B40000446FFF7F9FC94F83D10202923D10546FF
:101B500020688169890719D5FFF7EEFC401B192819
:101B6000F6D900202021206384F83D1084F83E003F
:101B7000206C04F13C0940F0200020640220002188
:101B800089F8001004B0BDE8F08700BFA14619F83D
:101B90003C1F012904D1022004B0BDE8F08700BF3A
:101BA000012289F800200368DDE90D1A0C9ADB0791
:101BB00003D1036843F001030360036823F4006367
:101BC0000360222084F83D00402084F83E0000207D
:101BD000206462626185608D314620850020CFF6E9
:101BE000FF70E06220463A464346CDF800A00195DA
:101BF00000F0F4FE20B1012004B0BDE8F08700BF82
:101C0000208DA8B102282BD0012835D121680A687F
:101C100022F480620A60002203924A6903928A6970
:101C20000392039A0A6842F400720A602CE000BF33
:101C30000020039020684169039181690391039911
:101C4000016841F400710160202084F83D0000200B
:101C500084F83E00002189F8001004B0BDE8F08748
:101C600021680A6822F480620A600A6842F400620D
:101C70000A600022039202E00021039121684A6970
:101C800003928969039103990AF1010680B203283E
:101C900018D8022842D0012856D1BAF1000F00F01E
:101CA000AB802068014651F8142F520600F1A8803D
:101CB0000868C00600F1E280FFF73EFC401B50457B
:101CC000EFD9D0E0BAF1000F10D000BF2068014674
:101CD00051F8142F52060ED40868C00600F1CE80C9
:101CE000FFF72AFC401B5045F0D9BCE02068416951
:101CF000490640F1B1800069616A0870606A226833
:101D0000411C208D616201382085638D013B638514
:101D100053695B0740F18080106973E02068416976
:101D2000490747D4002E59D0BAF1000F00F099802E
:101D3000FFF702FC401B504500F295802068416986
:101D40004907F5D536E000BF2068416949070FD43F
:101D5000002E65D0BAF1000F00F08380FFF7ECFB96
:101D6000401B504500F27F80206841694907F5D546
:101D7000016821F4806101600069616A0870606A2D
:101D8000218D01300139606221852068618D013922
:101D90006185416949070DD4002E4FD0BAF1000F7B
:101DA0005FD0FFF7C9FB401B50455CD820684169F4
:101DB0004907F6D5016841F4007101600069616A64
:101DC0000870606A2268411C6162218D0139218599
:101DD000618D013961851169417014E041694907DC
:101DE000E8D4416949075CBF41695FEA4171E1D4C8
:101DF00041694907F2D5DDE72068416949062BD5DD
:101E00000069616A0870606A218D01306062481E55
:101E10002085618D0139618501047FF437AF13E7B7
:101E200041694907A4D4416949075CBF41695FEA38
:101E300041719DD441694907F2D599E74169490744
:101E4000B8D4416949075CBF41695FEA4171B1D4C7
:101E500041694907F2D5ADE750F8141FC90601469C
:101E60000CD4FFF769FB00202021206384F83D108B
:101E700084F83E00206C40F020000AE06FF0100073
:101E8000086000202021206384F83D1084F83E0083
:101E9000206C20640120002189F8001004B0BDE806
:101EA000F0870000B0B586B0006845F60001C4F2C6
:101EB000000100248842CDE90444CDE902440194A4
:101EC00030D045F20041C4F20001884253D10024D1
:101ED00043F630050094C4F20205286801A940F0D9
:101EE00002002860286800F0020000900098C020DE
:101EF00001901220CDE902040320049004200590F3
:101F000040F20040C4F20200FFF736FA009428695C
:101F100040F400102861286900F400100090009837
:101F200006B0B0BD43F630050094C4F2020528683F
:101F300001A940F002002860286800F0020000902B
:101F400000984FF4406001901220CDE90204032074
:101F500004900420059040F20040C4F20200FFF714
:101F60000BFA0094286940F480002861286900F485
:101F700080000090009806B0B0BD000040F20C0058
:101F800040F22031C2F20000C2F2000100780A687B
:101F9000104408607047000080B543F60040C4F26A
:101FA0000200016841F400710160016841F4806140
:101FB0000160016841F480710160032000F074F851
:101FC0000F2000F005F800F027F8002080BD000089
:101FD00070B540F20C06C2F2000640F214013278ED
:101FE000C2F200014FF47A730968B3FBF2F20446BF
:101FF000B1FBF2F1084600F02FFB0F2C4FF001056A
:1020000008D838B94FF0FF3021460022002500F0F3
:102010001FF87460284670BD82B0002043F640016E
:102020000190C4F202014A6842F480424A604A6860
:1020300002F480420192019A0090086840F08050BA
:102040000860086800F080500090009802B0704767
:1020500010B54EF60C5CCEF2000CDCF80030C3F389
:10206000022E8EF00704042C28BF0424BEF10303C3
:102070004FF0FF3E0EFA04F438BF0023A14399400D
:102080000EFA03F39A43114300F00F0200F160438C
:102090000901043A03F564436244002848BF02F191
:1020A0000C03197010BD00004EF60C51CEF2000169
:1020B0000A684FF6FF031A4060F30A2242F080607C
:1020C00040F0FD70086070472DE9F041002800F0F5
:1020D0008B8043F60808C4F202080446D8F8F803D7
:1020E0000D4600F00700884207D288F8F853D8F868
:1020F000F80300F00700A84276D12068810717D5C1
:10210000410705D5D8F8001041F4E051C8F8001097
:10211000010705D5D8F8001041F46041C8F8001057
:10212000D8F80010A26821F0F0011143C8F800109F
:10213000C0073FD1D8F8F80300F00700A84207D93C
:1021400088F8F853D8F8F80300F00700A8424BD1FC
:102150002068410707D5D8F80010E26821F4E05163
:102160001143C8F80010000708D5D8F8000021690D
:1021700020F4604040EAC100C8F8000000F07CF89C
:10218000D8F8001044F65112C1F30311C0F6000252
:10219000515C40F2140220FA01F140F21000C2F248
:1021A00000000068C2F200021160FFF711FF00207A
:1021B000BDE8F0816068811E022907D258F8081C2A
:1021C00089015CBF0120BDE8F08111E0012807D141
:1021D00058F8081C89035CBF0120BDE8F08107E0C6
:1021E00058F8081C890703D40120BDE8F08100BF1E
:1021F000D8F8001021F003010843C8F80000FFF7E9
:102200009BF9064641F28837D8F80000616800F073
:102210000C00B0EB810F8DD0FFF78EF9801BB84218
:10222000F2D90320BDE8F08140F2140043F6080122
:10223000C2F20000C4F202010068096844F66112AB
:10224000C1F38221C0F60002515CC8407047000013
:1022500040F2140043F60801C2F20000C4F2020189
:102260000068096844F66112C1F34231C0F6000209
:10227000515CC8407047000010B543F60404C4F236
:102280000204606800F00C0142F200400829C0F22C
:10229000F40007D0042918BF10BD41F20020C0F29D
:1022A0007A0010BD216801F03F02216823684902CD
:1022B000C3F3881106D4A1FB00010023FDF7E4FF5E
:1022C00007E000BF41F20020C0F27A004843B0FBB3
:1022D000F2F021680222C1F3014102EB4101B0FB9F
:1022E000F1F010BD2DE9F04182B0002868D004461D
:1022F000007843F60006C007C4F202060BD0B068AF
:1023000000F00C00042840F09F803068800302D564
:102310006068002854D0207880071AD5B06810F083
:102320000C0F09D0B06800F00C00082840F0A6801F
:102330007068400200F1A2803068800702D5E06832
:1023400001283DD13068216920F0F80040EAC10041
:1023500030602078000737D4207840074CD4A56936
:1023600055B3B06800F00C00082840F0BB80012D88
:1023700026D07068E16900F480028A4220D1216A87
:1023800000F03F028A421BD147F6C071626A0140E9
:10239000B1EB821F14D1A16A4FF6FF73C9039943B1
:1023A00000F44032A1F580318A4209D1E16A00F09F
:1023B0007060B0EB016F03D1002002B0BDE8F08186
:1023C000012002B0BDE8F0816069002840F2000001
:1023D000C4F2472076D00121C0F8801EFFF7ACF888
:1023E000054600BF706F8007B6D4FFF7A5F8401B05
:1023F0000228F7D9DDE000BF306C10F080580AD118
:1024000000200190306C40F080503064306C00F05F
:1024100080500190019847F20007C4F20007386825
:10242000C00541D4386840F480703860FFF784F804
:10243000054600BF3868C00536D4FFF77DF8401B5D
:102440000228F7D9B5E000BFB06800F00C000828FA
:1024500003D1706840023FF558AF6068B0F5803F27
:1024600007D0B0F5A02F40F08D80306840F4802078
:102470003060306840F4803030608DE0E0680028E3
:1024800052D00020C4F2472001210160FFF754F828
:10249000054600BF306880073FF554AFFFF74CF8A2
:1024A000401B0228F6D984E0A068012805D0052841
:1024B0004ED1306F40F004003067306F40F00100C3
:1024C00030674FE00021C0F8801EFFF735F8054661
:1024D000706F80077FF540AFFFF72EF8401B022892
:1024E000F6D966E00027C4F2472700203866FFF7D8
:1024F00023F8022D05460BD1306880015ED5FFF729
:102500001BF8401B02284FF00300F5D955E700BF28
:10251000306880017FF550AFFFF70EF8401B0228AE
:102520004FF00300F4D948E70020C4F2472000210F
:102530000160FFF701F80546306880077FF509AFB5
:10254000FEF7FAFF401B02284FF00300F4D934E7EE
:10255000316F002821F001013167316F21F0040152
:1025600031674DD0FEF7E8FF054641F2883700BFDE
:10257000306F800756D4FEF7DFFF401BB842F7D913
:1025800017E000BF3168002821F4803131603168E4
:1025900021F4802131604FD0FEF7CEFF054600BF09
:1025A000306880033FF5B7AEFEF7C6FF401B6428D6
:1025B000F6D9032002B0BDE8F08100BF04F11C058C
:1025C0002FCD084340EA8210D9034FF6FF729143A2
:1025D000A1F5803140EA056008437060012038664B
:1025E000FEF7AAFF044600BF306880013FF5E4AE65
:1025F000FEF7A2FF001B02284FF00300F4D9DCE62F
:10260000FEF79AFF054641F2883700BF306F80071A
:1026100008D5FEF791FF401BB8424FF00300F5D9F3
:10262000CBE600BFB8F1000F7FF499AE306C20F01C
:102630008050306493E600BFFEF77EFF054600BF82
:10264000306880037FF567AEFEF776FF401B642895
:102650004FF00300F4D9B0E6411E0020B0EB116F3B
:102660001CBF012070474EF21002CEF200025160F2
:102670004EF62351CEF20001F0230B70072190603B
:1026800011607047002804BF0120704710B5044650
:1026900090F83D0028B9002084F83C00204600F066
:1026A00021F8242084F83D002068C16821F40051FD
:1026B000C160204600F0F8FD2068016921F49041D6
:1026C0000161416921F02A014161C16841F4005171
:1026D000C16000202021206484F83D1084F83E1061
:1026E00010BD000080B586B0016844F20040C4F21D
:1026F0000000814202D006B080BD00BF002143F639
:1027000030020191C4F20202136900F5DE3043F495
:1027100000331361136903F400330193019B0191AA
:10272000136843F001031360126802F00102019282
:10273000019A0C2201920222CDE902210321049187
:102740000721059101A9FEF717FE06B080BD000024
:102750002DE9F04381B0044690F83D0020280DD1CA
:102760000F4600294FF0010000F0DD801646002AD8
:1027700000F0D98094F83C00012803D1022001B078
:10278000BDE8F083012084F83C0000202064212073
:102790001D4684F83D00FEF7CFFEA684E684A168BE
:1027A0000646B1F5805F03D12069002800F0108152
:1027B000B8460027002084F83C00E18C20680029FE
:1027C00000F0908005F101090DE000BFB8F1000FA5
:1027D00028D018F8011B4160E18C0139E184E18CBB
:1027E000002900F07F8001680906EFD4B9F1000FDD
:1027F0000AD0FDB1FEF7A0FE801BA8421AD82068BF
:1028000001680906F6D5E1E701680906DED401682A
:1028100009065CBF01685FEA0161D7D40168090657
:10282000F2D5D3E737F8021B4FF000086FF35F21B2
:10283000D1E700BF206850E8030F216820F4D07072
:1028400041E80302BAB3206850E8030F216820F47E
:10285000D07041E8030272B3206850E8030F21688A
:1028600020F4D07041E803022AB3206850E8030F37
:10287000216820F4D07041E80302002ADAD11AE07E
:10288000206850E8050F216820F0010041E80502AA
:10289000DAB1206850E8050F216820F0010041E816
:1028A000050292B1206850E8050F216820F0010070
:1028B00041E805024AB1206850E8050F216820F080
:1028C000010041E80502002ADAD1202084F83D0009
:1028D00084F83E00002084F83C00032001B0BDE8ED
:1028E000F08300BF0168490619D4FDB1691C0DD100
:1028F0000168490613D4016849065CBF01685FEAB4
:1029000041610CD401684906F2D508E0FEF714FED7
:10291000801BA8420AD8206800684006F6D520200F
:1029200084F83D00002001B0BDE8F083206850E845
:10293000030F216820F4D07041E80302E2B320685D
:1029400050E8030F216820F4D07041E803029AB3E5
:10295000206850E8030F216820F4D07041E803029A
:1029600052B3206850E8030F216820F4D07041E88A
:102970000302002ADAD11FE0206850E8050F216821
:1029800020F0010041E80502002A9ED0206850E8AE
:10299000050F216820F0010041E80502002A3FF4FC
:1029A00094AF206850E8050F216820F0010041E84D
:1029B0000502002A3FF489AF206850E8050F21681E
:1029C00020F0010041E80502002AD5D17DE700BFD3
:1029D0004FF00008EEE60000FEE700002DE9F043AE
:1029E00083B00446006899460368904643F48062C9
:1029F000026002680B9D42F48072026042690A9E86
:102A0000D2070F461DD1711C11D0002E00F0368167
:102A1000FEF792FD401BB04200F23281206841690E
:102A2000C907F5D00DE000BF4169C90709D1416967
:102A3000C90706D14169C90704BF41695FEAC1718D
:102A4000F2D007F0FE0707614169890738D4416970
:102A5000721C01F4806111D049BB002E00F03A8154
:102A6000FEF76AFD401BB04200F2368120684169E2
:102A7000890725D441694905F2D518E0B9B94169FA
:102A800089071DD44169490511D44169890717D4C3
:102A9000416949050BD44169890711D44169490548
:102AA00005D4416989070BD441694905E7D5016817
:102AB00041F4007101606FF48061416104200CE118
:102AC00000210291014651F8142F02924A680292A5
:102AD000029A0A68120620D4002E00F0AB80721C05
:102AE00051D10A68520500F1AD800A68120614D46B
:102AF0000A68520500F1A6800A6812060DD40A6819
:102B0000520500F19F800A68120606D40A68520531
:102B100000F198800A681206E3D5B9F1010F45D09B
:102B20004FEA18210161014651F8142F12063DD4D5
:102B3000002E00F07F80721C2AD10A68520500F135
:102B400081800A68120631D40A6852057AD40A686C
:102B500012062BD40A68520574D40A68120625D4CA
:102B60000A6852056ED40A681206E6D51EE000BF58
:102B7000FEF7E2FC401BB04261D82068014651F8E4
:102B8000142F1206C9D408684005F1D55AE000BFD9
:102B90000868400556D4FEF7CFFC401BB0424ED823
:102BA0002068014651F8142F1206F1D55FFA88F11A
:102BB0000161014651F8142F12061AD4D6B3721CC3
:102BC00033D10A6852053DD40A68120611D40A6846
:102BD000520537D40A6812060BD40A68520531D45C
:102BE0000A68120605D40A6852052BD40A68120630
:102BF000E7D50168002241F48071016020464FF062
:102C000001113346009500F079F8002850D0206873
:102C1000006844E0FEF790FC401BB0420FD82068EB
:102C2000014651F8142F1206E3D408684005F1D587
:102C300008E000BF0868400504D4FEF77DFC2020B2
:102C400004E000BF6FF480600860042000212022AF
:102C5000216384F83D2084F83E10226C10432064E8
:102C600084F83C10206C042843D12068016841F4AA
:102C700000710160012003B0BDE8F083FEF75CFC49
:102C800000202021206384F83D1084F83E00216C50
:102C900041F020012164216884F83C000868C005E7
:102CA00044BF4FF400702064032003B0BDE8F083FC
:102CB000206847F0010101610221C0F201012046B4
:102CC00032462B4600F0C2F8002818BF012003B09E
:102CD000BDE8F083FEF730FC202000212022216394
:102CE00084F83D2084F83E10226C1043206484F860
:102CF0003C10012003B0BDE8F08300002DE9F04155
:102D000005461446DDF8188001F47F002A681E4647
:102D1000B0F5803F8FB241D150693840C01BB0FA46
:102D200080F04009A0427BD1701C2DD0002E7BD0BA
:102D3000FEF702FCA0EB0800B04277D82868406993
:102D40003840C01BB0FA80F04009A042F0D000200B
:102D5000BDE8F08150693840C01BB0FA80F04009EE
:102D6000A0425DD150693840C01BB0FA80F04009E4
:102D7000A04255D150693840C01BB0FA80F04009DC
:102D8000A0424FF000005FD150693840C01BB0FA3C
:102D900080F04009A042DDD042E000BF9069384099
:102DA000C01BB0FA80F04009A04239D1701C1FD07E
:102DB000D6B300BFFEF7C0FBA0EB0800B04235D889
:102DC000286880693840C01BB0FA80F04009A042F2
:102DD000F0D00020BDE8F08190693840C01BB0FA07
:102DE00080F04009A0424FF0000018BFBDE8F0811C
:102DF00090693840C01BB0FA80F04009A0420FD162
:102E000090693840C01BB0FA80F04009A04207D159
:102E100090693840C01BB0FA80F04009A042DBD076
:102E20000020BDE8F08100BFFEF786FB00202021D6
:102E3000286385F83D1085F83E00296C41F020019B
:102E4000296485F83C000120BDE8F081F0B581B02F
:102E5000044600681D4643698FB203EA0701B94280
:102E600002D1002001B0F0BD41691646013201F4E3
:102E700080610FD059BB9EB3FEF75EFB401BB04292
:102E800030D8206841693940B942EAD041694905E2
:102E9000F2D51CE0D9B941693940B942E1D0416964
:102EA000490514D441693940B942DAD0416949052C
:102EB0000DD441693940B942D3D04169490506D49E
:102EC00041693940B942CCD041694905E3D501682F
:102ED00041F4007101606FF480614161042002E0FF
:102EE000FEF72AFB202000212022216384F83D20C8
:102EF00084F83E10226C1043206484F83C100120BA
:102F000001B0F0BDB0B58CB040F2E0100123002458
:102F1000C2F2000042F20001C0F60073C4F20101E7
:102F20000125C0E90A3403230B94CDE90644CDE919
:102F30000444CDE90244CDE900444FF480320576E3
:102F400080F82040C36180F8304080E81600C0E976
:102F500003454561FEF730F9002818BFFDF7CEFFA5
:102F600005200A9040F2E010C2F2000008A9CDE965
:102F70000845FEF77DF8002818BFFDF7BFFF1020B9
:102F800008900220099040F2E010C2F2000008A967
:102F9000FEF76EF8002818BFFDF7B0FF112008906B
:102FA0000320099040F2E010C2F2000008A9FEF7E9
:102FB0005FF8002818BFFDF7A1FF10200090012046
:102FC0000190049005200290002001210790C0F29A
:102FD0000F01ADF81400039040F2E0100691C2F228
:102FE00000006946FDF790FF002818BFFDF786FF37
:102FF0000CB0B0BD2DE9F04387B0002743F6300098
:10300000CDE905770197C4F202000168002541F07F
:10301000100101600168C4F2020501F01001019184
:10302000019901970168002241F0040101600168E3
:1030300001F00401019101990197016841F08001BB
:103040000160016801F08001019101990197016817
:1030500041F001010160016801F001010191019954
:103060000197016841F002010160016801F002016D
:10307000019101990197016841F008010160006820
:10308000522100F00800019001982846FEF74EFA00
:103090002846802101224FF00108FEF747FA05F586
:1030A00040642046AA2101224FF0AA09FEF73EFA09
:1030B000182002A902AE81E8810105F58050314651
:1030C000FEF75AF90220049028463146CDE90287DE
:1030D000FEF752F9D220CDE9020828463146CDE963
:1030E0000477FEF749F9552002A981E881012046BD
:1030F0003146FEF741F920463146CDE90298CDE947
:103100000477FEF739F907B0BDE8F08380B540F2E7
:10311000282045F20041C2F20000C4F2000148F24A
:10312000A06200234FF4804CC0F2010280E80E0040
:10313000C0E9033CC0E90533C0E90733FEF702FAF2
:10314000002808BF80BDBDE88040FDF7D7BE000065
:1031500080B540F27C2045F60001C2F20000C4F2C6
:10316000000148F2A06200234FF4804CC0F201023B
:1031700080E80E00C0E9033CC0E90533C0E907332D
:10318000FEF7E0F9002808BF80BDBDE88040FDF7EC
:10319000B5BE000080B540F2D02044F20041C2F23A
:1031A0000000C4F2000100234FF00C0C4FF4E13298
:1031B00080E80E00C0E90333C0E905C3C361FFF72F
:1031C00061FA002808BF80BDBDE88040FDF796BECB
:1031D000FEE70000FEE700007047000070470000B7
:1031E000FEF7CCBEB0B592B0002443F640000B947D
:1031F000CDE90944CDE907440594CDE90344CDE97F
:1032000001440094C4F202000168022541F080519B
:103210000160006800F080500090009847F20000C4
:103220000094C4F20000016841F48041016000682C
:1032300000F48040009000980120099010200A902E
:1032400008200E90A820CDE90F050420119006A8B3
:103250000695CDE90C54FFF745F828B1EFF310803F
:1032600072B600BFFEE700BF0F20CDE901054FF4A5
:10327000A05004904FF48050059001A805210394BC
:10328000FEF722FF20B1EFF3108072B6FEE700BF19
:1032900012B0B0BD4EF68850CEF20000016841F485
:1032A000700101607047000010B504460068D4E961
:1032B00002C22369016921F440511143016162692D
:1032C00043EA0C01E3691143C268194349F20C63F4
:1032D0009A431143C1604169A26921F4407141F2EE
:1032E0000043114340F48062C4F201039A424161F9
:1032F00002D1FEF7ADFF01E0FEF796FFE1696368DA
:103300001922B1F5004FA0FB020123D15A00DB0FB7
:10331000FCF7BAFF48F21F51C5F2EB11A0FB0123E5
:103320005A094FF69C73C0F6FF7303F1805302FBFA
:103330000300322303EBC000A0FB01014FF4F8703F
:1033400000EA111000EB0210C1F342110844216899
:10335000886010BD9A009B0FFCF796FF48F21F5142
:10336000C5F2EB11A0FB01235A094FF69C73C0F67E
:10337000FF7302FB0300322303EB0010A0FB0101EB
:10338000F02000EA511000EB0210C1F34311084491
:103390002168886010BD0000FEE7000048F20401CB
:1033A000411A002011F1030F38BF4FF0FF30704772
:1033B0000020704748F20101411A0020032938BF5C
:1033C0000120704710B518B3044600783A281FD181
:1033D00044F67111C0F600012046FDF7A1F8D8B1FE
:1033E00044F67811C0F600012046FDF799F8B8B10F
:1033F00044F66911C0F600012046FDF791F8014638
:103400004FF0FF30002908BF48F2030010BD00BF95
:103410004FF0FF3010BD00BF48F2010010BD00BFEB
:1034200048F2020010BD00004FF0FF30704700006E
:1034300070B548F2030398422ED048F20203984236
:1034400058D1002A00F0988140F6006CCEF2000CB2
:1034500012F00304A2F1010E50D00B4613F8010B39
:10346000DCF88050ED071CBFDCF800505FEAC57542
:103470004CD1012C704600F08E804878DCF880300A
:10348000DB071CBFDCF800305FEAC37364D1022C99
:1034900073D18B1C901E7EE0002A00F06D8140F6F7
:1034A000006CCEF2000C12F00304A2F1010E29D040
:1034B0000B4613F8010BDCF88050ED071CBFDCF85D
:1034C00000505FEAC57533D1012C704600F0EC80E6
:1034D0004878DCF88030DB071CBFDCF800305FEA9E
:1034E000C37340F0C380022C40F0D1808B1C901E2F
:1034F000DAE000BF4FF0FF3070BD00BF10460B4652
:1035000049E000BF10460B46CEE000BF4FF06045DB
:103510002E6836B92E6826B92E6816B92E68002E88
:10352000F6D04FF060452870012C704633D0A4E7E8
:103530004FF060452E6836B92E6826B92E6816B948
:103540002E68002EF6D04FF060452870012C704692
:1035500000F0AA80BCE700BF4FF060431D6835B99A
:103560001D6825B91D6815B91D68002DF6D04FF0EE
:1035700060431870022C3FF48CAF8878DCF8803000
:10358000DB0701F103031CBFDCF800105FEAC17127
:1035900040F0F480D01EBEF1030F3CBF002070BD90
:1035A0004FF0604107E000BF0A7000BF043803F12C
:1035B000040300F0E1801A78DCF88060F6071CBF95
:1035C000DCF800605FEAC6762CD15A78DCF88060BF
:1035D000F6071CBFDCF800605FEAC6762ED19A7849
:1035E000DCF88060F6071CBFDCF800605FEAC67696
:1035F00030D1DA78DCF88060F6071CBFDCF80060B8
:103600005FEAC676D2D000BF0E68002ECCD10E681D
:10361000002EC9D10E68002EC6D10E68002EF3D040
:10362000C2E700BF0E6836B90E6826B90E6816B933
:103630000E68002EF6D00A70C7E700BF0E6836B9D4
:103640000E6826B90E6816B90E68002EF6D00A70FC
:10365000C5E700BF0E6836B90E6826B90E6816B900
:103660000E68002EF6D00A70C3E700BF4FF060432B
:103670001D6835B91D6825B91D6815B91D68002D6F
:10368000F6D04FF060431870022C3FF42FAF8878CB
:10369000DCF88030DB0701F103031CBFDCF800100D
:1036A0005FEAC1717AD1D01EBEF1030F3CBF00208A
:1036B00070BD4FF0604105E00A7000BF043803F1AF
:1036C000040359D01A78DCF88060F6071CBFDCF8D8
:1036D00000605FEAC6762BD15A78DCF88060F60786
:1036E0001CBFDCF800605FEAC6762DD19A78DCF862
:1036F0008060F6071CBFDCF800605FEAC6762FD159
:10370000DA78DCF88060F6071CBFDCF800605FEA5E
:10371000C676D3D00E68002ECED10E68002ECBD147
:103720000E68002EC8D10E68002EF3D0C4E700BF8B
:103730000E6836B90E6826B90E6816B90E68002EE6
:10374000F6D00A70C8E700BF0E6836B90E6826B911
:103750000E6816B90E68002EF6D00A70C6E700BFD4
:103760000E6836B90E6826B90E6816B90E68002EB6
:10377000F6D00A70C4E700BF002070BD4FF0604172
:103780000C6834B90C6824B90C6814B90C68002CA6
:10379000F6D04FF060410870FCE600BF4FF060418A
:1037A0000C6834B90C6824B90C6814B90C68002C86
:1037B000F6D04FF06041087075E7000070B544F630
:1037C000D351C1F2620150FB01F18A1102EBD171B8
:1037D0004FF47A7201FB120241F27B4313FB02F2B7
:1037E000D31403EBD27248F21F53C5F2EB1350FB14
:1037F00003F35E1106EBD373642603FB1603672401
:103800005EB2664340F21435C6F3C034C2F200051E
:1038100004EB9626AE7046F26766C6F2666650FB0B
:1038200006F6B40804EBD67606EB86062972A0EB02
:10383000460009062A7168700BD110201106287203
:1038400007D103F10901C9B2122928719CBF1020C8
:10385000A8700024C4F20204204610210022FDF7C3
:1038600065FE687844F64016C0F60006305C00F04D
:10387000BFFF012000F0BCFF204610210122FDF710
:1038800055FE204610210022FDF750FEA878305C3E
:1038900000F0AEFF022000F0ABFF20461021012215
:1038A000FDF744FE204610210022FDF73FFE287957
:1038B000305C00F09DFF042000F09AFF20461021AC
:1038C0000122FDF733FE204610210022FDF72EFED7
:1038D000287A305C00F08CFF082000F089FF204639
:1038E00010210122BDE87040FDF720BE2DE9F04F08
:1038F00087B040F2741BC2F2000B9BF80100022853
:1039000040F04B81002444F6062544F6981AC4F290
:103910000204C0F60005C0F6000A07E02A2800F0FD
:103920002D819BF80100022840F037810020002102
:1039300000F024FD9AA000F081FD20460121FDF752
:10394000EFFDB8B11420FDF703FD20460121FDF77E
:10395000E7FD78B19BF801000130C1B2033918BF0F
:1039600001468BF8011000BF20460121FDF7D8FD6C
:103970000128F9D000F02EFE20288BF80000D0D0CE
:10398000DBF80410012000F0F9FC9BF80000DBF8E4
:103990000410A0F130020BEB810042622846FCF7D4
:1039A000EBFC9BF8000000F027FDDBF804109BF80F
:1039B000000001312328CBF80410AFD1DBF824003C
:1039C0000A218DF8110040F27C208DF81010C2F20F
:1039D0000000A02104AA02234FF0FF378046009781
:1039E000FDF76CFE0A20FDF7B3FC44F68015C0F627
:1039F000000528460A21FCF7BFFCDBF828000B2154
:103A00008DF812108DF813004046A0210DF112021E
:103A100002230097FDF752FE0A20FDF799FC284685
:103A20000B21FCF7A9FCDBF82C000C218DF81410FD
:103A30008DF815004046A02105AA02230097FDF746
:103A40003DFE0A20FDF784FC28460C21FCF794FC7F
:103A5000DBF830000D218DF816108DF81700404668
:103A6000A0210DF1160202230097FDF727FE0A2080
:103A7000FDF76EFC28460D21FCF77EFC06A80090A1
:103A80000120002501904046A0210A22012364273D
:103A9000CBF804508DF818500297FEF74BF89DF8BC
:103AA000182050460A21FCF767FC0DF11900009020
:103AB00001209DF8189001904046A0210B2201237F
:103AC0008DF819500297FEF735F89DF819205046E9
:103AD0000B21FCF751FC9DF819004FF47A717843E3
:103AE00019FB01060DF11A000090012001904046DB
:103AF000A0210C2201238DF81A504FF001090297E2
:103B0000FEF718F89DF81A2050460C21FCF734FCFB
:103B10009DF81A008DF81B5000EB800006EB400664
:103B20000DF11B0044F60625CDE900094046A02111
:103B30000D220123C0F600050297FDF7FBFF9DF85B
:103B40001B2050460D21FCF717FC9DF81B00311877
:103B500016A0CBF83C10FCF70FFC00F05FFB002038
:103B6000002100F00BFC16A000F068FC9BF80000A0
:103B7000D4E600BFDBF83C00FFF720FE00F02AFD92
:103B80008BF8000000F026FD20460121FDF7C8FC5F
:103B90000028EFD000208BF8010007B0BDE8F08FBF
:103BA0004D4F4445323A345F6C656400736F206456
:103BB00061206C7575206C613A2025640D0A000047
:103BC0004441204C555520454550524F4D00000072
:103BD0002DE9F04F87B040F27418C2F2000898F84F
:103BE0000100012840F0888241F20006C4F202067A
:103BF00040F27C2444F680194FF0000BA6F5805764
:103C00000125C2F200040DF1140AC0F60009039761
:103C100032E000BFD8F80400411C012000F0AEFBE8
:103C20000FF2705000F00AFCD8F80400811C01204B
:103C300000F0A4FBD8F864100FF25C50FCF79CFB7A
:103C4000D8F8642008F1100544F666212846C0F62D
:103C50000001FCF79DFB284600F0F0FB40F6C41085
:103C6000C8F804B0FDF774FB00F0AEFA012598F82F
:103C70000100012840F040820020002100F07EFB7E
:103C800044F66A20C0F6000000F0D8FB3846012157
:103C9000FDF746FCB0B11420FDF75AFB3846012170
:103CA000FDF73EFC70B198F801000130C1B2033954
:103CB00018BF014688F8011038460121FDF730FC95
:103CC0000128F9D030461021FDF72AFC80B91420D4
:103CD000FDF73EFB30461021FDF722FC40B988F885
:103CE000025000BF30461021FDF71AFC0028F9D021
:103CF00030460821FDF714FCC0B91420FDF728FB5D
:103D000030460821FDF70CFC80B9D8F8641044F661
:103D1000B410C0F6000088F803B0FCF72DFB00BF1C
:103D200030460821FDF7FCFB0028F9D098F8020086
:103D300001283AD10020002100F020FB0FF2C03012
:103D400000F07CFB0120002100F018FB0DF11300B6
:103D5000CDE900052046A0210022012364258DF82D
:103D600013B00295FDF7E6FE9DF8132044F6981077
:103D7000C0F600000021FCF7FFFA9DF8132008F1BF
:103D8000100544F666212846C0F60001FCF700FB4A
:103D90002846022500F052FB4FF4FA60FDF7D8FAEE
:103DA00000F03CFA88F80250012500F013FCD8F826
:103DB000041088F80000012000F0E0FA98F80000F4
:103DC000D8F80410232821D103291FDB002506E0A1
:103DD000D8F80410C8F85C5001358D424EDA08EB73
:103DE0008504206C0A28F7D3CDA02946FCF7C4FA35
:103DF000206CA0F11104022CEAD8D0A050F82400C5
:103E0000FCF776FBC8F86040E2E700BF20283FF4EB
:103E10002EAF0120254600F0B1FA98F80000D8F83E
:103E20000410A0F1300244F6062008F14004C0F668
:103E3000000044F82120FCF79FFA98F8000000F0F9
:103E4000DBFAD8F8041054F82100112800F02C8176
:103E500012282C4600F0378114284FF0010500F09D
:103E60004281132840F04381012000F087FAABA083
:103E700000F0E4FAD8F8041039E100BFB2A0FCF772
:103E800037FBD8F85C0040F27C240128C8F854B015
:103E90004FF001064FF0FF3BC2F2000423DB002588
:103EA00008EB8500D8F85410006C01EB810100EBA1
:103EB0004100C8F854008DF815002046A021524654
:103EC00002238DF81460CDF800B0FDF7F7FB0A204F
:103ED000FDF73EFA48460121FCF74EFAD8F85C009F
:103EE00001358542DCDB9BA0FCF702FBD8F85C00C7
:103EF000D8F80420451C41F2000600219542C4F286
:103F00000206C8F8581038DA08EB800044F680172B
:103F100000F1400B4FF0020AA1464FF0FF36C0F609
:103F200000070DF1160400BFD8F858005BF8041F15
:103F300000EB800001EB4000C8F858008DF8170036
:103F40004846A021224602238DF816A00096FDF7D0
:103F5000B5FB0A20FDF7FCF938460221FCF70CFA04
:103F6000D8F8040001358542DEDBD8F8581041F25C
:103F70000006039FC4F202064C4679A0FCF7FCF948
:103F8000D8F860004FF0000B60B144F680190128AA
:103F9000C0F600096AD002280DF1140A7FF43AAE87
:103FA00076E000BFD8E9150101220844C8F8640092
:103FB00006A80090012001902046A02101234FF087
:103FC000640A8DF818B0CDF808A0FDF7B3FD44F6EB
:103FD000981B9DF81820C0F6000B584601214FF0A1
:103FE0000009FCF7C9F901200DF119019DF81850DD
:103FF000CDE900102046A021022201238DF819905E
:10400000CDF808A0FDF796FD9DF81920584602212D
:104010004FF0000BFCF7B0F99DF81900A0212844DF
:10402000C8F868008DF81B0020460DF11A02022323
:104030004FF0FF358DF81AB00095FDF73FFB0A20D1
:10404000FDF786F944F68010C0F600000021FCF769
:1040500093F9D8F8641048A0FCF78EF9D8F86000FE
:1040600044F680190128C0F6000994D1D8E9150159
:10407000411A44F6EB10C0F60000C8F86410FCF7D3
:104080007BF9D8F8600002280DF1140A7FF4C2AD64
:10409000D8E91501414344F6CE10C0F60000C8F837
:1040A0006410FCF769F9B5E5012000F067F919A083
:1040B00000F0C4F9D8F8041008EB8100006C122855
:1040C0002C467FF4C9AE012000F058F912A000F090
:1040D000B5F9D8F8041008EB8100006C14284FF0F3
:1040E00001057FF4BEAE00F06FF84FF0FF31481CC1
:1040F000C8F80400BBE500BF07B0BDE8F08F00BF03
:1041000047696120747269207472756F6320646FEF
:10411000206C61002B0000002D0000002A00000030
:1041200056492054524920504845502054494E4841
:10413000204C412025640D0A00000000324A00088E
:104140004C4A0008184A00084C617920736F2031EE
:104150003A0D00004C617920736F20323A0D000057
:104160004D617974696E682E6E756D5F32203161B4
:104170003A2025640D0A00006B657420717561207A
:104180007068657020636F6E67206C613A25640DFE
:104190000A0000003D0000006D617974696E6820BE
:1041A00025640D0A0000000080B582B0019040F245
:1041B000D020C2F2000001A901224FF0FF33FEF728
:1041C000C7FA019802B080BD2DE9F04184B048F6ED
:1041D0008C0040F22824C0F60C00C2F200040290C9
:1041E0004FF0640802AA20464E210423CDF8008037
:1041F000FDF764FA42F62D165027C0F60D1603ADF2
:1042000020464E212A4604230396CDF80080FDF770
:1042100055FA013FF4D104B0BDE8F0812DE9F04139
:1042200082B064206426FDF793F840F2282443F618
:104230003C07C2F200040DF10408C0F60C0720464A
:104240004E214246042301970096FDF737FA0A20D3
:10425000FDF77EF801AA20464E210423019700961F
:10426000FDF72CFA0A20FDF773F801AA20464E212B
:10427000042301970096FDF721FA1420FDF768F852
:1042800042F62C00C0F60C00019001AA20464E21F7
:1042900004230096FDF712FA1420FDF759F842F6B0
:1042A0002C00C8F68C00019001AA20464E21042360
:1042B0000096FDF703FA0A20FDF74AF840F60C00D5
:1042C000C8F68C00019001AA20464E2104230096D6
:1042D000FDF7F4F90A20FDF73BF840F60C00C1F6B3
:1042E0001C00019001AA20464E2104230096FDF7F0
:1042F000E5F90A20FDF72CF80A20FDF729F840F629
:104300000C00C6F66C00019001AA20464E21042341
:104310000096FDF7D3F90A20FDF71AF840F60C00D5
:10432000CCF6CC00019001AA20464E210423009631
:10433000FDF7C4F93220FDF70BF848F68C00C0F603
:104340000C00019001AA20464E2104230096FDF79F
:10435000B5F942F62D155027C0F60D1520464E2111
:104360004246042301950096FDF7A8F9013FF5D1D7
:104370006420FCF7EDFF02B0BDE8F081032807D808
:10438000DFE800F002080E1441F0800012E000BFE8
:1043900080200FE001F1400040F080000AE000BF03
:1043A00001F1140040F0800004E000BF01F154006E
:1043B00040F0800080B582B020F00F01000101F1D3
:1043C0000C0208318DF8051000F10C0108308DF851
:1043D000070040F228208DF804208DF806104FF0D9
:1043E000640CC2F2000001AA4E210423CDF800C0E3
:1043F000FDF764F902B080BD80B582B000F0F00135
:10440000000101F10D0209318DF8051000F10D01D7
:1044100009308DF8070040F228208DF804208DF82F
:1044200006104FF0640CC2F2000001AA4E210423D2
:10443000CDF800C0FDF742F902B080BDF0B583B001
:10444000017821B340F22824461E6427C2F20004FA
:1044500002AD00BF21F00F00090100F10D0209308B
:104460008DF8090001F10D008DF80A0001F1090035
:104470008DF808208DF80B0020464E212A46042393
:104480000097FDF71BF9B17801360029E2D103B09E
:10449000F0BD00000024C4F20204FDF77DFDFEF72C
:1044A000A1FEFEF7A7FDFEF731FEFEF72BFDFEF79E
:1044B0004FFEFEF76FFEFFF7B1FE40F2741744F6B1
:1044C0006A2AC2F2000700200FF29C080FF2BC0912
:1044D000C0F6000A33A536A6787006E0FFF79EFE08
:1044E0004046FCF705F8FFF701FA20460121FDF7E9
:1044F00017F8A8B11420FCF72BFF20460121FDF787
:104500000FF868B178780130C1B2033918BF01469D
:10451000797000BF20460121FDF702F80128F9D08B
:1045200078780228DAD0012814D00028DDD10020C4
:104530000021FFF723FF5046FFF780FF01200021F5
:10454000FFF71CFF2846FFF779FF3046FBF7D0FF47
:10455000CBE700BFFFF762FE48460121FBF70CFFE7
:10456000FFF736FBC1E700BF476C6F62616C5F4EBF
:10457000542E7472616E677468616920204D6F6497
:10458000655F346C6564200D00000000204D6F6491
:10459000655F6D617974696E68203D2025640D0A40
:1045A000000000004D4F4445323A34204C45440051
:1045B000476C6F62616C5F4E542E7472616E6774EB
:1045C00068616920204D6F64655F6368756E672060
:1045D0000D000000F0B581B040F60044C4F20204C2
:1045E0002046022100220026FCF7A0FF20460121E0
:1045F0000125FCF795FF002800F09F80204604214C
:104600000425FCF78DFF002800F092802046102141
:104610001025FCF785FF002800F08C802046402103
:104620004025FCF77DFF002800F08680204602210F
:1046300001220125FCF77AFF2046082100220026EE
:10464000FCF774FF20460121FCF76AFF002800F008
:104650009480204604210425FCF762FF002800F026
:104660008780204610211025FCF75AFF002800F013
:104670008180204640214025FCF752FF002800F0B1
:104680007B802046082101220125FCF74FFF2046B0
:10469000202100220026FCF749FF20460121FCF7DB
:1046A0003FFF002800F07B80204604210425FCF712
:1046B00037FF00286ED0204610211025FCF730FF70
:1046C000002869D0204640214025FCF729FF00281A
:1046D00064D02046202101220125FCF727FF204637
:1046E000802100220026FCF721FF20460121FCF753
:1046F00017FF002867D0204604210425FCF710FF8F
:1047000000285BD0204610211025FCF709FF002867
:1047100056D0204640214025FCF702FF002851D00A
:10472000204680210122FCF701FF202001B0F0BDCE
:10473000012602E0022600E003263220FCF708FEF4
:1047400020462946FCF7ECFE0028F9D0002702217C
:1047500020460122FCF7EAFE21A040F2741100EB92
:104760008600C2F20001C05D8E60CF6001B0F0BD76
:10477000012602E0022600E003263220FCF7E8FDD5
:1047800020462946FCF7CCFE0028F9D00127082155
:10479000DEE700BF012602E0022600E00326322009
:1047A000FCF7D6FD022700BF20462946FCF7B8FEDD
:1047B00000284FF02001F7D0CAE700BF012602E031
:1047C000022600E003263220FCF7C2FD0327204624
:1047D0002946FCF7A5FE00284FF08001F7D0B7E787
:1047E0003132334134353642373839432A30234465
:1047F000B0B500240546C0B2C4F20204C209204686
:104800004021FCF793FE204602210122FCF78EFE98
:10481000204602210022FCF789FEC5F380122046C3
:104820004021FCF783FE204602210122FCF77EFE98
:10483000204602210022FCF779FEC5F340122046F3
:104840004021FCF773FE204602210122FCF76EFE98
:10485000204602210022FCF769FEC5F30012204623
:104860004021FCF763FE204602210122FCF75EFE98
:10487000204602210022FCF759FEC5F3C002204663
:104880004021FCF753FE204602210122FCF74EFE98
:10489000204602210022FCF749FEC5F38002204693
:1048A0004021FCF743FE204602210122FCF73EFE98
:1048B000204602210022FCF739FEC5F340022046C3
:1048C0004021FCF733FE204602210122FCF72EFE98
:1048D000204602210022FCF729FE05F001022046B5
:1048E0004021FCF723FE204602210122FCF71EFE98
:1048F000204602210022BDE8B040FCF717BEF1EED1
:10490000100A4FF6FF71C0F2C03120EA010040F0FA
:104910004070E1EE100A70473031323334353637AB
:1049200038394142434445464030580030313233F3
:1049300034353637383961626364656640307800F3
:10494000C0F9A4B0999282F880908883C6A1868E1F
:10495000FF00000000000000000102030406070839
:104960000900000000010203043A53544445525226
:10497000003A535444494E003A5354444F5554005E
:1049800077726974655F656570726F6D2061742000
:1049900030782558200D0A00526561642045455045
:1049A000524F4D206174205B25645D203A202564C0
:1049B000200D0A0067696120747269206869656E5C
:1049C00020746169206C61202025640D0A006B65EC
:1049D00074207175612070686570206E68616E204A
:1049E0006C6120203A2025640D0A006B65742071EB
:1049F0007561207068657020747275206C61203A52
:104A00002025640D0A00736F2074687520256420CA
:104A10006C612025640D0A00504845502054494ED1
:104A200048204849454E20544149204C41202A20E5
:104A30000D00504845502054494E48204849454EA5
:104A400020544149204C41202B200D005048455016
:104A50002054494E48204849454E20544149204C55
:104A600041202D200D00256420004D4F4445313A52
:104A70004D41595F54494E4800000000A04A0008CB
:104A80000000002018000000C4010008B84A000817
:104A90001800002010090000E001000800000000DC
:104AA0000000000000000000000000000100000005
:084AB000100000000024F400D6
:040000050800018965
:00000001FF
