:020000040800F2
:10000000D006002029020008AD150008B51300082D
:10001000A9150008D5030008BD170008000000005E
:10002000000000000000000000000000B5150008FE
:10003000D903000800000000B1150008B915000838
:10004000430200084302000843020008430200087C
:10005000430200084302000843020008430200086C
:10006000430200084302000843020008430200085C
:10007000430200084302000843020008430200084C
:10008000430200084302000843020008430200083C
:10009000430200084302000843020008430200082C
:1000A000430200084302000843020008430200081C
:1000B000430200084302000843020008430200080C
:1000C00043020008430200084302000843020008FC
:1000D00043020008430200084302000843020008EC
:1000E00043020008430200084302000843020008DC
:1000F00043020008430200084302000843020008CC
:1001000043020008430200084302000843020008BB
:1001100043020008430200084302000843020008AB
:10012000430200084302000843020008430200089B
:10013000430200084302000843020008430200088B
:10014000430200084302000843020008430200087B
:10015000430200084302000843020008430200086B
:10016000430200084302000843020008430200085B
:100170004302000843020008430200080000000098
:10018000430200084302000800F002F800F03CF8C7
:100190000AA090E8000C82448344AAF10107DA45E2
:1001A00001D100F031F8AFF2090EBAE80F0013F0F8
:1001B000010F18BFFB1A43F0010318477416000023
:1001C00094160000103A24BF78C878C1FAD85207B4
:1001D00024BF30C830C144BF04680C6070470000C1
:1001E0000023002400250026103A28BF78C1FBD840
:1001F000520728BF30C148BF0B6070471FB501F0E0
:1002000002FB1FBD10B510BD00F0A9F81146FFF7A5
:10021000F5FF01F0D5FA00F0C7F803B4FFF7F2FFDD
:1002200003BC00F0CFF800000948804709480047A8
:10023000FEE7FEE7FEE7FEE7FEE7FEE7FEE7FEE796
:10024000FEE7FEE704480549054A064B70470000F3
:100250006D16000889010008D0000020D00600209B
:10026000D0020020D002002053EA020C00F0698086
:100270002DE9F04B4FF00006002B1FBFB3FA83F5BA
:1002800003FA05F424FA05F65E4012BF1643B2FAEB
:1002900082F502FA05F4C5F120051EBF22FA05FC1D
:1002A00044EA0C04203556EA044C4FEA144418BFC3
:1002B000641C4FF000084FF00009904271EB030CF2
:1002C00039D3002919BFB1FA81F701FA07F6B0FA5C
:1002D00080F700FA07F6C7F120071EBF20FA07FCD7
:1002E00046EA0C062037B6FBF4FCA7EB0507103FE7
:1002F00007F01F0BCBF120062CFA06F60CFA0BFBCD
:1003000044BFB3460026202FA4BF5E464FF0000B2B
:100310005BEA060C08BF4FF0010B19EB0B0948EB29
:100320000608ABFB027C06FB02CC0BFB03CCC01B1C
:1003300071EB0C01C1E70B46024641464846BDE859
:10034000F08B13B5084318BF4FF0FF300146AFF3F1
:100350000080BDE81C407047704770477047754685
:1003600000F02CF8AE4605006946534620F0070021
:10037000854618B020B5FFF765FFBDE820404FF077
:1003800000064FF000074FF000084FF0000BAC469E
:10039000ACE8C009ACE8C009ACE8C009ACE8C009E9
:1003A00021F007018D46704710B50446AFF3008079
:1003B0002046BDE81040FFF730BF000000487047FE
:1003C0001000002001491820ABBEFEE72600020005
:1003D00070470000FEE7000070470000EFF3108058
:1003E00072B600BFFEE70000B0B5044600F0EAF8C0
:1003F000054640F20000C2F200000078611C18BF00
:10040000044400BF00F0DEF8401BA042FAD3B0BDA8
:100410002DE9F04F82B000F13E4241F6004502F175
:10042000FF77C4F20205082243F6004E4FEAB726D2
:10043000A84208BF0722C4F2010E072E38BF4FEAB8
:10044000B7220125002600274FF00008009208E09F
:1004500008F101080437B8F1100F06F1020600F0A8
:10046000A7800C6805FA08F914EA090FF0D0D1F852
:1004700004B003220BF0030CACF10104B240012CD8
:100480006FEA020A10D88268CC6802EA0A02B44015
:10049000224382604268CBF3001422EA090204FA84
:1004A00008F42243426005E0BCF1030F02D14FF093
:1004B000030C20E0C2688C6802EA0A02B4402243BE
:1004C000BCF1020FC26016D16FF0030202EA5802BB
:1004D0000244D2F820C007F01C050F230C69AB4082
:1004E0002CEA030304FA05F52B431362D1F804B098
:1004F00001250BF0030C02680CFA06F302EA0A026B
:100500001A431BF4403F0260A2D0002243F644038A
:100510000192C4F202031A684FF6084C42F480427A
:100520001A601A68CFF6FF7C02F480420192019AA9
:1005300028F00302724452F80C3007F00C050F2427
:10054000AC40A343009C04FA05F52B4342F80C3061
:10055000DEF808204B6842EA090543F60C4CDC0241
:1005600058BF22EA0905CEF80850C4F2010CDCF8A5
:1005700000209C0242EA090558BF22EA0905CCF88E
:100580000050DEF804209C0342EA090558BF22EA25
:100590000905CEF80450DEF80020DB0342EA090525
:1005A00058BF22EA0905CEF80050012550E700BFE8
:1005B00002B0BDE8F08F0000002A08BF0904816185
:1005C0007047000040F2CC00C2F2000000687047A3
:1005D00040F2000040F2CC01C2F20000C2F2000181
:1005E00000780A68104408607047000080B543F640
:1005F0000040C4F20200016841F40071016001682A
:1006000041F480610160016841F480710160032060
:1006100000F074F80F2000F005F800F027F8002033
:1006200080BD000070B540F20006C2F2000640F244
:1006300008013278C2F200014FF47A730968B3FB03
:10064000F2F20446B1FBF2F1084600F007FB0F2C72
:100650004FF0010508D838B94FF0FF30214600228D
:10066000002500F01FF87460284670BD82B000209D
:1006700043F640010190C4F202014A6842F480420C
:100680004A604A6802F480420192019A0090086828
:1006900040F080500860086800F08050009000989A
:1006A00002B0704710B54EF60C5CCEF2000CDCF8D0
:1006B0000030C3F3022E8EF00704042C28BF04245C
:1006C000BEF103034FF0FF3E0EFA04F438BF0023DF
:1006D000A14399400EFA03F39A43114300F00F022D
:1006E00000F160430901043A03F5644362440028C1
:1006F00048BF02F10C03197010BD00004EF60C51FA
:10070000CEF200010A684FF6FF031A4060F30A2296
:1007100042F0806040F0FD70086070472DE9F041C4
:10072000002800F08B8043F60808C4F20208044653
:10073000D8F8F8030D4600F00700884207D288F881
:10074000F853D8F8F80300F00700A84276D12068E3
:10075000810717D5410705D5D8F8001041F4E051BD
:10076000C8F80010010705D5D8F8001041F4604121
:10077000C8F80010D8F80010A26821F0F001114369
:10078000C8F80010C0073FD1D8F8F80300F0070000
:10079000A84207D988F8F853D8F8F80300F0070002
:1007A000A8424BD12068410707D5D8F80010E2686D
:1007B00021F4E0511143C8F80010000708D5D8F81B
:1007C0000000216920F4604040EAC100C8F8000040
:1007D00000F054F8D8F8001041F62002C1F30311DC
:1007E000C0F60002515C40F2080220FA01F140F22A
:1007F0000400C2F200000068C2F200021160FFF7BC
:1008000011FF0020BDE8F0816068811E022907D237
:1008100058F8081C89015CBF0120BDE8F08111E097
:10082000012807D158F8081C89035CBF0120BDE8E6
:10083000F08107E058F8081C890703D40120BDE8BF
:10084000F08100BFD8F8001021F003010843C8F878
:100850000000FFF7B7FE064641F28837D8F80000DF
:10086000616800F00C00B0EB810F8DD0FFF7AAFE9D
:10087000801BB842F2D90320BDE8F08110B543F6E1
:100880000404C4F20204606800F00C0142F200406B
:100890000829C0F2F40007D0042918BF10BD41F2A6
:1008A0000020C0F27A0010BD216801F03F022168EB
:1008B00023684902C3F3881106D4A1FB0001002379
:1008C000FFF7D2FC07E000BF41F20020C0F27A003F
:1008D0004843B0FBF2F021680222C1F3014102EB70
:1008E0004101B0FBF1F010BD2DE9F04182B00028CC
:1008F00068D00446007843F60006C007C4F202063A
:100900000BD0B06800F00C00042840F09F803068E5
:10091000800302D56068002854D0207880071AD55B
:10092000B06810F00C0F09D0B06800F00C00082877
:1009300040F0A6807068400200F1A2803068800715
:1009400002D5E06801283DD13068216920F0F80027
:1009500040EAC10030602078000737D42078400793
:100960004CD4A56955B3B06800F00C00082840F0DD
:10097000BB80012D26D07068E16900F480028A42B4
:1009800020D1216A00F03F028A421BD147F6C07194
:10099000626A0140B1EB821F14D1A16A4FF6FF7366
:1009A000C903994300F44032A1F580318A4209D14C
:1009B000E16A00F07060B0EB016F03D1002002B07B
:1009C000BDE8F081012002B0BDE8F0816069002837
:1009D00040F20000C4F2472076D00121C0F8801E0A
:1009E000FFF7F0FD054600BF706F8007B6D4FFF734
:1009F000E9FD401B0228F7D9DDE000BF306C10F0A4
:100A000080580AD100200190306C40F08050306452
:100A1000306C00F080500190019847F20007C4F25A
:100A200000073868C00541D4386840F480703860E9
:100A3000FFF7C8FD054600BF3868C00536D4FFF78C
:100A4000C1FD401B0228F7D9B5E000BFB06800F037
:100A50000C00082803D1706840023FF558AF606869
:100A6000B0F5803F07D0B0F5A02F40F08D80306802
:100A700040F480203060306840F4803030608DE099
:100A8000E068002852D00020C4F247200121016014
:100A9000FFF798FD054600BF306880073FF554AF6B
:100AA000FFF790FD401B0228F6D984E0A0680128DA
:100AB00005D005284ED1306F40F004003067306F0C
:100AC00040F0010030674FE00021C0F8801EFFF7C2
:100AD00079FD0546706F80077FF540AFFFF772FD27
:100AE000401B0228F6D966E00027C4F24727002001
:100AF0003866FFF767FD022D05460BD1306880018F
:100B00005ED5FFF75FFD401B02284FF00300F5D9CB
:100B100055E700BF306880017FF550AFFFF752FD09
:100B2000401B02284FF00300F4D948E70020C4F22C
:100B3000472000210160FFF745FD0546306880072A
:100B40007FF509AFFFF73EFD401B02284FF0030081
:100B5000F4D934E7316F002821F001013167316F9A
:100B600021F0040131674DD0FFF72CFD054641F21D
:100B7000883700BF306F800756D4FFF723FD401B36
:100B8000B842F7D917E000BF3168002821F480315E
:100B90003160316821F4802131604FD0FFF712FDC0
:100BA000054600BF306880033FF5B7AEFFF70AFD8A
:100BB000401B6428F6D9032002B0BDE8F08100BFD5
:100BC00004F11C052FCD084340EA8210D9034FF6EB
:100BD000FF729143A1F5803140EA056008437060DF
:100BE00001203866FFF7EEFC044600BF3068800144
:100BF0003FF5E4AEFFF7E6FC001B02284FF00300D0
:100C0000F4D9DCE6FFF7DEFC054641F2883700BF89
:100C1000306F800708D5FFF7D5FC401BB8424FF076
:100C20000300F5D9CBE600BFB8F1000F7FF499AE11
:100C3000306C20F08050306493E600BFFFF7C2FCB8
:100C4000054600BF306880037FF567AEFFF7BAFC4A
:100C5000401B64284FF00300F4D9B0E6411E002089
:100C6000B0EB116F1CBF012070474EF21002CEF2A4
:100C7000000251604EF62351CEF20001F0230B70BA
:100C80000721906011607047B0B590F83C20012AB0
:100C900004BF0220B0BD01F108053CCDD1E900CE72
:100CA00023F47C5322F470521A432EF4F0431A4377
:100CB0002CF4E0431A4324F4C0431A432A43C9697D
:100CC00022F48042036811435964002180F83C10EB
:100CD0000846B0BD10B590F83C20012A4FF0020242
:100CE00051D080F83D200268D2F804E0D2F808C064
:100CF0000C682EF07003234341F2FF74C4F2000429
:100D0000A24253600EDC40F2FF73C4F200039A4229
:100D100016DCB2F1804F2BD040F20043C4F2000346
:100D200024E000BF40F2FF33C4F201039A4213DC17
:100D300041F60003C4F200039A4219D0002313E0E5
:100D400040F60003C4F200039A4211D040F600437B
:100D5000C4F200030AE000BF44F20003C4F201033E
:100D60009A4205D040F20043C4F201039A4204D1F2
:100D700049682CF08003194391600121002280F81A
:100D80003D1080F83C20104610BD0000002804BF34
:100D90000120704710B5044690F83D0028B90020A6
:100DA00084F83C00204600F01FF8022084F83D0043
:100DB0002068211D00F064FC012084F8460084F8BE
:100DC0003E0084F83F0084F8400084F8410084F835
:100DD000420084F8430084F8440084F8450084F815
:100DE0003D00002010BD000081B000680021C4F269
:100DF0000101884202D001B0704700BF002000907E
:100E000043F64400C4F20200016841F001010160B0
:100E1000006800F001000090009801B070470000E9
:100E200080B590F83C20012A4FF0020200F0C28009
:100E300080F83D20D0F800C04FF67772DCF808301B
:100E400023EA0202CCF808200B684F2B28DC1F2B6A
:100E500044DD202B45D0302B43D0402B40F0AC80DC
:100E6000D1F804E0C968DCF82030DCF8202022F05A
:100E70000102CCF82020DCF8182022F0F00242EA2F
:100E8000011123F00A0242EA0E02CCF81810CCF845
:100E90002020DCF8081041F0470121F0300180E00B
:100EA0006F2B27DDB3F5005F48D0B3F5805F7AD0B4
:100EB000702B40F08180D1E901E3C968DCF808209B
:100EC00043EA0E0322F47F4243EA01211143CCF8A6
:100ED0000810DCF8081041F0770162E00BB1102B2C
:100EE0006AD1DCF8081021F07001194341F00701C4
:100EF00057E000BF502B35D0602B5DD1D1F804E016
:100F0000C968DCF8203023F01003CCF82030DCF87E
:100F10001830DCF8202023F4704322F0A00243EACA
:100F2000013142EA0E12CCF81810CCF82020DCF87F
:100F3000081041F0670121F0100132E0D1E901E32E
:100F4000C968DCF8082043EA0E0322F47F4243EA32
:100F500001211143CCF80810DCF8081041F480415D
:100F60001FE000BFD1F804E0C968DCF82030DCF8ED
:100F7000202022F00102CCF82020DCF8182022F0FA
:100F8000F00242EA011123F00A0242EA0E02CCF812
:100F90001810CCF82020DCF8081041F0570121F09F
:100FA0002001CCF808100022012180F83D1000211A
:100FB00080F83C10104680BD0122F5E72DE9F04392
:100FC00090F83C30012B04BF0220BDE8F0834FEACB
:100FD000B202032A00F2FC80DFE802F0023E7EBE8D
:100FE000036840F200471A6A43F4806522F0010268
:100FF0001A621C6A1A46D3F804E052F818CF8E68B9
:1010000024F00204C4F20107BD4244EA060405D1FB
:10101000CE6824F00C0426F0040634430E68BD426A
:1010200007D1D1E905572EF4407E45EA0E0545EA81
:10103000070E2CF073073743C3F804E09F614F6835
:1010400009695F631C629F6947F008079F619F6998
:1010500027F004079F61B1E0036840F200481A6A74
:1010600043F4806522F010021A621C6A1A46D3F813
:1010700004C052F818EF8F6824F02004C4F201086D
:10108000454544EA071407D1CF686FF0400624F0C5
:10109000C00406EA07163443D1F80090454506D14E
:1010A000D1E905562CF440672E4347EA860C2EF40E
:1010B000E64747EA0927C3F804C09F614F680969FA
:1010C0009F631C629F6947F400679F619F6927F4D3
:1010D00080679F6171E000BF036840F200481A6AB0
:1010E00043F4806522F480721A621C6A1A46D3F8AF
:1010F00004C052F81CEF8F6824F40074C4F2010895
:10110000454544EA072408D1CF6840F2FF463F0234
:1011100024F4406427EA06063443D1F8009045459C
:1011200006D1D1E905562CF440572E4347EA061C58
:101130002EF0730747EA0907C3F804C0DF614F6860
:101140000969DF631C62DF6947F00807DF61DF6957
:1011500027F00407DF6131E0036840F200451A6AB6
:1011600043F4806722F480521A621A46D3F820C0F2
:101170005C6852F81CEFD1F800808E68C4F201055B
:10118000AF4204D14D6924F4804444EA85142CF420
:10119000005747EA06372EF4E64646EA08265C6022
:1011A000DE614E6809691E641F62DF6947F40067EB
:1011B000DF61DF6927F48067DF6109021368194383
:1011C00011600021002280F83C200846BDE8F08331
:1011D0000121002280F83C200846BDE8F083000091
:1011E000002804BF0120704710B5044690F83D0068
:1011F00028B9002084F83C00204600F01FF80220A7
:1012000084F83D002068211D00F03AFA012084F89E
:10121000460084F83E0084F83F0084F8400084F8DB
:10122000410084F8420084F8430084F8440084F8C4
:10123000450084F83D00002010BD0000704700000C
:1012400041B1082910D0042914BF00F1410200F176
:101250003F020BE090F83E20012A1CBF012070479E
:10126000022280F83E2013E000F140021278012AA9
:101270001CBF012070470222082907D0042914BF8F
:1012800080F8412080F83F2002E000BF80F8402035
:10129000006801F01F010122036A02FA01F123EA4A
:1012A00001020262026A114341F2FF72C4F20002BB
:1012B000904201620CDC40F2FF71C4F200018842EE
:1012C00014DCB0F1804F37D040F2004116E000BF8F
:1012D00040F2FF31C4F20101884215DC41F6000101
:1012E000C4F20001884227D0002115E040F6000139
:1012F000C4F2000188421FD040F60041C4F2000150
:10130000884219D01FE000BF44F20001C4F201017D
:10131000884211D040F20041C4F20101884212D14A
:10132000416C40F2004340F48062C4F2010341F496
:1013300000419A42416406D1816801F00701062903
:1013400004BF00207047016841F0010101600020E6
:1013500070470000002804BF0120704710B5044604
:1013600000F00CF8E26894E80B0042F080020260A2
:101370002269114319434160002010BD81B000680B
:1013800042F60041C4F20001884201D001B070472A
:101390000020009043F64000C4F20200016841F4CE
:1013A00000610160006800F400600090009801B0E6
:1013B00070470000FEE70000F0B587B0002543F657
:1013C000300006950195C4F202000168002441F046
:1013D000800101600168C4F2020401F08001019102
:1013E000019901950168012241F001010160016844
:1013F000C02601F0010101910199019501680127C1
:1014000041F0100101600068C02100F0100001905F
:1014100001982046FFF7D0F802A92046CDE90267DF
:10142000CDE90455FEF7F4FF07B0F0BDB0B59CB0B0
:10143000002540F27000C4F201050021C2F2000054
:1014400040F6EF2240F2E7331691CDE914111191E5
:10145000CDE90F11CDE90D11CDE90B11CDE9091140
:10146000CDE90711CDE90511CDE90311CDE9011150
:10147000C0E90052C0E90213C0E904118161FFF71D
:1014800085FC002818BFFEF7A9FF4FF48050139089
:1014900040F27000C2F2000013A9FFF7C1FC00285F
:1014A00018BFFEF79BFF40F27000C2F20000FFF78A
:1014B00097FE002818BFFEF791FF40F2700000244D
:1014C000C2F2000010A9CDE91044FFF703FC002888
:1014D00018BFFEF783FF602009904FF4E170CDE95B
:1014E0000A0440F27000C2F2000009A90022CDE90E
:1014F0000C44CDE90E44FFF761FD002818BFFEF74C
:101500006DFF40F2700400204FF40051C2F200045D
:101510000590CDE90300CDE901000691089001A9ED
:101520002046FFF7B1FB002818BFFEF757FF2068E1
:10153000A84201D01CB0B0BD002043F63001179086
:10154000C4F202010A6842F010020A60096801F060
:101550001001179117994FF4007117910221CDE9ED
:1015600018101A9001201B9005F5883017A9FEF776
:101570004FFF1CB0B0BD000080B540F2B80042F68D
:101580000041C2F20000C4F200010022402380E8C2
:101590000E00C0E90332FFF7DDFE002808BF80BD62
:1015A000BDE88040FEF71ABFFEE70000FEE700003E
:1015B0007047000070470000FFF70AB8B0B592B05E
:1015C000002443F64000CDE90A44CDE908440594DF
:1015D000CDE90344CDE901440094C4F2020001685E
:1015E000022541F080510160006800F080500090B9
:1015F000009847F200000094C4F20000016841F432
:10160000804101600068A82100F4804000900098AB
:10161000012006904FF4803007904FF480000D9029
:1016200004200E90119006A80C95CDE90F15FFF738
:101630005BF928B1EFF3108072B600BFFEE700BF80
:101640000F20CDE901054FF4A05004904FF48050D5
:10165000059001A805210394FFF760F820B1EFF38E
:10166000108072B6FEE700BF12B0B0BD4EF68850D3
:10167000CEF20000016841F4700101607047000083
:1016800010B540F6FF3E0368C4F2000E40F2004C75
:101690007045C4F2010C27DCB0F1804F31D040F22C
:1016A0000042C4F2000290422BD040F60002C4F285
:1016B0000002904225D041F6FF72C4F2000290422F
:1016C00029DC70453CDCB0F1804F5FD040F2004235
:1016D000C4F20002904259D040F60002C4F2000267
:1016E000904253D056E000BF40F60042C4F20002E0
:1016F000904206D0604504D00022C4F2010290421C
:10170000D9D14A6823F07003134341F6FF72C4F243
:1017100000029042D5DD43F6FF72C4F2010290420E
:1017200022DC42F20002C4F2000290422ED00022DB
:10173000C4F20102904229D0604527D02AE000BFC0
:1017400040F60042C4F2000290421FD041F600026F
:10175000C4F20002904219D041F60042C4F20002E5
:10176000904213D016E000BF44F20002C4F201021E
:1017700090420BD044F60002C4F20102904205D020
:1017800044F20042C4F20102904203D1CA6823F439
:101790004073134323F080024B69D1F800E08C685A
:1017A0001A430260C46240F48062C0F828E06245D7
:1017B00004BF096901630121416110BDFEE700001A
:1017C000FEF714FFFFF7FAFEFFF7F6FDFFF72EFE18
:1017D000FFF7D2FE40F27004C2F20004204600215E
:1017E000FFF72EFD0025C4F202054FF42F7600BF4F
:1017F000284640210022FEF7DFFE3220FEF7F4FDEE
:1018000020684663F4E7F1EE100A4FF6FF71C0F26C
:10181000C03120EA010040F04070E1EE100A70474C
:101820000000000000000000010203040607080990
:10183000501800080000002010000000C40100083B
:101840006018000810000020C0060000E001000839
:1018500001000000100000000024F400000000005F
:040000050800018965
:00000001FF
