:020000040800F2
:10000000780700204102000829170008E9160008B7
:100010002517000811100008011800080000000052
:100020000000000000000000000000003117000880
:1000300015100008000000002D17000835170008F3
:100040005B0200085B0200085B0200085B0200081C
:100050005B0200085B0200085B0200085B0200080C
:100060005B0200085B0200085B0200085B020008FC
:100070005B0200085B0200085B0200085B020008EC
:100080005B0200085B0200085B0200085B020008DC
:100090005B0200085B0200085B0200085B020008CC
:1000A0005B0200085B0200085B0200085B020008BC
:1000B0005B0200085B0200085B0200085B020008AC
:1000C0005B0200085B0200085B0200085B0200089C
:1000D0005B0200085B0200085B0200085B0200088C
:1000E0005B0200085B0200085B0200085B0200087C
:1000F0005B0200085B0200085B0200085B0200086C
:100100005B0200085B0200085B0200085B0200085B
:100110005B0200085B0200085B0200085B0200084B
:100120005B0200085B0200085B0200085B0200083B
:100130005B0200085B0200085B0200085B0200082B
:100140005B0200085B0200085B0200085B0200081B
:100150005B0200085B0200085B0200085B0200080B
:100160005B0200085B0200085B0200085B020008FB
:100170005B0200085B0200085B0200080000000050
:100180005B0200085B02000800F002F800F049F88A
:100190000AA090E8000C82448344AAF10107DA45E2
:1001A00001D100F03EF8AFF2090EBAE80F0013F0EB
:1001B000010F18BFFB1A43F001031847001B000092
:1001C000201B0000103A24BF78C878C1FAD8520723
:1001D00024BF30C830C144BF04680C6070470000C1
:1001E0000023002400250026103A28BF78C1FBD840
:1001F000520728BF30C148BF0B607047642900F028
:10020000F780002070471FB501F036FD9DE8030020
:1002100000F0E4FC00F0F0F91FBD10B500F055FA55
:1002200010BD00F085FA1146FFF7EDFF01F0FAFC72
:1002300000F07CFC03B4FFF7F0FF03BC00F04CFEC1
:100240000948804709480047FEE7FEE7FEE7FEE76A
:10025000FEE7FEE7FEE7FEE7FEE7FEE704480549A6
:10026000054A064B70470000ED1700088901000899
:100270007801002078070020780300207803002010
:1002800053EA020C00F069802DE9F04B4FF00006B4
:10029000002B1FBFB3FA83F503FA05F424FA05F621
:1002A0005E4012BF1643B2FA82F502FA05F4C5F1B8
:1002B00020051EBF22FA05FC44EA0C04203556EA4C
:1002C000044C4FEA144418BF641C4FF000084FF070
:1002D0000009904271EB030C39D3002919BFB1FA20
:1002E00081F701FA07F6B0FA80F700FA07F6C7F1CE
:1002F00020071EBF20FA07FC46EA0C062037B6FB93
:10030000F4FCA7EB0507103F07F01F0BCBF120060D
:100310002CFA06F60CFA0BFB44BFB3460026202F3E
:10032000A4BF5E464FF0000B5BEA060C08BF4FF01F
:10033000010B19EB0B0948EB0608ABFB027C06FB33
:1003400002CC0BFB03CCC01B71EB0C01C1E70B46CD
:10035000024641464846BDE8F08B13B5084318BF36
:100360004FF0FF300146AFF30080BDE81C407047FE
:100370000FB4044910B503AA029800F00FF910BC9D
:100380005DF814FB6C0000202DE9F0410E46044698
:10039000002020622046E168884730B3252805D038
:1003A000D4E901219047206A401CF2E7E168204629
:1003B00000278847050018D0A5F14100192802D868
:1003C00020354FF400673246294620462760FFF764
:1003D00015FF40B1012804D0F61D26F007060836A7
:1003E000D8E7361DD6E72846DAE7206ABDE8F0816F
:1003F0002DE9F0410646002410687529314616A5FE
:1004000010D0AFF30080002802DA404213A507E0C5
:1004100031688A0701D512A502E0490704D511A564
:10042000012401E0AFF3008000210A2206F1240735
:1004300009E0B0FBF2FCB0FBF2F302FB1C00303031
:1004400078541846491C0028F3D123462A463046E2
:10045000BDE8F04100F049B8000000002D000000A8
:100460002B0000002000000030B44FF0013C50F899
:10047000042B51F8043BCCFA52F4D51A20D1FCB924
:1004800050F8042B51F8043BCCFA52F4D51A17D18A
:10049000B4B950F8042B51F8043BCCFA52F4D51AF5
:1004A0000ED16CB950F8042B51F8043BCCFA52F43D
:1004B000D51A05D1002CDAD030BC4FF000007047BF
:1004C00029BAB1FA81F111F01801D1F1200084406C
:1004D000F2D1CA40CB4012F0FF0213F0FF0330BC50
:1004E000D01A70477047704770472DE9F0470D46A6
:1004F00099469246044600F124080168880604D50E
:10050000E06921F01001216000E00120A84201DD36
:10051000471B00E00027A1697A1902EB0900081ABD
:10052000A0612078C00602D42046AFF300800026E8
:1005300008E0D4E901211AF806009047206A401C1F
:10054000761C20624E45F4DB2078C0060AD5204692
:10055000AFF3008006E0D4E9012130209047206A03
:10056000401C2062381EA7F10107F4DC07E0D4E943
:10057000012118F805009047206A401C2062281EBF
:10058000A5F10105F3DC2046AFF3008020780006DA
:1005900002D50220BDE8F0870120FBE7074B70B5CC
:1005A0000D467B4400F011F80446284600F020F880
:1005B00010B14FF0FF3070BD204670BDB71600007F
:1005C00001694A1C02610878704700B58FB0CDE917
:1005D00001310021059105497944CDE90310114607
:1005E0006846FFF7D1FE0FB000BD0000E5FFFFFF3A
:1005F000007B00F08000704710B54248542100F0A5
:10060000A5FA4148542100F0A1FA4048542100F0D5
:100610009DFA3F493B483C4A3F4B08603D490A60D0
:100620003A491960531C0365481C10650120086590
:100630003B48344A39A1784400F0DAF920B9384807
:1006400078440A3800F07BFA37482F4A35A17844BD
:1006500000F0CEF920B9344878440A3800F06FFA37
:1006600032482A4A2FA1784400F0C2F920B92F4815
:1006700078440A3800F063FA40232248DC00002165
:10068000224600F092F920B125487844543800F011
:1006900056FA1D4822464023002100F086F920B179
:1006A00021487844543800F04AFA1848224610236A
:1006B000002100F07AF9002806D01C487844BDE8F3
:1006C0001040563800F03BBA10BD104870B5006DB0
:1006D00020F001040B4800F003FA0B4800F000FA88
:1006E0000A4800F0FDF909E0206D20F001052046E0
:1006F00000F0F6F9204600F040F82C46002CF3D12B
:1007000070BD0000180000206C000020C000002018
:1007100000000020040000200800002072000000FB
:1007200070160000770000005F1600003816000009
:10073000754600F033FAAE4605006946534620F090
:100740000700854618B020B5FFF788FDBDE82040BA
:100750004FF000064FF000074FF000084FF0000B7D
:10076000AC46ACE8C009ACE8C009ACE8C009ACE8EC
:10077000C00921F007018D46704770B50446051F7A
:1007800000F010FA0068002C14BF446870BD002C03
:1007900018BFAC423CBF20466468F8D301680A1811
:1007A000AA4218BF456003D12A680546114401607A
:1007B00028684119A1421CBF6C6070BD6168696006
:1007C00021680844286070BD2DE9F05F0546174692
:1007D0000C46C86820F4201040F48000C8608006F1
:1007E00002D5084600F037FBE06841F282014FF085
:1007F000FF3A0140022903D0204600F0C9FAB9E0CF
:1008000000F42041B1F5004F0FD1C00306D5616857
:10081000E06A884200D80846606006E02069E0622D
:100820006060606900F0F8FFA061A0680022EEB28D
:1008300000280DDAE1688B050AD4C043A06041F4BA
:1008400090302260E0606068411C61600670AAE040
:10085000E0689146226040F40050E060206978BB77
:10086000606900F0DBFF04F124054FF00108A8B136
:10087000A08910F4407F08D0E06900F0DEF9206123
:1008800018B1E06840F4006017E0C4F81C802561EE
:10089000E06820F4407040F480600EE0E06900F011
:1008A000CCF900282061F0D0E06840F4006010F43A
:1008B000407FE06002D140F48070E06020696060B9
:1008C000E06825696FF0010BC1051ED56168E06A1B
:1008D000884200D80846411B04D02246284600F032
:1008E00061FAE8BB1FB1E562C4E9015959E0681C2F
:1008F000E0626060E069401EA060E06840F4803023
:10090000E06030462E70BDE8F09F17B100F48032F1
:100910000AE06068411C61600670E0680A2E40F4DD
:100920008030E06006D00022E16A6068814203D92D
:100930000B4602E00122F7E70346B4F80CC05B1B4C
:100940005FEA4C5C04D4D4F81CC09C4500DD02B3C3
:10095000814200D80146002BA1EB0008E56200E0CF
:1009600008E0C4E9015907DD22461946284600F08F
:1009700019FA08B15046C6E7B8F1000F09D0A169CD
:10098000E5626560A1EB0800A061E06840F010003E
:10099000E06047B16168A069E562491B0844656091
:1009A000A0615846AFE73046ADE770B5C468A5070B
:1009B00013D0650211D4B2F5807F09D0B2F5007F63
:1009C00006D0B2F5806F08D1012300F1240106E0C2
:1009D0005D1E6FF07F46B54201D3012070BD0161FD
:1009E000C361416024F470611143C160002070BD97
:1009F0002DE9F0410C461646070047D0104600F09E
:100A00006FF82078611C61280AD0722802D07728FC
:100A10003CD102E00125002405E00225042402E087
:100A2000082448F2020511F8010B2B2806D0622891
:100A300009D011F8010C74280AD00BE045F0030529
:100A400044F00204EFE745F0040544F00104EAE74E
:100A500044F010043846214600F0E8FE411C15D051
:100A60000021316171604FF40071F560F1617061D6
:100A7000200704D530460222002100F00DF9306D28
:100A800040F0010030653046BDE8F0810020FBE712
:100A90002DE9F0410D460646104C206DC10704D0EB
:100AA000410804D020F00104F7E722460EE054206C
:100AB00000F0C3F807000ED0206D47F00101084395
:100AC00054212065384600F041F83A462946304620
:100AD000BDE8F0418CE70020D6E7000018000020B8
:100AE0002DE9F04704464FF0FF380026C568D4E9E9
:100AF0000497A80718D0204600F08AF9384600F07D
:100B000081FE002800DA4646280502D54846FFF750
:100B100034FE4C21204600F019F8206D20F0010031
:100B200020653046BDE8F0874046FBE710B5044637
:100B3000AFF300802046BDE81040FFF77BBB10B547
:100B400000F0B0F9BDE8104000F0A6B94FF0000287
:100B500000B5134694469646203922BFA0E80C50B3
:100B6000A0E80C50B1F12001BFF4F7AF090728BF8E
:100B7000A0E80C5048BF0CC05DF804EB890028BF0A
:100B800040F8042B08BF704748BF20F8022B11F033
:100B9000804F18BF00F8012B7047000000487047D5
:100BA00014010020004870471C0100207047704766
:100BB0007047704738B504460A4600206946AFF3CF
:100BC0000080002808BF38BD02460099204600F08A
:100BD00090F9012038BD012000F0DFB9F8B5AFF37E
:100BE0000080054600200C46102000BF0646A819CC
:100BF000A0420DD9324669460020AFF300800700BD
:100C000008BF00F0CAF90098A04218BF0546C419F1
:100C1000FFF7C8FF05600746F01D20F007004619E2
:100C2000284600F05FF9B44208BFF8BDA21B314668
:100C30003868BDE8F84000F05CB970B50646FFF7CB
:100C4000B1FF056806F10B0020F00704B4429CBF19
:100C5000002070BD2B466A68BAB11068A04210D35C
:100C600004F1080188423CBF5068586007D35168BE
:100C7000101941601168091B016058601460101D53
:100C800070BD13465268002AE7D121462846FFF777
:100C900091FF0028DED170BD2DE9F04104461646D3
:100CA0000D464769007B80072ED0384600F0B6FD20
:100CB00050BB3EB3012E02D0022E25D104E02046C7
:100CC00000F031F905441DE0384600F0A5FDE1686B
:100CD000002841F01001E16005DA204600F058F8E4
:100CE0000120BDE8F081C9030BD56268E16A914239
:100CF00000D81146A26911442269891A814200DD97
:100D000008460544002D01DA0220EAE7E16A60683E
:100D1000E268814206D29103E06203D522F40031F9
:100D200041F01002A6690027AE4213DCE16A81425D
:100D300001D90B4600E0034603EB060C2369ACEB3C
:100D4000030CAC4506DD814201D98C4600E08446A7
:100D50009C4505D1A760276042F02000A5620DE008
:100D6000AD1BE669AE1B8142A66000D90846C01AD9
:100D7000281A20605819606022F0200003490840BA
:100D8000E060002084F84870ABE70000BFCFD7FFD9
:100D9000C16821F4001141F08001C160002181602F
:100DA000016070472DE9F74F15460C464FF0FF3BA9
:100DB0003848D768D2F814A0074209D05046A9692C
:100DC00000F066FD002819DB3248C0430740EF60A1
:100DD0004FF000496FF000484C4501D3464600E013
:100DE000264600993B465046324600F055FDA9691B
:100DF00020F00042B21A1144A96128B12846FFF739
:100E0000C7FF5846BDE8FE8FA41BE5D10020F9E7D7
:100E100070B504460569C06A6168884200D8084612
:100E2000E16821F42011E160C90312D5A84208D07D
:100E30002246411B2846FFF7B5FF10B14FF0FF30A7
:100E400070BD0020E562C4E90150E06820F4803004
:100E5000E060002070BD10B50446C06820F020009E
:100E6000E060A16AA06988420DD02046FFF7D0FF5C
:100E7000E06820F4405040F01000E060A06AA061FB
:100E80002069E062606044F24001E0688843E0600D
:100E900010BD000010000200002801D000F01CB8B6
:100EA0007047000010B5014602A000F05DF8012077
:100EB00010BD000053494752545245443A205265F0
:100EC0006469726563743A2063616E2774206F7081
:100ED000656E3A200000000001491820ABBEFEE715
:100EE0002600020000210160C0E9011070471020B7
:100EF0007047034640688C46002818BF88423CBFB4
:100F000003464068F8D318681844884207D00CF1AB
:100F1000030020F00700001D411A521A0146081D67
:100F20000A60FFF72ABC10B50146C268900703D0DB
:100F3000900607D5886A0AE000F03EF801210160BA
:100F4000881E10BD8B69486818440B69C01A91F857
:100F500048301BB191F84910401A10BD1103FCD55F
:100F60000028FADD401E10BD70B505460C460A206B
:100F700000E06D1C00F018F835B128780028F8D191
:100F800002E0641C00F010F814B120780028F8D1B9
:100F9000BDE870400A2000F007B810B500F010F866
:100FA000BDE81040FFF778BF08B569468DF800002E
:100FB0000320ABBE08BD70470048704714010020F5
:100FC00010B5012805D0002103A0FFF7CDFF0120B7
:100FD00010BD09A1F8E7000053494752544D454D53
:100FE0003A204F7574206F662068656170206D65CA
:100FF0006D6F7279000000003A2048656170206DC5
:10100000656D6F727920636F7272757074656400BC
:10101000FEE700007047000040F27410C2F20000CA
:101020000068704740F20C0040F27411C2F20000F8
:10103000C2F2000100780A6810440860704700009E
:1010400080B543F60040C4F20200016841F400712B
:101050000160016841F480610160016841F48071C0
:101060000160032000F074F80F2000F005F800F094
:1010700027F8002080BD000070B540F20C06C2F2D7
:10108000000640F214013278C2F200014FF47A7384
:101090000968B3FBF2F20446B1FBF2F1084600F036
:1010A0000DFB0F2C4FF0010508D838B94FF0FF3079
:1010B00021460022002500F01FF87460284670BD0C
:1010C00082B0002043F640010190C4F202014A6858
:1010D00042F480424A604A6802F480420192019AD6
:1010E0000090086840F080500860086800F0805068
:1010F0000090009802B0704710B54EF60C5CCEF22E
:10110000000CDCF80030C3F3022E8EF00704042C30
:1011100028BF0424BEF103034FF0FF3E0EFA04F48F
:1011200038BF0023A14399400EFA03F39A431143B9
:1011300000F00F0200F160430901043A03F5644333
:101140006244002848BF02F10C03197010BD000072
:101150004EF60C51CEF200010A684FF6FF031A401A
:1011600060F30A2242F0806040F0FD700860704732
:101170002DE9F041002800F08B8043F60808C4F206
:1011800002080446D8F8F8030D4600F0070088422C
:1011900007D288F8F853D8F8F80300F00700A842FF
:1011A00076D12068810717D5410705D5D8F80010FA
:1011B00041F4E051C8F80010010705D5D8F8001037
:1011C00041F46041C8F80010D8F80010A26821F07E
:1011D000F0011143C8F80010C0073FD1D8F8F80358
:1011E00000F00700A84207D988F8F853D8F8F803A8
:1011F00000F00700A8424BD12068410707D5D8F876
:101200000010E26821F4E0511143C8F80010000713
:1012100008D5D8F80000216920F4604040EAC100F8
:10122000C8F8000000F05AF8D8F8001041F69242D1
:10123000C1F30311C0F60002515C40F2140220FA1F
:1012400001F140F21000C2F200000068C2F2000298
:101250001160FFF711FF0020BDE8F0816068811E7A
:10126000022907D258F8081C89015CBF0120BDE89B
:10127000F08111E0012807D158F8081C89035CBFF0
:101280000120BDE8F08107E058F8081C890703D465
:101290000120BDE8F08100BFD8F8001021F0030163
:1012A0000843C8F80000FFF7B7FE064641F288374A
:1012B000D8F80000616800F00C00B0EB810F8DD011
:1012C000FFF7AAFE801BB842F2D90320BDE8F081E7
:1012D00040F21400C2F200000068704710B543F6F7
:1012E0000404C4F20204606800F00C0142F2004001
:1012F0000829C0F2F40007D0042918BF10BD41F23C
:101300000020C0F27A0010BD216801F03F02216880
:1013100023684902C3F3881106D4A1FB000100230E
:10132000FEF7AEFF07E000BF41F20020C0F27A00F6
:101330004843B0FBF2F021680222C1F3014102EB05
:101340004101B0FBF1F010BD2DE9F04182B0002861
:1013500068D00446007843F60006C007C4F20206CF
:101360000BD0B06800F00C00042840F09F8030687B
:10137000800302D56068002854D0207880071AD5F1
:10138000B06810F00C0F09D0B06800F00C0008280D
:1013900040F0A6807068400200F1A28030688007AB
:1013A00002D5E06801283DD13068216920F0F800BD
:1013B00040EAC10030602078000737D42078400729
:1013C0004CD4A56955B3B06800F00C00082840F073
:1013D000BB80012D26D07068E16900F480028A424A
:1013E00020D1216A00F03F028A421BD147F6C0712A
:1013F000626A0140B1EB821F14D1A16A4FF6FF73FC
:10140000C903994300F44032A1F580318A4209D1E1
:10141000E16A00F07060B0EB016F03D1002002B010
:10142000BDE8F081012002B0BDE8F08160690028CC
:1014300040F20000C4F2472076D00121C0F8801E9F
:10144000FFF7EAFD054600BF706F8007B6D4FFF7CF
:10145000E3FD401B0228F7D9DDE000BF306C10F03F
:1014600080580AD100200190306C40F080503064E8
:10147000306C00F080500190019847F20007C4F2F0
:1014800000073868C00541D4386840F4807038607F
:10149000FFF7C2FD054600BF3868C00536D4FFF728
:1014A000BBFD401B0228F7D9B5E000BFB06800F0D3
:1014B0000C00082803D1706840023FF558AF6068FF
:1014C000B0F5803F07D0B0F5A02F40F08D80306898
:1014D00040F480203060306840F4803030608DE02F
:1014E000E068002852D00020C4F2472001210160AA
:1014F000FFF792FD054600BF306880073FF554AF07
:10150000FFF78AFD401B0228F6D984E0A068012875
:1015100005D005284ED1306F40F004003067306FA1
:1015200040F0010030674FE00021C0F8801EFFF757
:1015300073FD0546706F80077FF540AFFFF76CFDC8
:10154000401B0228F6D966E00027C4F24727002096
:101550003866FFF761FD022D05460BD1306880012A
:101560005ED5FFF759FD401B02284FF00300F5D967
:1015700055E700BF306880017FF550AFFFF74CFDA5
:10158000401B02284FF00300F4D948E70020C4F2C2
:10159000472000210160FFF73FFD054630688007C6
:1015A0007FF509AFFFF738FD401B02284FF003001D
:1015B000F4D934E7316F002821F001013167316F30
:1015C00021F0040131674DD0FFF726FD054641F2B9
:1015D000883700BF306F800756D4FFF71DFD401BD2
:1015E000B842F7D917E000BF3168002821F48031F4
:1015F0003160316821F4802131604FD0FFF70CFD5C
:10160000054600BF306880033FF5B7AEFFF704FD25
:10161000401B6428F6D9032002B0BDE8F08100BF6A
:1016200004F11C052FCD084340EA8210D9034FF680
:10163000FF729143A1F5803140EA05600843706074
:1016400001203866FFF7E8FC044600BF30688001DF
:101650003FF5E4AEFFF7E0FC001B02284FF003006B
:10166000F4D9DCE6FFF7D8FC054641F2883700BF25
:10167000306F800708D5FFF7CFFC401BB8424FF012
:101680000300F5D9CBE600BFB8F1000F7FF499AEA7
:10169000306C20F08050306493E600BFFFF7BCFC54
:1016A000054600BF306880037FF567AEFFF7B4FCE6
:1016B000401B64284FF00300F4D9B0E6411E00201F
:1016C000B0EB116F1CBF012070474EF21002CEF23A
:1016D000000251604EF62351CEF20001F0230B7050
:1016E0000721906011607047FEE7000082B0002083
:1016F00043F630010190C4F202010A6842F004028C
:101700000A600A6802F004020192019A00900868D7
:1017100040F080000860086800F0800000900098A9
:1017200002B07047FEE70000FEE7000070470000CF
:1017300070470000FFF776BCB0B592B0002443F6C6
:1017400040000B94CDE90944CDE907440594CDE967
:101750000344CDE901440094C4F20200016802256B
:1017600041F080510160006800F0805000900098C6
:1017700047F200000094C4F20000016841F4804187
:101780000160006800F480400090009801200690FD
:101790004FF48030099010200A9008200E90A82065
:1017A000CDE90F050420119006A8CDE90C54FFF7F0
:1017B000CBFD28B1EFF3108072B600BFFEE700BF8B
:1017C0000F20CDE901054FF4A05004904FF4805054
:1017D000059001A805210394FFF7CAFC20B1EFF39F
:1017E000108072B6FEE700BF12B0B0BD4EF6885052
:1017F000CEF20000016841F4700101607047000002
:10180000FEE7000048F20401411A002011F1030F25
:1018100038BF4FF0FF3070470020704748F2010199
:10182000411A0020032938BF0120704710B518B3B2
:10183000044600783A281FD141F6AA41C0F60001BB
:101840002046FEF711FED8B141F6B141C0F60001C5
:101850002046FEF709FEB8B141F6A241C0F60001EC
:101860002046FEF701FE01464FF0FF30002908BF79
:1018700048F2030010BD00BF4FF0FF3010BD00BFA5
:1018800048F2010010BD00BF48F2020010BD000088
:101890004FF0FF307047000070B548F203039842E4
:1018A0002ED048F20203984258D1002A00F09881C5
:1018B00040F6006CCEF2000C12F00304A2F1010E0F
:1018C00050D00B4613F8010BDCF88050ED071CBF1D
:1018D000DCF800505FEAC5754CD1012C704600F071
:1018E0008E804878DCF88030DB071CBFDCF80030E5
:1018F0005FEAC37364D1022C73D18B1C901E7EE00F
:10190000002A00F06D8140F6006CCEF2000C12F05F
:101910000304A2F1010E29D00B4613F8010BDCF8E9
:101920008050ED071CBFDCF800505FEAC57533D16D
:10193000012C704600F0EC804878DCF88030DB0742
:101940001CBFDCF800305FEAC37340F0C380022C98
:1019500040F0D1808B1C901EDAE000BF4FF0FF30CA
:1019600070BD00BF10460B4649E000BF10460B4655
:10197000CEE000BF4FF060452E6836B92E6826B91C
:101980002E6816B92E68002EF6D04FF060452870EC
:10199000012C704633D0A4E74FF060452E6836B96D
:1019A0002E6826B92E6816B92E68002EF6D04FF094
:1019B00060452870012C704600F0AA80BCE700BF8B
:1019C0004FF060431D6835B91D6825B91D6815B90C
:1019D0001D68002DF6D04FF060431870022C3FF4C4
:1019E0008CAF8878DCF88030DB0701F103031CBF83
:1019F000DCF800105FEAC17140F0F480D01EBEF147
:101A0000030F3CBF002070BD4FF0604107E000BFF6
:101A10000A7000BF043803F1040300F0E1801A7873
:101A2000DCF88060F6071CBFDCF800605FEAC67671
:101A30002CD15A78DCF88060F6071CBFDCF8006017
:101A40005FEAC6762ED19A78DCF88060F6071CBF74
:101A5000DCF800605FEAC67630D1DA78DCF88060C6
:101A6000F6071CBFDCF800605FEAC676D2D000BF84
:101A70000E68002ECCD10E68002EC9D10E68002E43
:101A8000C6D10E68002EF3D0C2E700BF0E6836B98B
:101A90000E6826B90E6816B90E68002EF6D00A70C8
:101AA000C7E700BF0E6836B90E6826B90E6816B9CA
:101AB0000E68002EF6D00A70C5E700BF0E6836B972
:101AC0000E6826B90E6816B90E68002EF6D00A7098
:101AD000C3E700BF4FF060431D6835B91D6825B9E5
:101AE0001D6815B91D68002DF6D04FF060431870C1
:101AF000022C3FF42FAF8878DCF88030DB0701F14F
:101B000003031CBFDCF800105FEAC1717AD1D01E5C
:101B1000BEF1030F3CBF002070BD4FF0604105E0F7
:101B20000A7000BF043803F1040359D01A78DCF8B6
:101B30008060F6071CBFDCF800605FEAC6762BD138
:101B40005A78DCF88060F6071CBFDCF800605FEABA
:101B5000C6762DD19A78DCF88060F6071CBFDCF8D9
:101B600000605FEAC6762FD1DA78DCF88060F6078D
:101B70001CBFDCF800605FEAC676D3D00E68002E8A
:101B8000CED10E68002ECBD10E68002EC8D10E68C3
:101B9000002EF3D0C4E700BF0E6836B90E6826B930
:101BA0000E6816B90E68002EF6D00A70C8E700BF9E
:101BB0000E6836B90E6826B90E6816B90E68002E82
:101BC000F6D00A70C6E700BF0E6836B90E6826B9AF
:101BD0000E6816B90E68002EF6D00A70C4E700BF72
:101BE000002070BD4FF060410C6834B90C6824B916
:101BF0000C6814B90C68002CF6D04FF060410870E6
:101C0000FCE600BF4FF060410C6834B90C6824B9A1
:101C10000C6814B90C68002CF6D04FF060410870C5
:101C200075E70000FFF70CFAFFF786FDFFF75EFD92
:101C300004A400BFFFF74CFB01462046FEF798FBCB
:101C4000F8E700BF48414C5F5243435F4765744823
:101C5000434C4B467265712025640A008A68002A4D
:101C600002DC0022FEF7B0BD521E8A604A68C0B294
:101C7000531C4B6010707047F1EE100A4FF6FF7165
:101C8000C0F2C03120EA010040F04070E1EE100ADD
:101C90007047000000000000000001020304060776
:101CA00008093A535444455252003A535444494E59
:101CB000003A5354444F555400000000E01C000803
:101CC0000000002018000000C4010008F81C0008F3
:101CD0001800002060070000E0010008000000007C
:101CE00000000000000000000000000001000000F3
:081CF000100000000024F400C4
:040000050800018965
:00000001FF
