:020000040800F2
:10000000C80600204D020008351C0008451B0008EA
:10001000311C00080D0C0008091D0008000000003C
:100020000000000000000000000000003D1C00086F
:10003000110C000800000000391C0008411C0008D9
:1000400067020008670200086702000867020008EC
:1000500067020008670200086702000867020008DC
:1000600067020008670200086702000867020008CC
:1000700067020008670200086702000867020008BC
:1000800067020008670200086702000867020008AC
:10009000670200086702000867020008670200089C
:1000A000670200086702000867020008670200088C
:1000B000670200086702000867020008670200087C
:1000C000670200086702000867020008670200086C
:1000D000670200086702000867020008670200085C
:1000E000670200086702000867020008670200084C
:1000F000670200086702000867020008670200083C
:10010000670200086702000867020008670200082B
:10011000670200086702000867020008670200081B
:10012000670200086702000867020008670200080B
:1001300067020008670200086702000867020008FB
:1001400067020008670200086702000867020008EB
:1001500067020008670200086702000867020008DB
:1001600067020008670200086702000867020008CB
:10017000670200086702000867020008000000002C
:10018000670200086702000800F002F800F04FF86C
:100190000AA090E8000C82448344AAF10107DA45E2
:1001A00001D100F044F8AFF2090EBAE80F0013F0E5
:1001B000010F18BFFB1A43F001031847F026000097
:1001C00010270000103A24BF78C878C1FAD8520727
:1001D00024BF30C830C144BF04680C6070470000C1
:1001E0000023002400250026103A28BF78C1FBD840
:1001F000520728BF30C148BF0B607047662902F024
:10020000E882642900F0BA80782900F0F3800020A9
:1002100070471FB502F0D0FA00F0C2FB04000020C6
:10022000002102F0B3FAE0601FBD10B510BD00F070
:10023000B7FC1146FFF7EDFF01F070FE00F0D5FCB2
:1002400003B4FFF7F2FF03BC00F0D8FC0948804775
:1002500009480047FEE7FEE7FEE7FEE7FEE7FEE7A8
:10026000FEE7FEE7FEE7FEE704480549054A064BC0
:1002700070470000F51C000889010008C800002034
:10028000C8060020C8020020C802002053EA020C61
:1002900000F069802DE9F04B4FF00006002B1FBFE6
:1002A000B3FA83F503FA05F424FA05F65E4012BFAB
:1002B0001643B2FA82F502FA05F4C5F120051EBF15
:1002C00022FA05FC44EA0C04203556EA044C4FEAB5
:1002D000144418BF641C4FF000084FF0000990420E
:1002E00071EB030C39D3002919BFB1FA81F701FA78
:1002F00007F6B0FA80F700FA07F6C7F120071EBF2D
:1003000020FA07FC46EA0C062037B6FBF4FCA7EB04
:100310000507103F07F01F0BCBF120062CFA06F65D
:100320000CFA0BFB44BFB3460026202FA4BF5E4649
:100330004FF0000B5BEA060C08BF4FF0010B19EB06
:100340000B0948EB0608ABFB027C06FB02CC0BFB5F
:1003500003CCC01B71EB0C01C1E70B4602464146C2
:100360004846BDE8F08B13B5084318BF4FF0FF3087
:100370000146AFF30080BDE81C4070472DE9F04115
:100380000646002410687529314616A510D0AFF333
:100390000080002802DA404213A507E031688A078E
:1003A00001D512A502E0490704D511A5012401E0F9
:1003B000AFF3008000210A2206F1240709E0B0FB18
:1003C000F2FCB0FBF2F302FB1C003030785418460C
:1003D000491C0028F3D123462A463046BDE8F041A7
:1003E00000F077B8000000002D0000002B00000096
:1003F0002000000070B504460D4621461068AFF39A
:1004000000802188090502D50F4A7A4402E00E4A8D
:100410007A440E32002104F1240305E000F00F06B7
:100420000009965D5E54491C0028F7D1207800230E
:10043000000704D5702D02D009B1022311322046E5
:10044000BDE8704000F045B8C8230000000000007F
:1004500030B44FF0013C50F8042B51F8043BCCFA77
:1004600052F4D51A20D1FCB950F8042B51F8043BB2
:10047000CCFA52F4D51A17D1B4B950F8042B51F86C
:10048000043BCCFA52F4D51A0ED16CB950F8042BB7
:1004900051F8043BCCFA52F4D51A05D1002CDAD02D
:1004A00030BC4FF00000704729BAB1FA81F111F069
:1004B0001801D1F120008440F2D1CA40CB4012F0A3
:1004C000FF0213F0FF0330BCD01A7047704770472B
:1004D00070472DE9F0470D4699469246044600F1D3
:1004E00024080168880604D5E06921F01001216024
:1004F00000E00120A84201DD471B00E00027A169C0
:100500007A1902EB0900081AA0612078C00602D40B
:100510002046AFF30080002608E0D4E901211AF854
:1005200006009047206A401C761C20624E45F4DB92
:100530002078C0060AD52046AFF3008006E0D4E953
:10054000012130209047206A401C2062381EA7F10C
:100550000107F4DC07E0D4E9012118F80500904711
:10056000206A401C2062281EA5F10105F3DC20460C
:10057000AFF300802078000602D50220BDE8F087A6
:100580000120FBE72DE9FF4F0C461E464FF0FF37D9
:100590008BB0D2E90001DDF860800A908A46C1F391
:1005A0000A5505B93D46002108464FF00000BAF152
:1005B000000F00F4400005DA00EB80004FF440012A
:1005C00001EA50004FEA9059B9F1010F00DDB94638
:1005D0000A9850EA4A000ED044F61050A5F2FF35B2
:1005E00045432F14B8F1000F1ED07542291E1EDDA1
:1005F000C9F100021CE0B8F1010F4FF0000001D07A
:10060000302103E0F24305E02154401CB042FBDB03
:1006100030460022002121540B99C1F80880C1E91D
:1006200000200FB0BDE8F08FBD1B6D1CDEE74A4611
:1006300000DA694206A800F03DFA06AB93E807002D
:1006400003AB83E8070050460A9901F0BEFC8DE831
:100650000700A0F500501F3800900398002D0ADD18
:1006600042F21F014A460844002303A9039068464A
:1006700001F028FF09E0A0F500504A461F3800238A
:1006800003A90390684601F032FF8DE807000004DB
:10069000000C03D04FF0FF30410800E01046B8F1E5
:1006A000000F03D00022009215461EE0751E05D4EF
:1006B00000F07AF9303262556D1EF9D5B346012249
:1006C000084302D000227F1C04E02078302801D1AA
:1006D00000227F1E002A099784D01DE0112D07DA21
:1006E00000F062F9303262556D1C50EA0102F5D11A
:1006F000084302D00098C8B10EE00021681E05E052
:10070000235C625C63542254401E491C8142F7DB27
:10071000AB46A81B401E0990002004F80B000B9864
:10072000099AC0F80880C0E9002B7AE711264FF03B
:10073000000857E72DE9F04F88460446D21D22F005
:10074000070191B0D1E90001CDE90A0102F006F8F4
:1007500002460B98C00F01D02D2007E020688107CA
:1007600001D52B2002E0202101EAC000032A0990D4
:1007700001D0072A05DB03464146204600F05AF91E
:100780000BE12078800601D5E06900E00620B8F191
:10079000650F814606D0B8F1660F18D0B8F1670F23
:1007A00070D131E00020B9F1110F009001DB11236D
:1007B00001E009F101030AAA01A90CA8FFF7E2FE72
:1007C000DDE90C70002609F10105834647E00120B0
:1007D0004B4600904FF000470AAA01A90CA8FFF76A
:1007E000D1FEDDE90DB00C995D46002610B909F186
:1007F00001000D18B9EB050003D4C0F1FF3609F173
:100800000105A5EB09002BE0B9F1010F01DA4FF06A
:1008100001090020B9F1110F0090484601DD1123B4
:1008200000E003460AAA01A90CA8FFF7ABFEDDE928
:100830000C704D4600268346207800070AD4AB454D
:1008400000DA5D4601A8012D04DD411911F8011CF3
:10085000302907D04F4502DA17F1040F04DA0120DE
:1008600082460FE06D1EEEE7002F02DCED1B3E44DA
:1008700003E0781CA84200DD7D1CB81B00F1010AD2
:100880004FF000472078000703D4AA4501DB4FF062
:10089000FF3A0021B7F1004F0DF143088DF84310E6
:1008A00024D002202B23002F01DA7F422D230A219E
:1008B000021EA0F1010000DC5FB197FBF1FC97FB89
:1008C000F1F201FB1C7C17460CF1300C08F801CD4D
:1008D000EEE7A8F1010003702188090501D5452143
:1008E00000E06521A0F1010800F8011C09980FA99A
:1008F000A1EB0807FF1D00B10120411901EBEA70CF
:10090000A1693844081A401EA0612078C00602D4AC
:100910002046AFF30080099828B1D4E9012190471F
:10092000206A401C20622078C00622D52046AFF302
:1009300000801EE0002E04DBB34502DD01A8805DCF
:1009400000E03020D4E901219047206A401C206259
:10095000761CAAF101005FEA000A0AD100F020F833
:10096000C0680168405CD4E901219047206A401CBE
:100970002062281EA5F10105DCDC07E0D4E9012195
:1009800018F8010B9047206A401C2062381EA7F11E
:100990000107F3DC2046AFF30080032011B041E6ED
:1009A000004870473000002030B5B0F10A0271F104
:1009B00000034FEA900E4EEA817EB0EB0E0061EB31
:1009C00091014FEA101E4EEA017E10EB0E0041EB42
:1009D00011114FEA102E4EEA016E10EB0E0041EBA2
:1009E00011214FEA104E4EEA014E10EB0E0041EB82
:1009F0001141401841F100014FEAD00040EA417036
:100A00004FEAD1014FEA810444EA907410EB80056B
:100A100044EB01046D1944EB0404521BA3414FF055
:100A2000000348BF0A3200D530BD401C41F100012F
:100A300030BD00002DE9F0411F4604460326016841
:100A4000072A01F4006004DB08B116A505E016A52D
:100A500003E008B115A500E015A521F01000206005
:100A6000A069C01EA0610FB1401EA0612046AFF377
:100A700000804FB1D4E9012138469047206A401CDC
:100A80002062C01C206206E0206AFAE7D4E9012156
:100A900015F8010B9047761EF8D22046AFF3008080
:100AA000BDE8F0814E414E006E616E00494E460039
:100AB000696E66002DE9F047814616468AB03548D2
:100AC00078440DC88DE80D0032487844801C03AC92
:100AD0000DC884E80D0041F69B300844372190FB97
:100AE000F1F290FBF1F5A5F1800501FB12041B3C2E
:100AF00002D56442012000E00020DFF898A0804683
:100B00000027FA44AAF1BE0A0EE0E0070AD03246F6
:100B1000684607EB470101230AEB810101F0E7FC7E
:100B20008DE8070064107F1C002CEED1194F7F4424
:100B3000AE3F19E0E80715D007EB04100DF1180AD5
:100B400090E80E008AE80E00C068F04201D19819C2
:100B500008903246012306A903A801F0C8FC03ABA4
:100B600083E807006D10641C002DE3D14FF00103F2
:100B700032466946B8F1000F03A802D001F0A2FC8A
:100B800001E001F0B4FCC9E90001C9F808200AB08D
:100B9000BDE8F087B81D0000004870471000002035
:100BA0007546FFF7F9FFAE4605006946534620F04B
:100BB0000700854618B020B5FFF756FBBDE820407A
:100BC0004FF000064FF000074FF000084FF0000B09
:100BD000AC46ACE8C009ACE8C009ACE8C009ACE878
:100BE000C00921F007018D46704710B50446AFF3E8
:100BF00000802046BDE81040FFF722BB01491820C5
:100C0000ABBEFEE72600020070470000FEE70000D2
:100C100070470000EFF3108072B600BFFEE70000DF
:100C2000B0B5044600F0EAF8054640F20000C2F212
:100C300000000078611C18BF044400BF00F0DEF81B
:100C4000401BA042FAD3B0BD2DE9F04F82B000F1B5
:100C50003E4241F6004502F1FF77C4F20205082248
:100C600043F6004E4FEAB726A84208BF0722C4F257
:100C7000010E072E38BF4FEAB722012500260027B4
:100C80004FF00008009208E008F101080437B8F1BD
:100C9000100F06F1020600F0A7800C6805FA08F9AB
:100CA00014EA090FF0D0D1F804B003220BF0030CC2
:100CB000ACF10104B240012C6FEA020A10D882683C
:100CC000CC6802EA0A02B440224382604268CBF355
:100CD000001422EA090204FA08F42243426005E003
:100CE000BCF1030F02D14FF0030C20E0C2688C6806
:100CF00002EA0A02B4402243BCF1020FC26016D1DC
:100D00006FF0030202EA58020244D2F820C007F052
:100D10001C050F230C69AB402CEA030304FA05F50C
:100D20002B431362D1F804B001250BF0030C0268C9
:100D30000CFA06F302EA0A021A431BF4403F02606F
:100D4000A2D0002243F644030192C4F202031A68BF
:100D50004FF6084C42F480421A601A68CFF6FF7CC6
:100D600002F480420192019A28F00302724452F880
:100D70000C3007F00C050F24AC40A343009C04FA90
:100D800005F52B4342F80C30DEF808204B6842EAA8
:100D9000090543F60C4CDC0258BF22EA0905CEF8DF
:100DA0000850C4F2010CDCF800209C0242EA09055C
:100DB00058BF22EA0905CCF80050DEF804209C0355
:100DC00042EA090558BF22EA0905CEF80450DEF8C8
:100DD0000020DB0342EA090558BF22EA0905CEF8E4
:100DE0000050012550E700BF02B0BDE8F08F0000C1
:100DF000002A08BF090481617047000040F2C40066
:100E0000C2F200000068704770B5B8B3044690F8AD
:100E10003D0028B9002084F83C00204600F0ECFAA0
:100E2000242084F83D002068016821F00101016060
:100E3000016841F400410160016821F40041016052
:100E400000F066FC48F28041C0F21E0140F600133B
:100E5000D4F804E088424FF00001C0F23D0348F2AC
:100E6000A16C4FF0000238BF01219842C0F2010C82
:100E700038BF0122E64538BF0A460AB1012070BDDD
:100E80004DF68361C4F21B31A0FB01122168950C61
:100E90004B684FF4967623F03F0343EA9243754341
:100EA00044F6D3564B60C1F262060B6AA5FB0656A8
:100EB000B50923F03F03E64538BF950C6A1C1A4379
:100EC0000A62CA6948F2A0664CF6FF73C0F20106D6
:100ED000B64522EA03020BD801384FEA4E03B0FBB5
:100EE000F3F001306FF31F30042898BF04201EE098
:100EF000A368013863B119230EFB03F3B0FBF3F0D1
:100F000001306FF31F3078B100F5804008E000BF7A
:100F10000EEB4E03B0FBF3F001306FF31F3028B13E
:100F200000F5004003E000BF012000E00120104375
:100F3000C8610868D4E9072320F0C00010431843B3
:100F40000860886848F2FF3204F10C0690434CCEEA
:100F500018431043A5698860C86820F0FF0030433B
:100F60002843C860086840F0010008600020202184
:100F7000206484F83D10206384F83E0070BD0000BA
:100F80002DE9F04381B01F46164688460446FFF718
:100F900035FF94F83D10202920D10546206881694D
:100FA000890717D5FFF72AFF401B1928F6D900201B
:100FB0002021206384F83D1084F83E00216C022635
:100FC00041F02001216484F83C00304601B0BDE8C6
:100FD000F08300BF94F83C10012905D10226304669
:100FE00001B0BDE8F08300BF012184F83C10016826
:100FF000C90703D1016841F001010160016821F4D2
:1010000000610160212184F83D10102184F83E1018
:101010000021216466626785618D21850021CFF6FC
:10102000FF71E162E16A11F5803F18BF012919D112
:10103000016841F4807101604169DDF82090C907C1
:1010400023D119F1010116D0B9F1000F46D000BF2C
:10105000FFF7D4FE401B484542D820684169C907C4
:10106000F6D012E00829E3D0216B1229E0D0E3E7A3
:101070004169C90709D14169C90706D14169C90751
:1010800004BF41695FEAC171F2D02169B1F5804FB7
:1010900002D1FE2161E000BF062101EAD811F03142
:1010A00001614169090757D4416919F1010201F44D
:1010B00080612FD0002946D1B9F1000F00F04281A4
:1010C000FFF79CFE401B484500F23E8120684169C5
:1010D000090741D441694905F2D534E0FFF78EFE96
:1010E00000202021206384F83D1084F83E00216C0C
:1010F000012641F020012164216884F83C00086841
:10110000C00544BF4FF400702064304601B0BDE814
:10111000F08300BFB9B9416909071DD44169490588
:1011200011D44169090717D4416949050BD44169B4
:10113000090711D44169490505D4416909070BD450
:1011400041694905E7D5016841F4007101606FF418
:10115000806141610420F8E0FF2101EA080101619A
:10116000416989073AD4416919F1010201F48061AA
:1011700012D051BBB9F1000F00F0E080FFF73EFE46
:10118000401B484500F2DC8020684169890725D46E
:1011900041694905F2D518E0B9B9416989071DD4FB
:1011A0004169490511D44169890717D44169490545
:1011B0000BD44169890711D44169490505D44169B6
:1011C00089070BD441694905E7D5016841F40071ED
:1011D00001606FF4806141610420B6E00026009652
:1011E00041690091816900910099218D002900F0E9
:1011F000958009F10108014651F8142F120635D4E3
:10120000B8F1000F16D0B9F1000F00F0AF8000BFA9
:101210000868400500F1B280FFF7F0FD401B48452B
:1012200000F2A9802068014651F8142F1206EFD56C
:101230001CE000BF0A68520500F1A0800A6812068F
:1012400014D40A68520500F199800A6812060DD478
:101250000A68520500F192800A68120606D40A68EC
:10126000520500F18B800A681206E3D5636A1946BD
:1012700011F8012B02616162618D01396185278D51
:101280000146A7F1010CA4F828C051F8142F520709
:101290000DD55FEA0C420AD05A78A7F1020C026120
:1012A0009A1C6262628D013A6285A4F828C00A68BD
:1012B00052072FD4B8F1000F14D0B9F1000F7BD032
:1012C0000868400500F18080FFF798FD401B484505
:1012D00077D82068014651F8142F5207F0D5B4F89A
:1012E00028C017E00A6852056ED40A68520711D464
:1012F0000A68520568D40A6852070BD40A68520576
:1013000062D40A68520705D40A6852055CD40A6898
:101310005207E7D55FEA0C417FF46DAF016841F4F5
:1013200000710160202084F83D0084F83E6084F85C
:101330003C60304601B0BDE8F08300BFFFF75EFDC2
:10134000202002E0FFF75AFD202000212022216307
:1013500084F83D2084F83E10226C0126104320645E
:1013600084F83C10304601B0BDE8F08308684005C1
:1013700004D4FFF743FD202004E000BF6FF4806039
:101380000860042000212022216384F83D2084F895
:101390003E10226C1043206484F83C10206C04281A
:1013A00025D120680126016841F4007101603046B2
:1013B00001B0BDE8F08300BF0868400504D4FFF722
:1013C0001DFD202004E000BF6FF480600860042051
:1013D00000212022216384F83D2084F83E10226CF5
:1013E0001043206484F83C10206C0428D9D00126D6
:1013F000304601B0BDE8F083B0B586B0016845F273
:101400000040C4F20000814202D006B0B0BD00BF6F
:10141000002443F630050194C4F20205296800F562
:10142000D83041F002012960296801F002010191E0
:101430000199C02101911221CDE9021403210491E7
:101440000421059101A9FFF7FFFB0094286940F4EE
:1014500000102861286900F400100090009806B080
:10146000B0BD000040F2000040F2C401C2F2000032
:10147000C2F2000100780A6810440860704700005A
:1014800080B543F60040C4F20200016841F40071E7
:101490000160016841F480610160016841F480717C
:1014A0000160032000F074F80F2000F005F800F050
:1014B00027F8002080BD000070B540F20006C2F29F
:1014C000000640F208013278C2F200014FF47A734C
:1014D0000968B3FBF2F20446B1FBF2F1084600F0F2
:1014E0001BFB0F2C4FF0010508D838B94FF0FF3027
:1014F00021460022002500F01FF87460284670BDC8
:1015000082B0002043F640010190C4F202014A6813
:1015100042F480424A604A6802F480420192019A91
:101520000090086840F080500860086800F0805023
:101530000090009802B0704710B54EF60C5CCEF2E9
:10154000000CDCF80030C3F3022E8EF00704042CEC
:1015500028BF0424BEF103034FF0FF3E0EFA04F44B
:1015600038BF0023A14399400EFA03F39A43114375
:1015700000F00F0200F160430901043A03F56443EF
:101580006244002848BF02F10C03197010BD00002E
:101590004EF60C51CEF200010A684FF6FF031A40D6
:1015A00060F30A2242F0806040F0FD7008607047EE
:1015B0002DE9F041002800F08B8043F60808C4F2C2
:1015C00002080446D8F8F8030D4600F007008842E8
:1015D00007D288F8F853D8F8F80300F00700A842BB
:1015E00076D12068810717D5410705D5D8F80010B6
:1015F00041F4E051C8F80010010705D5D8F80010F3
:1016000041F46041C8F80010D8F80010A26821F039
:10161000F0011143C8F80010C0073FD1D8F8F80313
:1016200000F00700A84207D988F8F853D8F8F80363
:1016300000F00700A8424BD12068410707D5D8F831
:101640000010E26821F4E0511143C8F800100007CF
:1016500008D5D8F80000216920F4604040EAC100B4
:10166000C8F8000000F068F8D8F8001042F69402BC
:10167000C1F30311C0F60002515C40F2080220FAE7
:1016800001F140F20400C2F200000068C2F2000260
:101690001160FFF711FF0020BDE8F0816068811E36
:1016A000022907D258F8081C89015CBF0120BDE857
:1016B000F08111E0012807D158F8081C89035CBFAC
:1016C0000120BDE8F08107E058F8081C890703D421
:1016D0000120BDE8F08100BFD8F8001021F003011F
:1016E0000843C8F80000FFF789FB064641F2883737
:1016F000D8F80000616800F00C00B0EB810F8DD0CD
:10170000FFF77CFB801BB842F2D90320BDE8F081D3
:1017100040F2080043F60801C2F20000C4F20201E0
:101720000068096842F6A402C1F38221C0F60002F3
:10173000515CC8407047000010B543F60404C4F281
:101740000204606800F00C0142F200400829C0F277
:10175000F40007D0042918BF10BD41F20020C0F2E8
:101760007A0010BD216801F03F0221682368490218
:10177000C3F3881106D4A1FB00010023FEF786FD08
:1017800007E000BF41F20020C0F27A004843B0FBFE
:10179000F2F021680222C1F3014102EB4101B0FBEA
:1017A000F1F010BD2DE9F04182B0002868D0044668
:1017B000007843F60006C007C4F202060BD0B068FA
:1017C00000F00C00042840F09F803068800302D5B0
:1017D0006068002854D0207880071AD5B06810F0CF
:1017E0000C0F09D0B06800F00C00082840F0A6806B
:1017F0007068400200F1A2803068800702D5E0687E
:1018000001283DD13068216920F0F80040EAC1008C
:1018100030602078000737D4207840074CD4A56981
:1018200055B3B06800F00C00082840F0BB80012DD3
:1018300026D07068E16900F480028A4220D1216AD2
:1018400000F03F028A421BD147F6C071626A014034
:10185000B1EB821F14D1A16A4FF6FF73C9039943FC
:1018600000F44032A1F580318A4209D1E16A00F0EA
:101870007060B0EB016F03D1002002B0BDE8F081D1
:10188000012002B0BDE8F0816069002840F200004C
:10189000C4F2472076D00121C0F8801EFFF7AEFACF
:1018A000054600BF706F8007B6D4FFF7A7FA401B4C
:1018B0000228F7D9DDE000BF306C10F080580AD163
:1018C00000200190306C40F080503064306C00F0AB
:1018D00080500190019847F20007C4F20007386871
:1018E000C00541D4386840F480703860FFF786FA4C
:1018F000054600BF3868C00536D4FFF77FFA401BA5
:101900000228F7D9B5E000BFB06800F00C00082845
:1019100003D1706840023FF558AF6068B0F5803F72
:1019200007D0B0F5A02F40F08D80306840F48020C3
:101930003060306840F4803030608DE0E06800282E
:1019400052D00020C4F2472001210160FFF756FA6F
:10195000054600BF306880073FF554AFFFF74EFAE9
:10196000401B0228F6D984E0A068012805D005288C
:101970004ED1306F40F004003067306F40F001000E
:1019800030674FE00021C0F8801EFFF737FA0546A8
:10199000706F80077FF540AFFFF730FA401B0228D9
:1019A000F6D966E00027C4F2472700203866FFF723
:1019B00025FA022D05460BD1306880015ED5FFF770
:1019C0001DFA401B02284FF00300F5D955E700BF70
:1019D000306880017FF550AFFFF710FA401B0228F6
:1019E0004FF00300F4D948E70020C4F2472000215B
:1019F0000160FFF703FA0546306880077FF509AFFD
:101A0000FFF7FCF9401B02284FF00300F4D934E73C
:101A1000316F002821F001013167316F21F004019D
:101A200031674DD0FFF7EAF9054641F2883700BF2C
:101A3000306F800756D4FFF7E1F9401BB842F7D961
:101A400017E000BF3168002821F48031316031682F
:101A500021F4802131604FD0FFF7D0F9054600BF57
:101A6000306880033FF5B7AEFFF7C8F9401B642824
:101A7000F6D9032002B0BDE8F08100BF04F11C05D7
:101A80002FCD084340EA8210D9034FF6FF729143ED
:101A9000A1F5803140EA0560084370600120386696
:101AA000FFF7ACF9044600BF306880013FF5E4AEB3
:101AB000FFF7A4F9001B02284FF00300F4D9DCE67D
:101AC000FFF79CF9054641F2883700BF306F800769
:101AD00008D5FFF793F9401BB8424FF00300F5D942
:101AE000CBE600BFB8F1000F7FF499AE306C20F068
:101AF0008050306493E600BFFFF780F9054600BFD1
:101B0000306880037FF567AEFFF778F9401B6428E3
:101B10004FF00300F4D9B0E6411E0020B0EB116F86
:101B20001CBF012070474EF21002CEF2000251603D
:101B30004EF62351CEF20001F0230B700721906086
:101B400011607047FEE700002DE9F04186B00026E5
:101B500043F63000CDE904660096C4F20200016845
:101B6000002441F0100101600168C4F2020401F098
:101B700010010091009900960168012241F0800156
:101B8000016001684FF0C00801F0800100910099E8
:101B900000960168012741F001010160016801F030
:101BA0000101009100990096016841F00201016075
:101BB0000068C02100F00200009000982046FFF766
:101BC00017F9182001A901ADC1C104F580502946BB
:101BD000FFF73AF820462946CDE90187CDE90366AB
:101BE000FFF732F806B0BDE8F081000080B540F2A2
:101BF000700045F20041C2F20000C4F2000148F258
:101C0000A06200234FF4804CC0F2010280E80E0075
:101C1000C0E9033CC0E90533C0E90733FFF7F4F836
:101C2000002808BF80BDBDE88040FEF7F3BF00007C
:101C3000FEE70000FEE7000070470000704700006C
:101C4000FFF710BCB0B592B0002443F64000CDE9D8
:101C50000A44CDE908440594CDE90344CDE90144A3
:101C60000094C4F202000168022541F08051016035
:101C7000006800F080500090009847F20000009447
:101C8000C4F20000016841F4804101600068A821AD
:101C900000F4804000900098012006904FF48030BE
:101CA00007904FF480000D9004200E90119006A82C
:101CB0000C95CDE90F15FFF775FD28B1EFF31080F6
:101CC00072B600BFFEE700BF0F20CDE901054FF45B
:101CD000A05004904FF48050059001A80521039472
:101CE000FFF766FC20B1EFF3108072B6FEE700BF8D
:101CF00012B0B0BD4EF68850CEF20000016841F43B
:101D00007001016070470000FEE7000070B582B00E
:101D10003220FEF785FF40F2700443F63C06C2F223
:101D20000004C0F60C06642501AA20464E210423B7
:101D300001960095FFF724F90520FEF771FF01AA2F
:101D400020464E21042301960095FFF719F9012042
:101D5000FEF766FF01AA20464E2104230196009556
:101D6000FFF70EF90A20FEF75BFF42F62C00C0F6E3
:101D70000C00019001AA20464E2104230095FFF794
:101D8000FFF80A20FEF74CFF42F62C00C8F68C0044
:101D9000019001AA20464E2104230095FFF7F0F898
:101DA0000120FEF73DFF40F60C00C8F68C000190C4
:101DB00001AA20464E2104230095FFF7E1F80120F7
:101DC000FEF72EFF40F60C00C1F61C00019001AAA0
:101DD00020464E2104230095FFF7D2F80120FEF79C
:101DE0001FFF0120FEF71CFF40F60C00C6F66C003A
:101DF000019001AA20464E2104230095FFF7C0F868
:101E00000120FEF70DFF40F60C00CCF6CC0001904F
:101E100001AA20464E2104230095FFF7B1F802B035
:101E200070BD0000032811D8DFE800F002060A0E9A
:101E300041F080010AE000BF41F0C00106E000BFB0
:101E400041F0940102E000BF41F0D40180B582B0BE
:101E500021F00F00090100F10C0208308DF8050097
:101E600001F10C008DF8060001F108008DF8070063
:101E700040F270008DF804204FF0640CC2F20000B4
:101E800001AA4E210423CDF800C0FFF779F802B073
:101E900080BD000080B582B000F0F001000101F1CA
:101EA0000C0208318DF8051000F10C0108308DF896
:101EB000070040F270008DF804208DF806104FF0F6
:101EC000640CC2F2000001AA4E210423CDF800C028
:101ED000FFF756F802B080BD80B582B000F0F00187
:101EE000000101F10D0209318DF8051000F10D011D
:101EF00009308DF8070040F270008DF804208DF84D
:101F000006104FF0640CC2F2000001AA4E21042317
:101F1000CDF800C0FFF734F802B080BDFFF7B0FA8B
:101F2000FFF790FEFFF710FEFFF760FE4020FFF77F
:101F3000B1FF1F20FFF7D0FF0F20FFF7CDFF0720D5
:101F4000FFF7CAFF0320FFF7C7FF0320FFF7C4FF17
:101F50000720FFF7C1FF0F20FFF7BEFF1F20FFF78D
:101F6000BBFF4820FFF796FF0120FFF7B5FF0820D1
:101F7000FFF7B2FF0420FFF7AFFF0320FFF7ACFF2E
:101F80000320FFF7A9FF0420FFF7A6FF0820FFF7B3
:101F9000A3FF1020FFF7A0FF4FF47A70FEF740FE7A
:101FA000FFF7B4FE00200121FFF73CFF0020FFF700
:101FB00093FF01200121FFF735FF0120FFF78CFF80
:101FC0004FF47A70FEF72CFEECE75FEA400C08BF96
:101FD00091F0000F4FEA8C234FEAC12243EA51519E
:101FE0004FEA1C5018BF00F5F0404FEA300018BF10
:101FF00041F000415FEA6C5C00F02980BCF1FF3FDA
:1020000008BF40F080407047130C06BF12044FF029
:10201000100C4FF0000C130E04BF12020CF1080C50
:10202000130F04BF12010CF1040C930F04BF9200B4
:102030000CF1020CD30F04BF52000CF1010C11463D
:102040004FF00002A0F11F00A0EB0C00704711F050
:10205000004F08BF704731F000413FF4D5AF0B0C83
:1020600006BF09044FF0100C4FF0000C0B0E04BF1C
:1020700009020CF1080C0B0F04BF09010CF1040C50
:102080008B0F04BF89000CF1020CCB0F04BF490079
:102090000CF1010CCCF1200322FA03F341EA030115
:1020A00002FA0CF2A0EB0C0000F1010070470000F6
:1020B00023F07F4720F07F4C80EA030000F00040CF
:1020C000ACEB070303F57C5303F1FF032DE98049D3
:1020D00009B44FEA144324EA03484FEA154B25EAB2
:1020E0000B4E0FF2042606EB13273E7803FB066720
:1020F000C7F5000707FB06F64FEAD64606F10206CB
:102100004FEA543707FB066CCCF1005C4FEA1C47E2
:102110002CEA074C0CFB06F507FB06F404EB15460E
:102120004FEA961649085FEA320234BF00204FF0AA
:1021300000404FEAD13706FB07FC4FEA1C4C0CFB72
:102140000BF7D21B03FB0CF761EB07010CFB0EF73F
:10215000B0EB074072EB17420CFB08F734BFA2EB61
:102160000742B2EB074261EB17414FEA0C444FEADA
:10217000910706FB07FC4FEA1C4C0CFB0BF7B0EB7E
:10218000C74072EB573203FB0CF734BFA2EBC742D8
:10219000B2EBC74261EB57310CFB0EF7B0EBC70057
:1021A00072EB57720CFB08F734BFA2EBC702B2EB1D
:1021B000C70261EB57714FEA816141EA92114FEA20
:1021C000826242EA90124FEA806004EBCC04039FE3
:1021D0004FEAD13706FB07FC4FEA1C4C0CFB0BF710
:1021E000D21B03FB0CF761EB07010CFB0EF7B0EB06
:1021F000074072EB17420CFB08F734BFA2EB074213
:10220000B2EB074261EB17414FEA8C5504EB9C247B
:102210004FEA910706FB07FC4FEA1C4C0CFB0BF73F
:10222000B0EBC74072EB573203FB0CF734BFA2EBA5
:10223000C742B2EBC74261EB57310CFB0EF7B0EB74
:10224000C70072EB57720CFB08F734BFA2EBC70252
:10225000B2EBC70261EB57714FEA816141EA92111B
:102260004FEA826242EA90124FEA806015EB4C25F9
:1022700044F100044FEAD13706FB07FC4FEA1C4C3F
:102280000CFB0BF7D21B03FB0CF761EB07010CFBFC
:102290000EF7B0EB074072EB17420CFB08F734BFA8
:1022A000A2EB0742B2EB074261EB17414FEA8131E3
:1022B00041EA92414FEA823242EA90424FEA80304C
:1022C0004FEA0C7615EB1C1544F1000448EA034371
:1022D0004EEA0B484FF0000EB2EB080C71EB03070F
:1022E00024BF624639464EEB0E0E4FF0000B00182D
:1022F000524149414BEB0B0BB2EB080C71EB03075E
:102300007BF1000B24BF624639464EEB0E0E4FF0B8
:10231000000B0018524149414BEB0B0BB2EB080C80
:1023200071EB03077BF1000B24BF624639464EEB8D
:102330000E0E51EA020718BF46F0010616EB0E76A4
:1023400055F1000254F1000103D5BDE88901BDE853
:102350000088BDE88901BDE80048B619524141EB4B
:102360000101A3F10103704780807F7E7D7C7B7A31
:102370007978777676757473727171706F6E6E6D31
:102380006C6C6B6A6A6968686766666564646363D7
:1023900062616160605F5F5E5E5D5D5C5C5B5B5A5D
:1023A0005A595958585757565655555554545353CA
:1023B00052525251515050504F4F4F4E4E4D4D4D25
:1023C0004C4C4C4B4B4B4A4A4A4949494848484770
:1023D00047474746464645454544444444434343AE
:1023E00043424242424141419C46002B30D4770057
:1023F0002BD04FEA37071CB503B44FF010004FF055
:102400001001BAF1000F06D0BCF1000FDCBF40F0A4
:10241000080040F008014FF000000FBCBDE810407C
:102420000BF1010BBBF1010F08BF5FEA170722BFD9
:1024300012F1010211F101014FF0004143F10003DB
:1024400000F0004043EA00007047F9D35708D0E796
:1024500046EA06464FEA164613F1400F1FDD13F118
:10246000200FDFBF16430A46002120335B42BED057
:10247000C3F1200746EA06464FEA164602FA07F776
:1024800046EA070622FA03F2C3F1200701FA07F72A
:1024900042EA070221FA03F14FF00003A7E746EAF8
:1024A000020646EA06464FEA164646EA0106BCBF61
:1024B00046EA0646360C4FF000034FF000024FF09C
:1024C000000194E72DE9804C70B49A46934691E858
:1024D000380007C831EA400C48BF34EA430C03D542
:1024E000FFF7E6FDFFF780FFF0BCBDE8008C2DE9AB
:1024F000804C70B49A46934691E8380007C810F0B3
:10250000804F08BF13F0804F03D100F005F8FFF7AC
:102510006BFFF0BCBDE8008C20F07F4723F07F4CC0
:1025200080EA030000F0004007EB0C03A3F57C53A6
:10253000A3F1FE0392F0000F00F0B38095F0000FBE
:1025400000F077802DE901494FEA114021EA004867
:102550004FEA144624EA064700FB06FC08FB06F691
:1025600007FB08F818EB06484CEB164C00FB07F786
:1025700018EB07484CEB17404FEA124B22EA0B4E80
:102580004FEA154625EA06470BFB06FC0EFB06F64E
:1025900007FB0EFE1EEB064E4CEB164C0BFB07F733
:1025A0001EEB074E4CEB174B18EB0B0840F10000ED
:1025B00018EB0E0B58EB000840F100008F1A4FF09B
:1025C00000014FF000063CBFC943661B14BFB5EBCA
:1025D000040C00213CBFC943F61B4FEA174427EA0D
:1025E00004454FEA1C472CEA074C04FB076205FB35
:1025F00007F70CFB05F616EB074642EB174204FB08
:102600000CFC16EB0C4642EB1C421BEB060658EB8F
:10261000020241414EEA8E0E46EA9E0601D5BDE811
:102620000189B619524141EB0101A3F10103BDE853
:1026300001894FEA144524EA05464FEA114721EA89
:10264000074C05FB07F406FB07F70CFB06F111EB43
:10265000074144EB174405FB0CFC11EB0C4144EB28
:102660001C444FEA124722EA074C05FB07F206FB1F
:1026700007F70CFB06F616EB074642EB174205FB85
:102680000CFC16EB0C4642EB1C456A1854F1000199
:1026900048BF7047B619524141EB0101A3F1010354
:1026A000704795F0000F37D04FEA114221EA0246F9
:1026B0004FEA144724EA074C02FB07F106FB07F731
:1026C0000CFB06F414EB074441EB174102FB0CFC36
:1026D00014EB0C4441EB1C414FEA154725EA074C2B
:1026E00002FB07F506FB07F70CFB06F616EB0746A1
:1026F00045EB174502FB0CFC16EB0C4645EB1C4268
:10270000121951F1000148BF7047B619524141EB0F
:102710000101A3F1010370474FEA144524EA05467D
:102720004FEA114721EA074C05FB07F106FB07F7C3
:102730000CFB06F212EB074241EB174105FB0CFCC8
:1027400012EB0C4251EB1C414FF0000648BF7047A2
:10275000921841EB0101A3F10103704703B4019802
:102760004100009850EAC12018BF04204A0D18BF4C
:1027700040F0010040F2FF72B2EB515F08BF40F041
:102780000200012808BF052002B0704710B50029DB
:102790000AD00878002807D005487844FDF758FE8D
:1027A000002801D0002010BD0248784410BD000070
:1027B000320100002A010000F1EE100A4FF6FF710D
:1027C000C0F2C03120EA010040F04070E1EE100A92
:1027D0007047FDF7AFBF30313233343536373839D3
:1027E000414243444546403058003031323334355D
:1027F00036373839616263646566403078000000BE
:1028000002400000000000A00000000005400000A1
:10281000000000C8000000000C4000000000409CC8
:1028200000000000194000000020BCBE00000000B5
:1028300034400000BFC91B8E00000004B5400000FA
:10284000504BCFD06607E2CF010000006C41000082
:102850003E8251AADFEEA73401000000D9420000F9
:10286000DCB5A0E23A301F97FFFFFFFFB445000040
:10287000FD25A0C8E9A3C14FFFFFFFFFFF3F0000F8
:102880000000008000000000FF3F0000000000800A
:10289000000000000000000000000000010203042E
:1028A000060708090000000001020304E8280008E8
:1028B0000000002010000000C4010008F8280008F3
:1028C00010000020B8060000E00100081C00000015
:1028D00043000000F8FFFFFF0C0000000E000000A6
:1028E0000F0000002E00000001000000100000009A
:0828F0000024F40000000000C8
:040000050800018965
:00000001FF
