:020000040800F2
:100000002007002031020008FB1A000879170008B9
:10001000F91A0008E9070008A91B00080000000001
:10002000000000000000000000000000FF1A0008AF
:10003000EB07000800000000FD1A0008011B000883
:100040004B0200084B0200084B0200084B0200085C
:100050004B0200084B0200084B0200084B0200084C
:100060004B0200084B0200084B0200084B0200083C
:100070004B0200084B0200084B0200084B0200082C
:100080004B0200084B0200084B0200084B0200081C
:100090004B0200084B0200084B0200084B0200080C
:1000A0004B0200084B0200084B0200084B020008FC
:1000B0004B0200084B0200084B0200084B020008EC
:1000C0004B0200084B0200084B0200084B020008DC
:1000D0004B0200084B0200084B0200084B020008CC
:1000E0004B0200084B0200084B0200084B020008BC
:1000F0004B0200084B0200084B0200084B020008AC
:100100004B0200084B0200084B0200084B0200089B
:100110004B0200084B0200084B0200084B0200088B
:100120004B0200084B0200084B0200084B0200087B
:100130004B0200084B0200084B0200084B0200086B
:100140004B0200084B0200084B0200084B0200085B
:100150004B0200084B0200084B0200084B0200084B
:100160004B0200084B0200084B0200084B0200083B
:100170004B0200084B0200084B0200080000000080
:100180004B0200084B02000800F002F800F041F8B2
:100190000AA090E8000C82448344AAF10107DA45E2
:1001A00001D100F036F8AFF2090EBAE80F0013F0F3
:1001B000010F18BFFB1A43F001031847601E00002F
:1001C000801E0000103A24BF78C878C1FAD85207C0
:1001D00024BF30C830C144BF04680C6070470000C1
:1001E0000023002400250026103A28BF78C1FBD840
:1001F000520728BF30C148BF0B607047642900F028
:10020000F780002070471FB501F0F6FE1FBD10B546
:1002100010BD00F0CAF91146FFF7F5FF01F0EEFD41
:1002200000F0E8F903B4FFF7F2FF03BC00F0F0F9C7
:100230000948804709480047FEE7FEE7FEE7FEE77A
:10024000FEE7FEE7FEE7FEE7FEE7FEE704480549B6
:10025000054A064B70470000991B000889010008F9
:100260002001002020070020200300202003002080
:1002700053EA020C00F069802DE9F04B4FF00006C4
:10028000002B1FBFB3FA83F503FA05F424FA05F631
:100290005E4012BF1643B2FA82F502FA05F4C5F1C8
:1002A00020051EBF22FA05FC44EA0C04203556EA5C
:1002B000044C4FEA144418BF641C4FF000084FF080
:1002C0000009904271EB030C39D3002919BFB1FA30
:1002D00081F701FA07F6B0FA80F700FA07F6C7F1DE
:1002E00020071EBF20FA07FC46EA0C062037B6FBA3
:1002F000F4FCA7EB0507103F07F01F0BCBF120061E
:100300000CFA0BFB2CFA06F644BFB3460026202F4E
:10031000A4BF5E464FF0000B5BEA060C08BF4FF02F
:10032000010B19EB0B09ABFB027C48EB0608C01B69
:1003300006FB02CC0BFB03CC71EB0C01C1E70B46B7
:10034000024641464846BDE8F08B13B54FF0000029
:100350004FF00001AFF30080BDE81C407047000083
:100360000FB41CB5074B06AA7B446946009005985C
:1003700000F003F90020694600F012F91CBC5DF89A
:1003800014FB0000350200002DE9F0410E46044642
:10039000002020622046E168884730B3252805D038
:1003A000D4E901219047206A401CF2E7E168204629
:1003B00000278847050018D0A5F14100192802D868
:1003C00020354FF400673246294620462760FFF764
:1003D00015FF40B1012804D0F61D26F007060836A7
:1003E000D8E7361DD6E72846DAE7206ABDE8F0816F
:1003F0002DE9F0410646002410687529314616A5FE
:1004000010D0AFF30080002802DA404213A507E0C5
:1004100031688A0701D512A502E0490704D511A564
:10042000012401E0AFF3008000210A2206F1240735
:1004300009E0B0FBF2FCB0FBF2F302FB1C00303031
:1004400078541846491C0028F3D123462A463046E2
:10045000BDE8F04100F032B8000000002D000000BF
:100460002B000000200000004FF0000200B51346F2
:1004700094469646203922BFA0E80C50A0E80C50C4
:10048000B1F12001BFF4F7AF090728BFA0E80C5075
:1004900048BF0CC05DF804EB890028BF40F8042B6E
:1004A00008BF704748BF20F8022B11F0804F18BFDB
:1004B00000F8012B70477047704770472DE9F047EF
:1004C0000D4699469246044600F1240801688806C4
:1004D00004D5E06921F01001216000E00120A8426C
:1004E00001DD471B00E00027A1697A1902EB090032
:1004F000081AA0612078C00602D42046AFF300801D
:10050000002608E0D4E901211AF806009047206A85
:10051000401C761C20624E45F4DB2078C0060AD5CC
:100520002046AFF3008006E0D4E901213020904757
:10053000206A401C2062381EA7F10107F4DC07E0A6
:10054000D4E9012118F805009047206A401C206278
:10055000281EA5F10105F3DC2046AFF300802078CA
:10056000000602D50220BDE8F0870120FBE700006D
:1005700001694A1C02610878704700B58FB0CDE967
:1005800001310021059105497944CDE90310114657
:100590006846FFF7F9FE0FB000BD0000E5FFFFFF62
:1005A0000A6802F8010B0A607047754600F02CF8E3
:1005B000AE4605006946534620F00700854618B050
:1005C00020B5FFF743FEBDE820404FF000064FF096
:1005D00000074FF000084FF0000B21F00701AC4678
:1005E000ACE8C009ACE8C009ACE8C009ACE8C00997
:1005F0008D46704710B50446AFF300802046BDE835
:100600001040FFF70FBE000000487047BC000020FC
:1006100001491820ABBEFEE726000200704700002B
:10062000464910B54A6822F440324A604A68436835
:100630001A434A6001684A6822F480724A6001687D
:100640004A68036942EA03224A6001684A6822F064
:1006500040724A6001684A6883681A434A600168C8
:100660008A6822F400628A6001688A68C3681A4353
:100670008A60816A6FF07062D14201688A6822F0F4
:1006800070628A6001688A680CD0836A1A438A6043
:1006900001688A6822F040528A6001688A68C36AE9
:1006A0001A4301E022F040528A6001688A6822F011
:1006B00002028A6001688A68037E42EA43028A6015
:1006C00090F82010002901684A680FD042F40062B7
:1006D0004A6001684A6822F460424A6001684A68D8
:1006E000174C436A04EB43331A4301E022F40062DF
:1006F0004A600168CA6A22F47002CA620168CA6A62
:10070000838B104C04EB03531A43CA6201688A6856
:1007100022F400728A6001688A6890F8303042EAF8
:1007200043228A6001688A6822F480628A600168D4
:100730008A68406942EA8020886010BD0023014039
:1007400000E0FFFF0000F0FF1FB5002000900390C5
:1007500001200190042002906946044800F048F806
:10076000002801D072B6FEE71FBD00002000002067
:100770001FB50020039001200090019004200290FA
:100780006946044800F034F8002801D072B6FEE74C
:100790001FBD0000200000201FB500200390102086
:1007A000009001200190042002906946034800F067
:1007B0001FF8002801D072B6FEE71FBD2000002000
:1007C0001FB500200390112000900120019004200B
:1007D00002906946034800F00BF8002801D072B679
:1007E000FEE71FBD20000020FEE7704772B6FEE75F
:1007F00078B50024009490F83C20012A19D00122F9
:1008000080F83C200A6807230568092A13D9EE6896
:100810000A3A02EB420293409E43EE600B788A68EC
:100820000A3B03EB43039A400368DD682A43DA601E
:1008300010E0022078BD2E6902EB420293409E43F5
:100840002E610B788A6803EB43039A4003681D69A5
:100850002A431A614A681F23072A13D205686E6B60
:10086000521E02EB820293409E436E630B790A880C
:100870005B1E92B203EB83039A4003685D6B2A43CD
:100880005A6327E005680D2A12D22E6BD21F02EBA5
:10089000820293409E432E630B790A88DB1F92B23B
:1008A00003EB83039A4003681D6B2A431A6311E02C
:1008B000EE6A0D3A02EB820293409E43EE620B79A0
:1008C0000A880D3B92B203EB83039A400368DD6A0A
:1008D0002A43DA62164B0568144A9D4206D10D6818
:1008E000122D03D1556845F48005556005689D4279
:1008F00018D10B68102B01D0112B13D1536843F47E
:1009000000035360096810290CD10A490A4A096892
:10091000B1FBF2F101EB8101490000E0491E0091B9
:100920000029FBD180F83C40002078BD0023014025
:10093000002001400C00002040420F000068C06C05
:10094000704770B504004FF0000503D0206C0026FE
:1009500010B107E0012070BD204600F01DF866646C
:1009600084F83C60206CC00610D4206C20F48850C1
:1009700040F0020020642046FFF752FE6664206CBF
:1009800020F0020040F00100206400E0012584F81E
:100990003C60284670BD000010B586B004461421A6
:1009A0006846FFF761FD1149206888421BD1104855
:1009B0000021026842F480720260006800F48070D6
:1009C00005900B481438026842F00102026000688A
:1009D00000F00100059003200090CDE90101694677
:1009E000044800F00DF906B010BD000000200140E1
:1009F00044380240000002402DE9F04104460068FE
:100A00000D4681684FF0000749050BD58068C00589
:100A100008D5206C40F02000206484F83C70012050
:100A2000BDE8F08100F0E4F9064613E0681C11D03F
:100A300025B100F0DDF9801BA8420BD920680068C1
:100A4000800707D4206C40F00400206484F83C70D8
:100A50000320E5E7206800688007E7D521686FF08C
:100A600012000860206C40F40070206420688168E7
:100A700011F0405F13D1217E89B9C16A11F4700F62
:100A800002D0806840050AD4206C20F48070206475
:100A9000206CC00403D4206C40F0010020640020CE
:100AA000BEE7000018B50021009190F83C20012A13
:100AB00007D0012280F83C2002689368DB0702D04F
:100AC00011E0022018BD936843F0010393602E4AA1
:100AD0002E4B1268B2FBF3F202EB420200E0521E10
:100AE0000092002AFBD102689368DB0742D0036CB6
:100AF00040F20164A34343F48073036453685B05CD
:100B000005D5036C23F4005343F480530364036C52
:100B1000DB0404D5436C23F00603436400E0416426
:100B200080F83C101A496FF022031360496800688E
:100B3000CA06184906D0884224D1816811F0405F66
:100B400013D01FE08842F8D0134A904203D1D1F865
:100B50000423D206F1D0114A904213D1D1F80413E4
:100B600001F01F011029E8D30CE0816841F08041B9
:100B7000816007E0016C41F010010164416C41F0BB
:100B800001014164002018BD0C00002040420F000C
:100B900000230140002001400021014000220140CB
:100BA00090F83C1001290CD0012180F83C1001681C
:100BB0008A6822F001028A6001688968C90702D048
:100BC00007E002207047016C21F4885141F00101D7
:100BD0000164002180F83C100846704770B5044657
:100BE00000F006F90546601C02D004480078044471
:100BF00000F0FEF8401BA042FAD370BD00000020B8
:100C00002DE9F84FDFF8BCA10022012503264FF0A3
:100C10000F090AF1040BAAF1040E00BF0B6805FAD4
:100C200002F42340A34270D10F7907F00307012F8C
:100C300001D0022F16D187684FEA420806FA08FC55
:100C400027EA0C07D1F80CC00CFA08FC4CEA070C98
:100C5000C0F808C04768A7430C79C4F30014944057
:100C60003C4344600C79E443A4070AD0C4684FEACB
:100C7000420C06FA0CF7BC438F6807FA0CF72743BF
:100C8000C7600C7904F00304022C12D1D40800EBE5
:100C9000840CDCF820405707FF0E09FA07F824EA15
:100CA0000804D1F8108008FA07F848EA0408CCF8DC
:100CB000208004684FEA420C06FA0CF7BC430F7917
:100CC00007F0030707FA0CF7274307604C6814F492
:100CD000403F70D03C4C276847F480472760246829
:100CE00022F0030704F480440094384C07EB040C12
:100CF000DCF8084897074FEA177809FA08F7BC4369
:100D0000334FB84202D1002724E054E0314FB842BB
:100D100001D101271EE0304FB84201D1022719E06E
:100D20002E4FB84201D1032714E02D4FB84201D114
:100D300004270FE02B4FB84201D105270AE02A4FC4
:100D4000B84201D1062705E0284FB84201D1072754
:100D500000E0082707FA08F72743CCF80878DAF804
:100D600000405746D1F804C09C435FEACC2C00D524
:100D70001C433C60DBF800405F46D1F804C09C4354
:100D80005FEA8C2C00D51C433C60DEF800407746BF
:100D9000D1F804C09C435FEA8C3C00D51C433C6006
:100DA000084F083F3C68D1F804C09C435FEACC3C44
:100DB00000D51C433C60521C102AFFF42FAFBDE845
:100DC000F88F0000083C01404438024000300140E8
:100DD000000002400004024000080240000C0240F3
:100DE000001002400014024000180240001C0240A3
:100DF00001488068704700000000002070B50400C2
:100E000025D094F83D00002520B984F83C502046B8
:100E100000F04EF9242084F83D002068016821F09C
:100E2000010101602068016841F40041016020680F
:100E3000016821F40041016000F094FA4D4A6168B4
:100E4000914201D84C4900E04C49884201D201202E
:100E500070BD4B492368B0FBF1F15E6826F03F0698
:100E60000E435E606368934206D94FF4967359430C
:100E70004FF47A73B1FBF3F12368491C1E6A26F024
:100E80003F06314319626168914210D84900401E03
:100E9000B0FBF1F2521CC2F30B02042A01D204206F
:100EA00022E0B0FBF1F0401CC0F30B001CE0A26894
:100EB000F2B301EBC10303EB0116431EB3FBF6F3E0
:100EC0005B1C43F480431B0549D092B301EBC10284
:100ED00002EB0111401EB0FBF1F0401CC0F30B000F
:100EE00040F4804040F400402168CA694CF6FF732A
:100EF0009A431043C861D4E907100143206802688F
:100F000022F0C00211430160D4E9030101432068CB
:100F1000826848F2FF339A4311438160D4E90501A6
:100F200008432168CA6822F0FF021043C86001E04C
:100F30000EE016E02068016841F0010101602564BF
:100F4000202084F83D00256384F83E50002070BDC9
:100F500001EB4106431EB3FBF6F35B1CB3E7012034
:100F6000C2E701EB4101401EB0FBF1F0401CC0F3B1
:100F70000B00B7E7A086010080841E0000093D0039
:100F800040420F002DE9F84F1F4690468A4604461E
:100F9000DDF82890FFF72CFF054694F83D00202847
:100FA0007FD11923012240492046009500F070FCB2
:100FB000002876D194F83C00012872D0012084F8F2
:100FC0003C0020680168C90703D1016841F00101B4
:100FD00001602068016821F400610160212084F82B
:100FE0003D00102084F83E0000262664C4F82480CA
:100FF0006785608D20852D48E0622B464A46514624
:10100000204600F0D1FB90B92068416980690090CA
:1010100036E02A464946204600F0B9FC50B1206C23
:10102000042804D12068016841F4007101600120A6
:10103000BDE8F88F606A216800780861606A401C2A
:101040006062618D491E6185218D491E89B22185AD
:1010500022685369DB435B070BD451B10078106100
:10106000606A401C6062608D401E6085208D401E5D
:1010700020852A464946204600F0E4FB0028CED1D0
:10108000208D0028C5D154F83D0B016841F4007152
:101090000160202004F81E09E67766770020C7E784
:1010A000FFE70220C4E70000020010000000FFFF7D
:1010B00010B586B0044614216846FFF7D5F91349E8
:1010C0002068884220D112480021026842F00202C2
:1010D0000260006800F002000590C020009012201D
:1010E000CDE90101032003900420049069460948DA
:1010F000FFF786FD06481030016841F400110160D9
:10110000006800F40010059006B010BD00540040C7
:1011100030380240000402400248816802781144DD
:1011200081607047000000200B4810B5016841F451
:1011300000710160016841F480610160016841F45F
:1011400080710160032000F061F80F2000F006F8C4
:1011500000F024F8002010BD003C024070B50D4D99
:1011600004464FF47A712878B1FBF0F00A49096817
:10117000B1FBF0F000F0ECFA48B9102C07D20022D5
:101180002146501E00F022F800206C6070BD012046
:1011900070BD0000000000200C0000200A4808B5C7
:1011A000016841F480410160006800F480400090D3
:1011B0000548001F016841F080510160006800F09F
:1011C0008050009008BD000044380240F0B40E4B3F
:1011D0001B680C46C3F30223C3F10705042D00D995
:1011E0000425191D072901D2002300E0DB1E01267A
:1011F00006FA05F1491E214099409E40761E164090
:101200003143F0BC00F0D1BC0CED00E0064900F029
:10121000070208684FF6FF03184040EA0220034A1D
:1012200010430860704700000CED00E00000FA0574
:101230002DE9F0470E46050065D0DFF81481D8F897
:101240000000F7B200F00700B04207D288F8007043
:10125000D8F8000000F00700B04254D128683D4C97
:10126000810712D5400703D5206840F4E050206084
:101270002878000703D5206840F46040206020688B
:10128000A96820F0F000084320602878C0072DD01E
:10129000304968680839012812D0022813D0032881
:1012A00011D00968890700292DDA216821F003018E
:1012B00001432160FFF79CFD814641F2883A0EE030
:1012C00009688903EFE709688901ECE7FFF790FDFA
:1012D000A0EB0901514502D90320BDE8F087206841
:1012E000696800F00C00B0EB810FEFD1D8F8001066
:1012F000404601F00701B14207D90770006800F0CD
:101300000700B04201D00120E7E72878400705D563
:101310002068E96820F4E05008432060287800073E
:1013200006D52068296920F4604040EAC1002060A9
:1013300000F028F82168084AC1F30311515CC84045
:101340000649086006480068FFF708FF0020C4E768
:10135000003C024008380240022000080C00002037
:10136000040000200448054900680968044AC1F3E4
:101370008221515CC84070470C00002008380240B0
:1013800012200008154810B5006810F00C0214482F
:1013900013D04110042A0FD0082A0ED10F4C241F5D
:1013A0002268236802F03F025B0207D52068C0F381
:1013B0008810A0FB010106E0084610BD2168C1F3BA
:1013C0008811A1FB00010023FEF752FF2168C1F341
:1013D0000141491C4900B0FBF1F010BD0838024042
:1013E0000024F4002DE9F84F04006ED02078DFF8D7
:1013F0004C93C007A9F104054AD009F10400016823
:10140000C1F38101012908D00068C0F381000228DE
:101410000AD1D9F80000400206D52868800337D5E4
:1014200060680028E1D033E06068B0F5803F10D0FC
:10143000B0F5A02F286810D020F4803028602868EC
:1014400020F4802028606068A8B1FFF7D1FC064630
:101450000DE0286840F48030F4E740F480202860F4
:10146000F7E700BFFFF7C4FC801B642873D8286827
:101470008003F7D50CE0FFF7BBFC064605E000BF94
:10148000FFF7B6FC801B6428F0D828688003F7D4E7
:101490002078DFF8AC8280074FF0000A3ED5A748DD
:1014A000001D016811F00C0F08D00068C0F3810026
:1014B00002280BD1D9F80000400207D42868800721
:1014C00016D5E068012800D112E033E1E068B8B138
:1014D0000120C8F80000FFF78BFC064605E000BFBE
:1014E000FFF786FC801B0228C0D828688007F7D544
:1014F0002868216920F0F80040EAC10028600DE06A
:10150000C8F800A0FFF774FC064604E0FFF770FC83
:10151000801B02281FD828688007F7D4207800078E
:1015200022D5864F87486169703771B1012101600A
:10153000FFF75EFC064604E0FFF75AFC801B02281A
:1015400009D838688007F7D50EE0C0F800A0FFF78B
:101550004FFC064605E082E0FFF74AFC801B0228AC
:101560007DD838688007F7D42078400768D5DFF841
:10157000CCB100270BF13C0BDBF80000C0000BD412
:10158000DBF8001041F08051CBF80010DBF80000D0
:10159000012700F0805000906B4E3068C00510D4D9
:1015A000306840F480703060FFF722FC009005E066
:1015B000FFF71EFC0099401A022850D83068C00579
:1015C000F6D55E4EA0686C3601280FD0052830682D
:1015D00010D020F001003060306820F0040030604E
:1015E000A068B8B1FFF704FC00900FE0306840F04D
:1015F0000100F4E740F004003060F7E7FFF7F8FB84
:101600000099411A41F28830814266D830688007DB
:10161000F4D50EE0FFF7ECFB009007E0FFF7E8FBE6
:101620000099411A41F28830814256D830688007CB
:10163000F4D42FB1DBF8001021F08051CBF800106A
:10164000A069C8B33D49091D0968C1F38101022998
:101650004AD00228504607D0C8F8600000E03CE0BD
:10166000FFF7C6FB04463BE04746C8F86000FFF7BB
:10167000BFFB064605E000BFFFF7BAFB801B022850
:101680002BD828688001F7D4D4E907010843A16A60
:101690002E4A490802EB0141626A41EA821108437D
:1016A00094F82C1040EA0161C9F800100120386656
:1016B000FFF79EFB044606E03EE000BFFFF798FB05
:1016C000001B022809D828688001F7D534E000BF44
:1016D000FFF78EFB001B022802D90320BDE8F88F1C
:1016E00028688001F4D427E00128F7D0D9F8000059
:1016F000E26900F4800191421CD1226A00F03F01AE
:10170000914217D147F6C071626A0140B1EB821F66
:1017100010D1A26A4FF0FF3300F4403103EB5202C4
:10172000B1EB024F06D194F82C1000F07060B0EBD2
:10173000016F01D00120D1E70020CFE7043802403B
:1017400000004742800E4742007000400000FFFF4B
:1017500010B5401EB0F1807F01D3012010BD4FF0C5
:10176000E02460610F21601700F01FFA0020A061E3
:1017700007202061002010BDFEE701684A69D243BE
:1017800052050FD46FF480624A61002140F8301F87
:10179000202242738173026942F0040202610173E4
:1017A0000120704700207047F8B50446C06A1E4605
:1017B0000D461746082807D0012805D010F5803FB0
:1017C00002D0206B122804D12068016841F4807196
:1017D0000160134600224FF001112046009600F0F0
:1017E00057F840B120680068C00502D54FF400707A
:1017F00020640320F8BD2069B0F5804F0ED006208C
:10180000216800EAD51040F0F000086133463A46FE
:101810000B49204600F070F878B902E005F0FE00B0
:1018200000E0E8B221680861054933463A46891F5D
:10183000204600F061F80028DCD00120F8BD00004F
:101840000800010070B516460D4604460DE020461E
:10185000FFF793FF08B1012070BD681C05D0FFF7AA
:10186000C7FA801BA84207D835B120684069C04339
:101870004007ECD4002070BD002044F8300F202138
:101880006173A073216941F0200121612073E2E7B7
:101890002DE9F0471E4690460D460446C1F3074722
:1018A000DDF8209008E0701C06D0FFF7A1FAA0EB4D
:1018B0000900B0420FD876B12068012F18D0806996
:1018C00025EA00000004000C14D000214145EAD0B4
:1018D0000020BDE8F087002044F8300F202161731C
:1018E000A073216941F02001216120730120F0E7FC
:1018F0004069E5E70121E9E72DE9F0479A4691467D
:101900000E46044600254FF02008C1F3074725E0A6
:1019100020684069C043400514D42068016841F440
:101920000071016021686FF480604861256384F86C
:101930003D8084F83E50206C40F00400206484F820
:101940003C501FE0B9F1FF3F08D0FFF751FAA0EB80
:101950000A0149450CD8B9F1000F09D02068012FC0
:1019600013D0806926EA00000004000C0BD0CFE7FA
:1019700044F8305F84F80D80A573206940F02000A2
:10198000206125730120BDE8F0874069EAE770B562
:1019900016460D4604460DE02046FFF7EEFE08B160
:1019A000012070BD681C05D0FFF722FA801BA842F9
:1019B00007D835B120684069C0430006ECD4002048
:1019C00070BD002044F8300F20216173A07321699D
:1019D00041F0200121612073E2E700007FB500247F
:1019E0002448009401940294214903940160012544
:1019F0004FF480310561C0E90114057680F820407C
:101A00001D49C0E90A140426C661C46080F830404C
:101A10004561FEF796FF08B1FEF7E8FE8DE870001D
:101A200069461448FEF7E4FE08B1FEF7DFFE022027
:101A3000CDE9005069460F48FEF7DAFE08B1FEF71F
:101A4000D5FE102000900320019069460948FEF75A
:101A5000CFFE08B1FEF7CAFE1120CDE900066946A7
:101A60000448FEF7C5FE002801D0FEF7BFFE7FBD8B
:101A700000200140200000200100000F0D4808B5A3
:101A8000016841F080010160016801F0800100916E
:101A9000016841F001010160016801F0010100915C
:101AA000016841F002010160006800F0020000904E
:101AB00008BD0000303802400D4810B50B490160E8
:101AC0000C49416000214FF480428160C0E903125B
:101AD00041618161C1610162FFF790F9002803D083
:101AE000BDE81040FEF782BE10BD0000005400406B
:101AF00068000020A0860100FEE7FEE770477047FF
:101B0000FFF70ABB30B593B030216846FEF7ACFC56
:101B100014210CA8FEF7A8FC1D480025016841F01F
:101B200080510160006800F08050119019480168F0
:101B300041F4804101600068022400F4804011906B
:101B400001200090000401908001CDE9064008AA20
:101B50000420A82182E813000B906846FFF742FC9E
:101B600008B172B6FEE70CA90F2081E831004FF4EE
:101B7000A0500F904FF48050109005210CA8FFF753
:101B800057FB002801D072B6FEE713B030BD00004D
:101B900040380240007000400248016841F4700182
:101BA0000160704788ED00E0FEE70907090E002894
:101BB00004DB00F1E02080F80014704700F00F0013
:101BC00000F1E02080F8141D704710B5802000F06F
:101BD00061F80024202000F07DF8641C502CF9DB13
:101BE00010BD10B53220FEF7F9FF302000F052F89A
:101BF0000520FEF7F3FF302000F04CF80120FEF73F
:101C0000EDFF302000F046F80A20FEF7E7FF202025
:101C100000F040F80A20FEF7E1FF282000F03AF833
:101C20000120FEF7DBFF082000F034F80120FEF76A
:101C3000D5FF012000F02EF80120FEF7CFFF012094
:101C4000FEF7CCFF062000F025F80120FEF7C6FFC6
:101C50000C2000F01FF80520FEF7C0FFFFF7B5FFCE
:101C6000BDE810406420FEF7B9BF802230B10128E2
:101C700009D0022809D0032802D108E041F08002EF
:101C8000D0B200F007B84031F8E71431F6E754312C
:101C9000F4E700001CB500F0F00141F00C028DF8F3
:101CA000042041F0080100018DF8051040F00C01FE
:101CB0008DF8061040F008008DF8070064200090B1
:101CC000042301AA4E210248FFF75CF91CBD000065
:101CD000680000201CB500F0F00141F00D028DF805
:101CE000042041F0090100018DF8051040F00D01BC
:101CF0008DF8061040F009008DF807006420009070
:101D0000042301AA4E210248FFF73CF91CBD000044
:101D10006800002010B5044602E0641CFFF7DAFFFB
:101D200020780028F9D110BD4FF47A7290FBF2F3BD
:101D300090FBF2F170B502FB1303642293FBF2F502
:101D400090FBF2F302FB13030A2293FBF2F490FBE5
:101D5000F2F302FB13063031C8B2FFF7BBFF303598
:101D6000E8B2FFF7B7FF3034E0B2FFF7B3FF303629
:101D7000F0B2BDE87040FFF7ADBF4FF47A7290FB50
:101D8000F2F190FBF2F302FB1302642370B592FBB5
:101D9000F3F290FBF3F503FB15030A2590FBF5F630
:101DA00093FBF5F305FB160001F1300565F307041D
:101DB00002F1300565F30F2403F1300565F3174494
:101DC000303060F31F6441B9202060F3070422B96A
:101DD00060F30F240BB960F31744E0B2FFF77AFF0A
:101DE000C4F30720FFF776FFC4F30740FFF772FF45
:101DF000200EBDE87040FFF76DBF000086B0FFF712
:101E000093F9FFF77FFEFFF739FEFFF7E7FDFFF7D6
:101E100053FEFFF7E6FE4FF0FF36694C4FF47A753C
:101E2000FEF792FC6748FEF73DFE31466548FEF737
:101E3000E3FD6448FEF782FD20606248FEF7B0FED5
:101E40000A20FEF7CBFEFEF793FC5E48FEF72AFE63
:101E500029465C48FEF7D0FD5A48FEF76FFD6060EA
:101E60005848FEF79DFE0A20FEF7B8FEFEF794FCE8
:101E70005448FEF717FE29465248FEF7BDFD51486B
:101E8000FEF75CFDA0604F48FEF78AFE0A20FEF7D1
:101E9000A5FEFEF795FC4B48FEF704FE294649488F
:101EA000FEF7AAFD4748FEF749FDE0604548FEF70A
:101EB00077FE0A20FEF792FE00210846FFF7D5FEC6
:101EC00041A168462268FEF74BFA6846FFF722FFF9
:101ED00000210120FFF7C9FE3EA168466268FEF7B7
:101EE0003FFA6846FFF716FF00210220FFF7BDFE0C
:101EF0003BA16846A268FEF733FA6846FFF70AFF7F
:101F000000210320FFF7B1FE38A16846E268FEF722
:101F100027FA6846FFF7FEFE0A210020FFF7A5FE1C
:101F20002068FFF701FF3220FEF758FE0A2101204A
:101F3000FFF79BFE6068FFF7F7FE3220FEF74EFECC
:101F40000A210220FFF791FEA068FFF7EDFE322084
:101F5000FEF744FE0A210320FFF787FEE068FFF743
:101F6000E3FE3220FEF73AFE0F210020FFF77DFE50
:101F70002068FFF702FF3220FEF730FE0F2101201C
:101F8000FFF773FE6068FFF7F8FE3220FEF726FECB
:101F90000F210220FFF769FEA068FFF7EEFE322056
:101FA000FEF71CFE0F210320FFF75FFEE068FFF73E
:101FB000E4FE3220FEF712FE2846FEF70FFE2FE762
:101FC00010000020200000204348303A20256420E3
:101FD000000000004348313A202564200000000042
:101FE00054656D3A20256420000000005672653A61
:101FF00020256420000000004FF04070E1EE100A40
:102000007047000000000000000001020304060702
:102010000809000000000102030400003C20000841
:102020000000002010000000C40100084C2000083F
:102030001000002010070000E0010008010000006F
:0C20400010000000000000000024F4006C
:040000050800018965
:00000001FF
